{
  "_format": "hh-sol-artifact-1",
  "contractName": "IIITPFaucet",
  "sourceName": "contracts/IIITPFaucet.sol",
  "abi": [
    {
      "inputs": [
        {
          "internalType": "address",
          "name": "tokenAddress",
          "type": "address"
        }
      ],
      "stateMutability": "nonpayable",
      "type": "constructor"
    },
    {
      "anonymous": false,
      "inputs": [
        {
          "indexed": true,
          "internalType": "address",
          "name": "user",
          "type": "address"
        },
        {
          "indexed": false,
          "internalType": "uint256",
          "name": "amount",
          "type": "uint256"
        },
        {
          "indexed": false,
          "internalType": "bool",
          "name": "teacher",
          "type": "bool"
        }
      ],
      "name": "Claimed",
      "type": "event"
    },
    {
      "anonymous": false,
      "inputs": [
        {
          "indexed": false,
          "internalType": "uint256",
          "name": "newCooldown",
          "type": "uint256"
        }
      ],
      "name": "CooldownUpdated",
      "type": "event"
    },
    {
      "anonymous": false,
      "inputs": [
        {
          "indexed": false,
          "internalType": "uint256",
          "name": "studentDrip",
          "type": "uint256"
        },
        {
          "indexed": false,
          "internalType": "uint256",
          "name": "teacherDrip",
          "type": "uint256"
        }
      ],
      "name": "DripUpdated",
      "type": "event"
    },
    {
      "anonymous": false,
      "inputs": [
        {
          "indexed": true,
          "internalType": "address",
          "name": "previousOwner",
          "type": "address"
        },
        {
          "indexed": true,
          "internalType": "address",
          "name": "newOwner",
          "type": "address"
        }
      ],
      "name": "OwnershipTransferred",
      "type": "event"
    },
    {
      "anonymous": false,
      "inputs": [
        {
          "indexed": true,
          "internalType": "address",
          "name": "account",
          "type": "address"
        },
        {
          "indexed": false,
          "internalType": "bool",
          "name": "status",
          "type": "bool"
        }
      ],
      "name": "TeacherSet",
      "type": "event"
    },
    {
      "inputs": [
        {
          "internalType": "address",
          "name": "user",
          "type": "address"
        }
      ],
      "name": "canClaim",
      "outputs": [
        {
          "internalType": "bool",
          "name": "",
          "type": "bool"
        }
      ],
      "stateMutability": "view",
      "type": "function"
    },
    {
      "inputs": [],
      "name": "claim",
      "outputs": [],
      "stateMutability": "nonpayable",
      "type": "function"
    },
    {
      "inputs": [],
      "name": "cooldown",
      "outputs": [
        {
          "internalType": "uint256",
          "name": "",
          "type": "uint256"
        }
      ],
      "stateMutability": "view",
      "type": "function"
    },
    {
      "inputs": [
        {
          "internalType": "address",
          "name": "",
          "type": "address"
        }
      ],
      "name": "isTeacher",
      "outputs": [
        {
          "internalType": "bool",
          "name": "",
          "type": "bool"
        }
      ],
      "stateMutability": "view",
      "type": "function"
    },
    {
      "inputs": [
        {
          "internalType": "address",
          "name": "",
          "type": "address"
        }
      ],
      "name": "lastClaim",
      "outputs": [
        {
          "internalType": "uint256",
          "name": "",
          "type": "uint256"
        }
      ],
      "stateMutability": "view",
      "type": "function"
    },
    {
      "inputs": [],
      "name": "owner",
      "outputs": [
        {
          "internalType": "address",
          "name": "",
          "type": "address"
        }
      ],
      "stateMutability": "view",
      "type": "function"
    },
    {
      "inputs": [],
      "name": "renounceOwnership",
      "outputs": [],
      "stateMutability": "nonpayable",
      "type": "function"
    },
    {
      "inputs": [
        {
          "internalType": "uint256",
          "name": "_cooldown",
          "type": "uint256"
        }
      ],
      "name": "setCooldown",
      "outputs": [],
      "stateMutability": "nonpayable",
      "type": "function"
    },
    {
      "inputs": [
        {
          "internalType": "uint256",
          "name": "_studentDrip",
          "type": "uint256"
        },
        {
          "internalType": "uint256",
          "name": "_teacherDrip",
          "type": "uint256"
        }
      ],
      "name": "setDrip",
      "outputs": [],
      "stateMutability": "nonpayable",
      "type": "function"
    },
    {
      "inputs": [
        {
          "internalType": "address",
          "name": "account",
          "type": "address"
        },
        {
          "internalType": "bool",
          "name": "status",
          "type": "bool"
        }
      ],
      "name": "setTeacher",
      "outputs": [],
      "stateMutability": "nonpayable",
      "type": "function"
    },
    {
      "inputs": [
        {
          "internalType": "address[]",
          "name": "accounts",
          "type": "address[]"
        },
        {
          "internalType": "bool",
          "name": "status",
          "type": "bool"
        }
      ],
      "name": "setTeacherBatch",
      "outputs": [],
      "stateMutability": "nonpayable",
      "type": "function"
    },
    {
      "inputs": [],
      "name": "studentDrip",
      "outputs": [
        {
          "internalType": "uint256",
          "name": "",
          "type": "uint256"
        }
      ],
      "stateMutability": "view",
      "type": "function"
    },
    {
      "inputs": [],
      "name": "teacherDrip",
      "outputs": [
        {
          "internalType": "uint256",
          "name": "",
          "type": "uint256"
        }
      ],
      "stateMutability": "view",
      "type": "function"
    },
    {
      "inputs": [
        {
          "internalType": "address",
          "name": "user",
          "type": "address"
        }
      ],
      "name": "timeUntilNextClaim",
      "outputs": [
        {
          "internalType": "uint256",
          "name": "",
          "type": "uint256"
        }
      ],
      "stateMutability": "view",
      "type": "function"
    },
    {
      "inputs": [],
      "name": "token",
      "outputs": [
        {
          "internalType": "contract IIITPToken",
          "name": "",
          "type": "address"
        }
      ],
      "stateMutability": "view",
      "type": "function"
    },
    {
      "inputs": [
        {
          "internalType": "address",
          "name": "newOwner",
          "type": "address"
        }
      ],
      "name": "transferOwnership",
      "outputs": [],
      "stateMutability": "nonpayable",
      "type": "function"
    }
  ],
  "bytecode": "0x60803461011f57601f610a0238819003918201601f19168301916001600160401b038311848410176101245780849260209460405283398101031261011f57516001600160a01b0381169081900361011f5760008054336001600160a01b03198216811783556040519290916001600160a01b0316907f8be0079c531659141344cd1fd0a4f28419497f9722a3daafe3b4186f6b6457e09080a36001805568056bc75e2d63100000600355681b1ae4d6e2ef5000006004556201518060055581156100e85750600280546001600160a01b0319169190911790556040516108c7908161013b8239f35b62461bcd60e51b81526020600482015260126024820152712330bab1b2ba1d103d32b937903a37b5b2b760711b6044820152606490fd5b600080fd5b634e487b7160e01b600052604160045260246000fdfe6080604052600436101561001257600080fd5b6000803560e01c8063059e7d43146106f55780630d28b592146106d75780634e71d92d146105165780634fc3f41a146104c85780635c16e15e1461048f578063715018a614610435578063787a08a6146104175780638da5cb5b146103f057806392d82dbe146103c457806394d5ac97146103a6578063aec37eb314610367578063b26bb33514610260578063be269bf314610207578063bf3506c1146101be578063f2fde38b146100f85763fc0c546a146100cd57600080fd5b346100f557806003193601126100f5576002546040516001600160a01b039091168152602090f35b80fd5b50346100f55760203660031901126100f557610112610773565b61011a610839565b6001600160a01b0316801561016a5781546001600160a01b03198116821783556001600160a01b03167f8be0079c531659141344cd1fd0a4f28419497f9722a3daafe3b4186f6b6457e08380a380f35b60405162461bcd60e51b815260206004820152602660248201527f4f776e61626c653a206e6577206f776e657220697320746865207a65726f206160448201526564647265737360d01b6064820152608490fd5b50346100f55760203660031901126100f5576020906101fc906040906001600160a01b036101ea610773565b1681526006845220546005549061079d565b421015604051908152f35b50346100f55760403660031901126100f5577fc486bb70b1192dc7aa2964a27530bf21dfd67cacbc55fec12c020d857d8f80e3604060043560243561024a610839565b816003558060045582519182526020820152a180f35b50346100f55760403660031901126100f55760043567ffffffffffffffff811161036357366023820112156103635780600401359067ffffffffffffffff821161035f576024810190602436918460051b01011161035f57906102c161078e565b916102ca610839565b82151591845b8181106102db578580f35b6001906001600160a01b036102f96102f48386886107ff565b610825565b168752600760205261031a86604089209060ff801983541691151516179055565b818060a01b0361032e6102f48386886107ff565b167ff298082733890bb1d40c8a212d0d625c6f108630873a7b701117666ed60d7a1e6020604051888152a2016102d0565b8280fd5b5080fd5b50346100f55760203660031901126100f55760209060ff906040906001600160a01b03610392610773565b168152600784522054166040519015158152f35b50346100f557806003193601126100f5576020600354604051908152f35b50346100f55760203660031901126100f55760206103e86103e3610773565b6107c0565b604051908152f35b50346100f557806003193601126100f557546040516001600160a01b039091168152602090f35b50346100f557806003193601126100f5576020600554604051908152f35b50346100f557806003193601126100f55761044e610839565b80546001600160a01b03198116825581906001600160a01b03167f8be0079c531659141344cd1fd0a4f28419497f9722a3daafe3b4186f6b6457e08280a380f35b50346100f55760203660031901126100f5576020906040906001600160a01b036104b7610773565b168152600683522054604051908152f35b50346100f55760203660031901126100f5577f583d8b24c5439ab7d810e51e37e8db41ba66f1168fd7b752ceae0c7681c5272c6020600435610508610839565b80600555604051908152a180f35b50346100f557806003193601126100f557600260015414610692576002600155338152600660205261054f60408220546005549061079d565b421061064d573381526006602052426040822055338152600760205260ff60408220541660001461064457600454905b6002546001600160a01b0316803b15610363578180916044604051809481936340c10f1960e01b83523360048401528860248401525af180156106395761060d575b5090338252600760205260ff604083205416604051918252151560208201527ffa8256f7c08bb01a03ea96f8b3a904a4450311c9725d1c52cdbe21ed3dc42dcc60403392a26001805580f35b67ffffffffffffffff811161062557604052386105c1565b634e487b7160e01b82526041600452602482fd5b6040513d84823e3d90fd5b6003549061057f565b60405162461bcd60e51b815260206004820152601760248201527f4661756365743a20636f6f6c646f776e206163746976650000000000000000006044820152606490fd5b60405162461bcd60e51b815260206004820152601f60248201527f5265656e7472616e637947756172643a207265656e7472616e742063616c6c006044820152606490fd5b50346100f557806003193601126100f5576020600454604051908152f35b50346100f55760403660031901126100f55761070f610773565b7ff298082733890bb1d40c8a212d0d625c6f108630873a7b701117666ed60d7a1e602061073a61078e565b92610743610839565b6001600160a01b03168085526007825260408520805460ff191660ff86151516179055926040519015158152a280f35b600435906001600160a01b038216820361078957565b600080fd5b60243590811515820361078957565b919082018092116107aa57565b634e487b7160e01b600052601160045260246000fd5b6001600160a01b03166000908152600660205260409020546005546107e49161079d565b804210156107f9574281039081116107aa5790565b50600090565b919081101561080f5760051b0190565b634e487b7160e01b600052603260045260246000fd5b356001600160a01b03811681036107895790565b6000546001600160a01b0316330361084d57565b606460405162461bcd60e51b815260206004820152602060248201527f4f776e61626c653a2063616c6c6572206973206e6f7420746865206f776e65726044820152fdfea26469706673582212207cf27ee315be08afc3fcc8439e68601e7c3ce1f6290ef94d985d5d4bd135d21e64736f6c634300081c0033",
  "linkReferences": {},
  "deployedLinkReferences": {}
}