{
  "_format": "hh-sol-artifact-1",
  "contractName": "IIITPBadge",
  "sourceName": "contracts/IIITPBadge.sol",
  "abi": [
    {
      "inputs": [
        {
          "internalType": "address",
          "name": "tokenAddress",
          "type": "address"
        },
        {
          "internalType": "address",
          "name": "_treasury",
          "type": "address"
        }
      ],
      "stateMutability": "nonpayable",
      "type": "constructor"
    },
    {
      "anonymous": false,
      "inputs": [
        {
          "indexed": true,
          "internalType": "address",
          "name": "owner",
          "type": "address"
        },
        {
          "indexed": true,
          "internalType": "address",
          "name": "approved",
          "type": "address"
        },
        {
          "indexed": true,
          "internalType": "uint256",
          "name": "tokenId",
          "type": "uint256"
        }
      ],
      "name": "Approval",
      "type": "event"
    },
    {
      "anonymous": false,
      "inputs": [
        {
          "indexed": true,
          "internalType": "address",
          "name": "owner",
          "type": "address"
        },
        {
          "indexed": true,
          "internalType": "address",
          "name": "operator",
          "type": "address"
        },
        {
          "indexed": false,
          "internalType": "bool",
          "name": "approved",
          "type": "bool"
        }
      ],
      "name": "ApprovalForAll",
      "type": "event"
    },
    {
      "anonymous": false,
      "inputs": [
        {
          "indexed": true,
          "internalType": "uint256",
          "name": "tokenId",
          "type": "uint256"
        },
        {
          "indexed": true,
          "internalType": "address",
          "name": "by",
          "type": "address"
        }
      ],
      "name": "BadgeBurned",
      "type": "event"
    },
    {
      "anonymous": false,
      "inputs": [
        {
          "indexed": true,
          "internalType": "uint256",
          "name": "tokenId",
          "type": "uint256"
        },
        {
          "indexed": true,
          "internalType": "uint256",
          "name": "badgeTypeId",
          "type": "uint256"
        },
        {
          "indexed": true,
          "internalType": "address",
          "name": "to",
          "type": "address"
        }
      ],
      "name": "BadgeMinted",
      "type": "event"
    },
    {
      "anonymous": false,
      "inputs": [
        {
          "indexed": true,
          "internalType": "uint256",
          "name": "id",
          "type": "uint256"
        },
        {
          "indexed": false,
          "internalType": "string",
          "name": "name",
          "type": "string"
        },
        {
          "indexed": false,
          "internalType": "enum IIITPBadge.Tier",
          "name": "tier",
          "type": "uint8"
        },
        {
          "indexed": false,
          "internalType": "uint256",
          "name": "mintPrice",
          "type": "uint256"
        },
        {
          "indexed": false,
          "internalType": "uint256",
          "name": "maxSupply",
          "type": "uint256"
        }
      ],
      "name": "BadgeTypeCreated",
      "type": "event"
    },
    {
      "anonymous": false,
      "inputs": [
        {
          "indexed": true,
          "internalType": "uint256",
          "name": "id",
          "type": "uint256"
        }
      ],
      "name": "BadgeTypeUpdated",
      "type": "event"
    },
    {
      "anonymous": false,
      "inputs": [
        {
          "indexed": false,
          "internalType": "uint256",
          "name": "_fromTokenId",
          "type": "uint256"
        },
        {
          "indexed": false,
          "internalType": "uint256",
          "name": "_toTokenId",
          "type": "uint256"
        }
      ],
      "name": "BatchMetadataUpdate",
      "type": "event"
    },
    {
      "anonymous": false,
      "inputs": [
        {
          "indexed": false,
          "internalType": "uint256",
          "name": "_tokenId",
          "type": "uint256"
        }
      ],
      "name": "MetadataUpdate",
      "type": "event"
    },
    {
      "anonymous": false,
      "inputs": [
        {
          "indexed": false,
          "internalType": "address",
          "name": "account",
          "type": "address"
        }
      ],
      "name": "Paused",
      "type": "event"
    },
    {
      "anonymous": false,
      "inputs": [
        {
          "indexed": true,
          "internalType": "bytes32",
          "name": "role",
          "type": "bytes32"
        },
        {
          "indexed": true,
          "internalType": "bytes32",
          "name": "previousAdminRole",
          "type": "bytes32"
        },
        {
          "indexed": true,
          "internalType": "bytes32",
          "name": "newAdminRole",
          "type": "bytes32"
        }
      ],
      "name": "RoleAdminChanged",
      "type": "event"
    },
    {
      "anonymous": false,
      "inputs": [
        {
          "indexed": true,
          "internalType": "bytes32",
          "name": "role",
          "type": "bytes32"
        },
        {
          "indexed": true,
          "internalType": "address",
          "name": "account",
          "type": "address"
        },
        {
          "indexed": true,
          "internalType": "address",
          "name": "sender",
          "type": "address"
        }
      ],
      "name": "RoleGranted",
      "type": "event"
    },
    {
      "anonymous": false,
      "inputs": [
        {
          "indexed": true,
          "internalType": "bytes32",
          "name": "role",
          "type": "bytes32"
        },
        {
          "indexed": true,
          "internalType": "address",
          "name": "account",
          "type": "address"
        },
        {
          "indexed": true,
          "internalType": "address",
          "name": "sender",
          "type": "address"
        }
      ],
      "name": "RoleRevoked",
      "type": "event"
    },
    {
      "anonymous": false,
      "inputs": [
        {
          "indexed": true,
          "internalType": "address",
          "name": "from",
          "type": "address"
        },
        {
          "indexed": true,
          "internalType": "address",
          "name": "to",
          "type": "address"
        },
        {
          "indexed": true,
          "internalType": "uint256",
          "name": "tokenId",
          "type": "uint256"
        }
      ],
      "name": "Transfer",
      "type": "event"
    },
    {
      "anonymous": false,
      "inputs": [
        {
          "indexed": false,
          "internalType": "address",
          "name": "newTreasury",
          "type": "address"
        }
      ],
      "name": "TreasuryUpdated",
      "type": "event"
    },
    {
      "anonymous": false,
      "inputs": [
        {
          "indexed": false,
          "internalType": "address",
          "name": "account",
          "type": "address"
        }
      ],
      "name": "Unpaused",
      "type": "event"
    },
    {
      "inputs": [],
      "name": "DEFAULT_ADMIN_ROLE",
      "outputs": [
        {
          "internalType": "bytes32",
          "name": "",
          "type": "bytes32"
        }
      ],
      "stateMutability": "view",
      "type": "function"
    },
    {
      "inputs": [],
      "name": "MINTER_ROLE",
      "outputs": [
        {
          "internalType": "bytes32",
          "name": "",
          "type": "bytes32"
        }
      ],
      "stateMutability": "view",
      "type": "function"
    },
    {
      "inputs": [],
      "name": "PAUSER_ROLE",
      "outputs": [
        {
          "internalType": "bytes32",
          "name": "",
          "type": "bytes32"
        }
      ],
      "stateMutability": "view",
      "type": "function"
    },
    {
      "inputs": [
        {
          "internalType": "address",
          "name": "to",
          "type": "address"
        },
        {
          "internalType": "uint256",
          "name": "badgeTypeId",
          "type": "uint256"
        },
        {
          "internalType": "string",
          "name": "uri",
          "type": "string"
        }
      ],
      "name": "airdrop",
      "outputs": [
        {
          "internalType": "uint256",
          "name": "",
          "type": "uint256"
        }
      ],
      "stateMutability": "nonpayable",
      "type": "function"
    },
    {
      "inputs": [
        {
          "internalType": "address",
          "name": "to",
          "type": "address"
        },
        {
          "internalType": "uint256",
          "name": "tokenId",
          "type": "uint256"
        }
      ],
      "name": "approve",
      "outputs": [],
      "stateMutability": "nonpayable",
      "type": "function"
    },
    {
      "inputs": [
        {
          "internalType": "uint256",
          "name": "",
          "type": "uint256"
        }
      ],
      "name": "badgeMeta",
      "outputs": [
        {
          "internalType": "uint256",
          "name": "badgeTypeId",
          "type": "uint256"
        },
        {
          "internalType": "uint256",
          "name": "mintedAt",
          "type": "uint256"
        },
        {
          "internalType": "address",
          "name": "mintedBy",
          "type": "address"
        }
      ],
      "stateMutability": "view",
      "type": "function"
    },
    {
      "inputs": [
        {
          "internalType": "uint256",
          "name": "",
          "type": "uint256"
        }
      ],
      "name": "badgeTypes",
      "outputs": [
        {
          "internalType": "string",
          "name": "name",
          "type": "string"
        },
        {
          "internalType": "string",
          "name": "category",
          "type": "string"
        },
        {
          "internalType": "enum IIITPBadge.Tier",
          "name": "tier",
          "type": "uint8"
        },
        {
          "internalType": "uint256",
          "name": "mintPrice",
          "type": "uint256"
        },
        {
          "internalType": "uint256",
          "name": "maxSupply",
          "type": "uint256"
        },
        {
          "internalType": "uint256",
          "name": "minted",
          "type": "uint256"
        },
        {
          "internalType": "bool",
          "name": "active",
          "type": "bool"
        }
      ],
      "stateMutability": "view",
      "type": "function"
    },
    {
      "inputs": [
        {
          "internalType": "address",
          "name": "owner",
          "type": "address"
        }
      ],
      "name": "balanceOf",
      "outputs": [
        {
          "internalType": "uint256",
          "name": "",
          "type": "uint256"
        }
      ],
      "stateMutability": "view",
      "type": "function"
    },
    {
      "inputs": [
        {
          "internalType": "uint256",
          "name": "tokenId",
          "type": "uint256"
        }
      ],
      "name": "burn",
      "outputs": [],
      "stateMutability": "nonpayable",
      "type": "function"
    },
    {
      "inputs": [
        {
          "internalType": "string",
          "name": "name",
          "type": "string"
        },
        {
          "internalType": "string",
          "name": "category",
          "type": "string"
        },
        {
          "internalType": "enum IIITPBadge.Tier",
          "name": "tier",
          "type": "uint8"
        },
        {
          "internalType": "uint256",
          "name": "mintPrice",
          "type": "uint256"
        },
        {
          "internalType": "uint256",
          "name": "maxSupply",
          "type": "uint256"
        }
      ],
      "name": "createBadgeType",
      "outputs": [
        {
          "internalType": "uint256",
          "name": "",
          "type": "uint256"
        }
      ],
      "stateMutability": "nonpayable",
      "type": "function"
    },
    {
      "inputs": [],
      "name": "getAllBadgeTypes",
      "outputs": [
        {
          "components": [
            {
              "internalType": "string",
              "name": "name",
              "type": "string"
            },
            {
              "internalType": "string",
              "name": "category",
              "type": "string"
            },
            {
              "internalType": "enum IIITPBadge.Tier",
              "name": "tier",
              "type": "uint8"
            },
            {
              "internalType": "uint256",
              "name": "mintPrice",
              "type": "uint256"
            },
            {
              "internalType": "uint256",
              "name": "maxSupply",
              "type": "uint256"
            },
            {
              "internalType": "uint256",
              "name": "minted",
              "type": "uint256"
            },
            {
              "internalType": "bool",
              "name": "active",
              "type": "bool"
            }
          ],
          "internalType": "struct IIITPBadge.BadgeType[]",
          "name": "",
          "type": "tuple[]"
        }
      ],
      "stateMutability": "view",
      "type": "function"
    },
    {
      "inputs": [
        {
          "internalType": "uint256",
          "name": "tokenId",
          "type": "uint256"
        }
      ],
      "name": "getApproved",
      "outputs": [
        {
          "internalType": "address",
          "name": "",
          "type": "address"
        }
      ],
      "stateMutability": "view",
      "type": "function"
    },
    {
      "inputs": [],
      "name": "getBadgeTypeCount",
      "outputs": [
        {
          "internalType": "uint256",
          "name": "",
          "type": "uint256"
        }
      ],
      "stateMutability": "view",
      "type": "function"
    },
    {
      "inputs": [
        {
          "internalType": "address",
          "name": "owner",
          "type": "address"
        }
      ],
      "name": "getOwnedTokens",
      "outputs": [
        {
          "internalType": "uint256[]",
          "name": "",
          "type": "uint256[]"
        }
      ],
      "stateMutability": "view",
      "type": "function"
    },
    {
      "inputs": [
        {
          "internalType": "bytes32",
          "name": "role",
          "type": "bytes32"
        }
      ],
      "name": "getRoleAdmin",
      "outputs": [
        {
          "internalType": "bytes32",
          "name": "",
          "type": "bytes32"
        }
      ],
      "stateMutability": "view",
      "type": "function"
    },
    {
      "inputs": [
        {
          "internalType": "bytes32",
          "name": "role",
          "type": "bytes32"
        },
        {
          "internalType": "address",
          "name": "account",
          "type": "address"
        }
      ],
      "name": "grantRole",
      "outputs": [],
      "stateMutability": "nonpayable",
      "type": "function"
    },
    {
      "inputs": [
        {
          "internalType": "address",
          "name": "",
          "type": "address"
        },
        {
          "internalType": "uint256",
          "name": "",
          "type": "uint256"
        }
      ],
      "name": "hasMinted",
      "outputs": [
        {
          "internalType": "bool",
          "name": "",
          "type": "bool"
        }
      ],
      "stateMutability": "view",
      "type": "function"
    },
    {
      "inputs": [
        {
          "internalType": "bytes32",
          "name": "role",
          "type": "bytes32"
        },
        {
          "internalType": "address",
          "name": "account",
          "type": "address"
        }
      ],
      "name": "hasRole",
      "outputs": [
        {
          "internalType": "bool",
          "name": "",
          "type": "bool"
        }
      ],
      "stateMutability": "view",
      "type": "function"
    },
    {
      "inputs": [
        {
          "internalType": "address",
          "name": "owner",
          "type": "address"
        },
        {
          "internalType": "address",
          "name": "operator",
          "type": "address"
        }
      ],
      "name": "isApprovedForAll",
      "outputs": [
        {
          "internalType": "bool",
          "name": "",
          "type": "bool"
        }
      ],
      "stateMutability": "view",
      "type": "function"
    },
    {
      "inputs": [
        {
          "internalType": "uint256",
          "name": "badgeTypeId",
          "type": "uint256"
        },
        {
          "internalType": "string",
          "name": "uri",
          "type": "string"
        }
      ],
      "name": "mint",
      "outputs": [
        {
          "internalType": "uint256",
          "name": "",
          "type": "uint256"
        }
      ],
      "stateMutability": "nonpayable",
      "type": "function"
    },
    {
      "inputs": [],
      "name": "name",
      "outputs": [
        {
          "internalType": "string",
          "name": "",
          "type": "string"
        }
      ],
      "stateMutability": "view",
      "type": "function"
    },
    {
      "inputs": [
        {
          "internalType": "uint256",
          "name": "tokenId",
          "type": "uint256"
        }
      ],
      "name": "ownerOf",
      "outputs": [
        {
          "internalType": "address",
          "name": "",
          "type": "address"
        }
      ],
      "stateMutability": "view",
      "type": "function"
    },
    {
      "inputs": [],
      "name": "pause",
      "outputs": [],
      "stateMutability": "nonpayable",
      "type": "function"
    },
    {
      "inputs": [],
      "name": "paused",
      "outputs": [
        {
          "internalType": "bool",
          "name": "",
          "type": "bool"
        }
      ],
      "stateMutability": "view",
      "type": "function"
    },
    {
      "inputs": [
        {
          "internalType": "bytes32",
          "name": "role",
          "type": "bytes32"
        },
        {
          "internalType": "address",
          "name": "account",
          "type": "address"
        }
      ],
      "name": "renounceRole",
      "outputs": [],
      "stateMutability": "nonpayable",
      "type": "function"
    },
    {
      "inputs": [
        {
          "internalType": "bytes32",
          "name": "role",
          "type": "bytes32"
        },
        {
          "internalType": "address",
          "name": "account",
          "type": "address"
        }
      ],
      "name": "revokeRole",
      "outputs": [],
      "stateMutability": "nonpayable",
      "type": "function"
    },
    {
      "inputs": [
        {
          "internalType": "address",
          "name": "from",
          "type": "address"
        },
        {
          "internalType": "address",
          "name": "to",
          "type": "address"
        },
        {
          "internalType": "uint256",
          "name": "tokenId",
          "type": "uint256"
        }
      ],
      "name": "safeTransferFrom",
      "outputs": [],
      "stateMutability": "nonpayable",
      "type": "function"
    },
    {
      "inputs": [
        {
          "internalType": "address",
          "name": "from",
          "type": "address"
        },
        {
          "internalType": "address",
          "name": "to",
          "type": "address"
        },
        {
          "internalType": "uint256",
          "name": "tokenId",
          "type": "uint256"
        },
        {
          "internalType": "bytes",
          "name": "data",
          "type": "bytes"
        }
      ],
      "name": "safeTransferFrom",
      "outputs": [],
      "stateMutability": "nonpayable",
      "type": "function"
    },
    {
      "inputs": [
        {
          "internalType": "address",
          "name": "operator",
          "type": "address"
        },
        {
          "internalType": "bool",
          "name": "approved",
          "type": "bool"
        }
      ],
      "name": "setApprovalForAll",
      "outputs": [],
      "stateMutability": "nonpayable",
      "type": "function"
    },
    {
      "inputs": [
        {
          "internalType": "uint256",
          "name": "id",
          "type": "uint256"
        },
        {
          "internalType": "bool",
          "name": "active",
          "type": "bool"
        }
      ],
      "name": "setBadgeTypeActive",
      "outputs": [],
      "stateMutability": "nonpayable",
      "type": "function"
    },
    {
      "inputs": [
        {
          "internalType": "uint256",
          "name": "id",
          "type": "uint256"
        },
        {
          "internalType": "uint256",
          "name": "price",
          "type": "uint256"
        }
      ],
      "name": "setBadgeTypePrice",
      "outputs": [],
      "stateMutability": "nonpayable",
      "type": "function"
    },
    {
      "inputs": [
        {
          "internalType": "address",
          "name": "_treasury",
          "type": "address"
        }
      ],
      "name": "setTreasury",
      "outputs": [],
      "stateMutability": "nonpayable",
      "type": "function"
    },
    {
      "inputs": [
        {
          "internalType": "bytes4",
          "name": "interfaceId",
          "type": "bytes4"
        }
      ],
      "name": "supportsInterface",
      "outputs": [
        {
          "internalType": "bool",
          "name": "",
          "type": "bool"
        }
      ],
      "stateMutability": "view",
      "type": "function"
    },
    {
      "inputs": [],
      "name": "symbol",
      "outputs": [
        {
          "internalType": "string",
          "name": "",
          "type": "string"
        }
      ],
      "stateMutability": "view",
      "type": "function"
    },
    {
      "inputs": [],
      "name": "token",
      "outputs": [
        {
          "internalType": "contract I_IIITPToken",
          "name": "",
          "type": "address"
        }
      ],
      "stateMutability": "view",
      "type": "function"
    },
    {
      "inputs": [
        {
          "internalType": "uint256",
          "name": "index",
          "type": "uint256"
        }
      ],
      "name": "tokenByIndex",
      "outputs": [
        {
          "internalType": "uint256",
          "name": "",
          "type": "uint256"
        }
      ],
      "stateMutability": "view",
      "type": "function"
    },
    {
      "inputs": [
        {
          "internalType": "address",
          "name": "owner",
          "type": "address"
        },
        {
          "internalType": "uint256",
          "name": "index",
          "type": "uint256"
        }
      ],
      "name": "tokenOfOwnerByIndex",
      "outputs": [
        {
          "internalType": "uint256",
          "name": "",
          "type": "uint256"
        }
      ],
      "stateMutability": "view",
      "type": "function"
    },
    {
      "inputs": [
        {
          "internalType": "uint256",
          "name": "tokenId",
          "type": "uint256"
        }
      ],
      "name": "tokenURI",
      "outputs": [
        {
          "internalType": "string",
          "name": "",
          "type": "string"
        }
      ],
      "stateMutability": "view",
      "type": "function"
    },
    {
      "inputs": [],
      "name": "totalMinted",
      "outputs": [
        {
          "internalType": "uint256",
          "name": "",
          "type": "uint256"
        }
      ],
      "stateMutability": "view",
      "type": "function"
    },
    {
      "inputs": [],
      "name": "totalSupply",
      "outputs": [
        {
          "internalType": "uint256",
          "name": "",
          "type": "uint256"
        }
      ],
      "stateMutability": "view",
      "type": "function"
    },
    {
      "inputs": [
        {
          "internalType": "address",
          "name": "from",
          "type": "address"
        },
        {
          "internalType": "address",
          "name": "to",
          "type": "address"
        },
        {
          "internalType": "uint256",
          "name": "tokenId",
          "type": "uint256"
        }
      ],
      "name": "transferFrom",
      "outputs": [],
      "stateMutability": "nonpayable",
      "type": "function"
    },
    {
      "inputs": [],
      "name": "treasury",
      "outputs": [
        {
          "internalType": "address",
          "name": "",
          "type": "address"
        }
      ],
      "stateMutability": "view",
      "type": "function"
    },
    {
      "inputs": [],
      "name": "unpause",
      "outputs": [],
      "stateMutability": "nonpayable",
      "type": "function"
    }
  ],
  "bytecode": "0x60a0604052346106e357614e366040813803918261001c81610707565b9384928339810103126106e35761003e60206100378361072c565b920161072c565b906100496040610707565b91600a8352694949495450426164676560b01b602084015261006b6040610707565b6007815266124cd51413919560ca1b602082015283519092906001600160401b0381116105ee57600054600181811c911680156106d9575b60208210146105ce57601f8111610675575b50602094601f821160011461060f57948192939495600092610604575b50508160011b916000199060031b1c1916176000555b82516001600160401b0381116105ee57600154600181811c911680156105e4575b60208210146105ce57601f8111610569575b506020601f821160011461050257819293946000926104f7575b50508160011b916000199060031b1c1916176001555b600c805460ff191690556001600160a01b03908116608052600f80546001600160a01b03191692909116919091179055336000908152600080516020614dd6833981519152602052604090205460ff16156104b7575b336000908152600080516020614e16833981519152602052604090205460ff1615610455575b3360009081527f7aabb41b9887dc0093c744cd74ad704cf0e605a10880518010fc739828f23c45602052604090205460ff16156103e1575b61024f61020c6040610707565b600e81526d23b2b732b9b4b99026b2b6b132b960911b60208201526102316040610707565b90600b82526a636f6c6c65637469626c6560a81b6020830152610740565b5061029f61025d6040610707565b600d81526c22b0b9363c9020b237b83a32b960991b60208201526102816040610707565b90600b82526a636f6c6c65637469626c6560a81b6020830152610ade565b506102ee6102ad6040610707565b600c81526b5374616b657220426164676560a01b60208201526102d06040610707565b90600b82526a1858da1a595d995b595b9d60aa1b6020830152610e68565b5061031e6102fc6040610707565b600b81526a2737b23290293ab73732b960a91b60208201526102d06040610707565b5061036c61032c6040610707565b600b81526a566f74657220426164676560a81b602082015261034e6040610707565b90600b82526a1858da1a595d995b595b9d60aa1b60208301526111fc565b506103c161037a6040610707565b601281527143616d70757320436572746966696361746560701b60208201526103a36040610707565b90600b82526a636572746966696361746560a81b602083015261158f565b506040516134929081611924823960805181818161020e01526112120152f35b3360008181527f7aabb41b9887dc0093c744cd74ad704cf0e605a10880518010fc739828f23c4560205260408120805460ff1916600117905581907f65d7a28e3265b37a6474929f336521b332c1681b933f6cb9f3376673440d862a90600080516020614db68339815191529080a46101ff565b336000818152600080516020614e1683398151915260205260408120805460ff1916600117905581907f9f2df0fed2c77648de5860a4cc508cd0818c85b8b8a1ab4ceeef8d981c8956a690600080516020614db68339815191529080a46101c7565b336000818152600080516020614dd683398151915260205260408120805460ff191660011790558190600080516020614db68339815191528180a46101a1565b015190503880610135565b601f198216906001600052806000209160005b81811061055157509583600195969710610538575b505050811b0160015561014b565b015160001960f88460031b161c1916905538808061052a565b9192602060018192868b015181550194019201610515565b60016000527fb10e2d527612073b26eecdfd717e6a320cf44b4afac2b0732d9fcbe2b7fa0cf6601f830160051c810191602084106105c4575b601f0160051c01905b8181106105b8575061011b565b600081556001016105ab565b90915081906105a2565b634e487b7160e01b600052602260045260246000fd5b90607f1690610109565b634e487b7160e01b600052604160045260246000fd5b0151905038806100d2565b601f1982169560008052806000209160005b88811061065d57508360019596979810610644575b505050811b016000556100e8565b015160001960f88460031b161c19169055388080610636565b91926020600181928685015181550194019201610621565b600080527f290decd9548b62a8d60345a988386fc84ba6bc95484008f6362f93160ef3e563601f830160051c810191602084106106cf575b601f0160051c01905b8181106106c357506100b5565b600081556001016106b6565b90915081906106ad565b90607f16906100a3565b600080fd5b6040519060e082016001600160401b038111838210176105ee57604052565b6040519190601f01601f191682016001600160401b038111838210176105ee57604052565b51906001600160a01b03821682036106e357565b600e549160018301600e556107536106e8565b828152602081019182526040810191600383526060820190681b1ae4d6e2ef5000008252608083016064815260a08401906000825260c0850192600184528860005260106020526040600020955180519060018060401b0382116105ee57875490600182811c92168015610ad4575b60208310146105ce5781601f849311610a81575b50602090601f8311600114610a1c57600092610a11575b50508160011b916000199060031b1c19161786555b51805160018701916001600160401b0382116105ee57825490600182811c92168015610a07575b60208310146105ce5781601f8493116109b4575b50602090601f831160011461094f57600092610944575b50508160011b916000199060031b1c19161790555b60028501955193600485101561092e57865460ff1990811660ff968716179097555160038601555160048501555160058401555160069092018054909316911515161790558190604051906080825280519081608084015260005b8281106109165750509060a08183600083600080516020614df6833981519152968401015260036020830152681b1ae4d6e2ef500000604083015260646060830152601f80199101168101030190a290565b602082820181015160a08684010152869550016108c4565b634e487b7160e01b600052602160045260246000fd5b015190503880610854565b60008581528281209350601f198516905b81811061099c5750908460019594939210610983575b505050811b019055610869565b015160001960f88460031b161c19169055388080610976565b92936020600181928786015181550195019301610960565b909150836000526020600020601f840160051c810191602085106109fd575b90601f859493920160051c01905b8181106109ee575061083d565b600081558493506001016109e1565b90915081906109d3565b91607f1691610829565b0151905038806107ed565b60008a81528281209350601f198516905b818110610a695750908460019594939210610a50575b505050811b018655610802565b015160001960f88460031b161c19169055388080610a43565b92936020600181928786015181550195019301610a2d565b909150886000526020600020601f840160051c81019160208510610aca575b90601f859493920160051c01905b818110610abb57506107d6565b60008155849350600101610aae565b9091508190610aa0565b91607f16916107c2565b600e549160018301600e55610af16106e8565b828152602081019182526040810191600283526060820190680ad78ebc5ac62000008252608083016101f4815260a08401906000825260c0850192600184528860005260106020526040600020955180519060018060401b0382116105ee57875490600182811c92168015610e5e575b60208310146105ce5781601f849311610e0b575b50602090601f8311600114610da657600092610d9b575b50508160011b916000199060031b1c19161786555b51805160018701916001600160401b0382116105ee57825490600182811c92168015610d91575b60208310146105ce5781601f849311610d3e575b50602090601f8311600114610cd957600092610cce575b50508160011b916000199060031b1c19161790555b60028501955193600485101561092e57865460ff1990811660ff968716179097555160038601555160048501555160058401555160069092018054909316911515161790558190604051906080825280519081608084015260005b828110610cb65750509060a08183600083600080516020614df6833981519152968401015260026020830152680ad78ebc5ac620000060408301526101f46060830152601f80199101168101030190a290565b602082820181015160a0868401015286955001610c63565b015190503880610bf3565b60008581528281209350601f198516905b818110610d265750908460019594939210610d0d575b505050811b019055610c08565b015160001960f88460031b161c19169055388080610d00565b92936020600181928786015181550195019301610cea565b909150836000526020600020601f840160051c81019160208510610d87575b90601f859493920160051c01905b818110610d785750610bdc565b60008155849350600101610d6b565b9091508190610d5d565b91607f1691610bc8565b015190503880610b8c565b60008a81528281209350601f198516905b818110610df35750908460019594939210610dda575b505050811b018655610ba1565b015160001960f88460031b161c19169055388080610dcd565b92936020600181928786015181550195019301610db7565b909150886000526020600020601f840160051c81019160208510610e54575b90601f859493920160051c01905b818110610e455750610b75565b60008155849350600101610e38565b9091508190610e2a565b91607f1691610b61565b90600e549160018301600e55610e7c6106e8565b8181526020810192835260408101906001825260608101916802b5e3af16b1880000835260808201946000865260a083016000815260c0840191600183528860005260106020526040600020945180519060018060401b0382116105ee57865490600182811c921680156111f2575b60208310146105ce5781601f84931161119f575b50602090601f831160011461113a5760009261112f575b50508160011b916000199060031b1c19161785555b51805160018601916001600160401b0382116105ee57825490600182811c92168015611125575b60208310146105ce5781601f8493116110d2575b50602090601f831160011461106d57600092611062575b50508160011b916000199060031b1c19161790555b60028401925196600488101561092e57906006929189989796610fe7969560009960ff8019835416911617905551600386015551600485015551600584015551151591019060ff801983541691151516179055565b6040519160808352815191826080850152815b83811061104a57505082828260a093848496600080516020614df683398151915298010152600160208401526802b5e3af16b188000060408401526060830152601f80199101168101030190a290565b602082820181015160a0878401015287965001610ffa565b015190503880610f7d565b60008581528281209350601f198516905b8181106110ba57509084600195949392106110a1575b505050811b019055610f92565b015160001960f88460031b161c19169055388080611094565b9293602060018192878601518155019501930161107e565b909150836000526020600020601f840160051c8101916020851061111b575b90601f859493920160051c01905b81811061110c5750610f66565b600081558493506001016110ff565b90915081906110f1565b91607f1691610f52565b015190503880610f16565b60008981528281209350601f198516905b818110611187575090846001959493921061116e575b505050811b018555610f2b565b015160001960f88460031b161c19169055388080611161565b9293602060018192878601518155019501930161114b565b909150876000526020600020601f840160051c810191602085106111e8575b90601f859493920160051c01905b8181106111d95750610eff565b600081558493506001016111cc565b90915081906111be565b91607f1691610eeb565b90600e549160018301600e556112106106e8565b8181526020810192835260408101906000825260608101916801158e460913d00000835260808201946000865260a083016000815260c0840191600183528860005260106020526040600020945180519060018060401b0382116105ee57865490600182811c92168015611585575b60208310146105ce5781601f849311611532575b50602090601f83116001146114cd576000926114c2575b50508160011b916000199060031b1c19161785555b51805160018601916001600160401b0382116105ee57825490600182811c921680156114b8575b60208310146105ce5781601f849311611465575b50602090601f8311600114611400576000926113f5575b50508160011b916000199060031b1c19161790555b60028401925196600488101561092e5790600692918998979661137b969560009960ff8019835416911617905551600386015551600485015551600584015551151591019060ff801983541691151516179055565b6040519160808352815191826080850152815b8381106113dd57505082828260a093848496600080516020614df6833981519152980101528060208401526801158e460913d0000060408401526060830152601f80199101168101030190a290565b602082820181015160a087840101528796500161138e565b015190503880611311565b60008581528281209350601f198516905b81811061144d5750908460019594939210611434575b505050811b019055611326565b015160001960f88460031b161c19169055388080611427565b92936020600181928786015181550195019301611411565b909150836000526020600020601f840160051c810191602085106114ae575b90601f859493920160051c01905b81811061149f57506112fa565b60008155849350600101611492565b9091508190611484565b91607f16916112e6565b0151905038806112aa565b60008981528281209350601f198516905b81811061151a5750908460019594939210611501575b505050811b0185556112bf565b015160001960f88460031b161c191690553880806114f4565b929360206001819287860151815501950193016114de565b909150876000526020600020601f840160051c8101916020851061157b575b90601f859493920160051c01905b81811061156c5750611293565b6000815584935060010161155f565b9091508190611551565b91607f169161127f565b90600e549160018301600e556115a36106e8565b81815260208101928352604081019060028252606081019168056bc75e2d63100000835260808201946000865260a083016000815260c0840191600183528860005260106020526040600020945180519060018060401b0382116105ee57865490600182811c92168015611919575b60208310146105ce5781601f8493116118c6575b50602090601f831160011461186157600092611856575b50508160011b916000199060031b1c19161785555b51805160018601916001600160401b0382116105ee57825490600182811c9216801561184c575b60208310146105ce5781601f8493116117f9575b50602090601f831160011461179457600092611789575b50508160011b916000199060031b1c19161790555b60028401925196600488101561092e5790600692918998979661170e969560009960ff8019835416911617905551600386015551600485015551600584015551151591019060ff801983541691151516179055565b6040519160808352815191826080850152815b83811061177157505082828260a093848496600080516020614df6833981519152980101526002602084015268056bc75e2d6310000060408401526060830152601f80199101168101030190a290565b602082820181015160a0878401015287965001611721565b0151905038806116a4565b60008581528281209350601f198516905b8181106117e157509084600195949392106117c8575b505050811b0190556116b9565b015160001960f88460031b161c191690553880806117bb565b929360206001819287860151815501950193016117a5565b909150836000526020600020601f840160051c81019160208510611842575b90601f859493920160051c01905b818110611833575061168d565b60008155849350600101611826565b9091508190611818565b91607f1691611679565b01519050388061163d565b60008981528281209350601f198516905b8181106118ae5750908460019594939210611895575b505050811b018555611652565b015160001960f88460031b161c19169055388080611888565b92936020600181928786015181550195019301611872565b909150876000526020600020601f840160051c8101916020851061190f575b90601f859493920160051c01905b8181106119005750611626565b600081558493506001016118f3565b90915081906118e5565b91607f169161161256fe608080604052600436101561001357600080fd5b60003560e01c90816301ffc9a7146125005750806306fdde031461245b578063081812fc1461243d578063095ea7b3146122b457806318160ddd1461229657806323b872dd14612272578063248a9ca3146122455780632df68b3b146120565780632f2ff15d14611f965780632f745c5914611f6f57806336568abe14611edd5780633f4ba83a14611e4957806342842e0e14611e1457806342966c6814611ac65780634f6ccce714611a3457806359bd8f82146119c45780635c975abb146119a157806361d027b3146119785780636352211e1461194857806365978e0f146113e457806369ac7018146113c657806370a082311461139b57806377097fc814610d1e5780638456cb5914610cc457806391d1485414610c7757806395d89b4114610baa578063a217fddf14610b8e578063a22cb46514610ab6578063a2309ff814610a98578063ae9abb7b146109ef578063b88d4fde1461096a578063c87b56dd14610933578063d4a54c6314610577578063d53913931461053c578063d547741f146104f5578063d9d6165514610435578063e63ab1e9146103fa578063e985e9c51461039f578063ee6c60cf14610347578063f0f44260146102db578063f63043351461028f578063f8f1147d146102425763fc0c546a146101f857600080fd5b3461023d57600036600319011261023d576040517f00000000000000000000000000000000000000000000000000000000000000006001600160a01b03168152602090f35b600080fd5b3461023d57604036600319011261023d576001600160a01b03610263612601565b1660005260126020526040600020602435600052602052602060ff604060002054166040519015158152f35b3461023d57602036600319011261023d57600435600052601160205260606040600020805490600181015490600260018060a01b03910154169060405192835260208301526040820152f35b3461023d57602036600319011261023d577f7dae230f18360d76a040c81f050aa14eb9d6dc7901b20fc5d855e2a20fe814d16020610317612601565b61031f612e4c565b600f80546001600160a01b0319166001600160a01b03929092169182179055604051908152a1005b3461023d57604036600319011261023d57600435610363612e4c565b8060005260106020526024356003604060002001557f9aabaf22b7bbbeb2f187b83abfbae5bc808d80c8ad63c4bde716537705a6be4a600080a2005b3461023d57604036600319011261023d576103b8612601565b6103c0612617565b9060018060a01b0316600052600560205260406000209060018060a01b0316600052602052602060ff604060002054166040519015158152f35b3461023d57600036600319011261023d5760206040517f65d7a28e3265b37a6474929f336521b332c1681b933f6cb9f3376673440d862a8152f35b3461023d57602036600319011261023d5761044e612601565b61045781612a3f565b90610461826128d7565b9161046f6040519384612720565b80835261047b816128d7565b602084019290601f190136843760005b8281106104d75783856040519182916020830190602084525180915260408301919060005b8181106104be575050500390f35b82518452859450602093840193909201916001016104b0565b806104e460019284612924565b6104ee82886128ee565b520161048b565b3461023d57604036600319011261023d5761053a600435610514612617565b9061053561053082600052600b60205260016040600020015490565b612ea0565b612ee0565b005b3461023d57600036600319011261023d5760206040517f9f2df0fed2c77648de5860a4cc508cd0818c85b8b8a1ab4ceeef8d981c8956a68152f35b3461023d5760a036600319011261023d576004356001600160401b03811161023d576105a7903690600401612683565b6024356001600160401b03811161023d576105c6903690600401612683565b9160443591600483101561023d576105fa906105f260643596608435946105eb612e4c565b3691612800565b943691612800565b93600e549360018501600e5560405193610613856126ea565b81855260208501968752604085019361062c8286612918565b6060860193808552608087019582875260a08801976000895260c081019a60018c528a6000526010602052604060002091518051906001600160401b0382116108845761067984546126b0565b601f8111610901575b50602090601f831160011461089a576106b49291600091836107d5575b50508160011b916000199060031b1c19161790565b82555b51805160018301916001600160401b038211610884576106d783546126b0565b601f8111610847575b50602090601f83116001146107e0576107119291600091836107d55750508160011b916000199060031b1c19161790565b90555b60028101915160048110156107bf5760209b8b9a7f2fdae2103c77b58466d069ed2d687691b79d2a5b61554edd2291d8f4a95818909a6107a09a6107899660069560ff8019835416911617905551600386015551600485015551600584015551151591019060ff801983541691151516179055565b6107aa6040519586956080875260808701906125dc565b938a860190612667565b604084015260608301520390a2604051908152f35b634e487b7160e01b600052602160045260246000fd5b015190508f8061069f565b90601f1983169184600052816000209260005b81811061082f5750908460019594939210610816575b505050811b019055610714565b015160001960f88460031b161c191690558e8080610809565b929360206001819287860151815501950193016107f3565b61087490846000526020600020601f850160051c8101916020861061087a575b601f0160051c0190613069565b8e6106e0565b9091508190610867565b634e487b7160e01b600052604160045260246000fd5b90601f1983169185600052816000209260005b8181106108e957509084600195949392106108d0575b505050811b0182556106b7565b015160001960f88460031b161c191690558e80806108c3565b929360206001819287860151815501950193016108ad565b61092d90856000526020600020601f850160051c8101916020861061087a57601f0160051c0190613069565b8e610682565b3461023d57602036600319011261023d5761096661095260043561301d565b6040519182916020835260208301906125dc565b0390f35b3461023d57608036600319011261023d57610983612601565b61098b612617565b90606435906044356001600160401b03831161023d573660238401121561023d5761053a936109c76109ea943690602481600401359101612800565b926109da6109d58433612ab6565b612875565b6109e5838383612b89565b61319a565b612ffd565b3461023d57602036600319011261023d576004356000526010602052610a656040600020610a1c81612741565b90610a2960018201612741565b60ff600283015416916003810154600482015490610a7e610a7360ff600660058701549601541695604051998a9960e08b5260e08b01906125dc565b9089820360208b01526125dc565b956040880190612667565b6060860152608085015260a0840152151560c08301520390f35b3461023d57600036600319011261023d576020600d54604051908152f35b3461023d57604036600319011261023d57610acf612601565b610ad7612674565b6001600160a01b0390911690338214610b4957336000526005602052604060002082600052602052610b198160406000209060ff801983541691151516179055565b60405190151581527f17307eab39ab6107e8899845ad3d59bd9653f200f220920489ca2b5937696c3160203392a3005b60405162461bcd60e51b815260206004820152601960248201527f4552433732313a20617070726f766520746f2063616c6c6572000000000000006044820152606490fd5b3461023d57600036600319011261023d57602060405160008152f35b3461023d57600036600319011261023d576040516000600154610bcc816126b0565b8084529060018116908115610c535750600114610bf4575b6109668361095281850382612720565b600160009081527fb10e2d527612073b26eecdfd717e6a320cf44b4afac2b0732d9fcbe2b7fa0cf6939250905b808210610c3957509091508101602001610952610be4565b919260018160209254838588010152019101909291610c21565b60ff191660208086019190915291151560051b840190910191506109529050610be4565b3461023d57604036600319011261023d57610c90612617565b600435600052600b60205260406000209060018060a01b0316600052602052602060ff604060002054166040519015158152f35b3461023d57600036600319011261023d57610cdd612dd9565b610ce5612f66565b600160ff19600c541617600c557f62e78cea01bee320cd4e420270b5ea74000d11b0c9f74754ebdbfc544b05a2586020604051338152a1005b3461023d57604036600319011261023d576004356024356001600160401b03811161023d57610d51903690600401612683565b90610d5a612f66565b826000526010602052604060002060ff600682015416156113605733600052601260205260406000208460005260205260ff6040600020541661131b576004810154801590811561130d575b50156112d35760030154806111d5575b50610dc2913691612800565b906001600d540180600d5560209260405190610dde8583612720565b6000825233159182159261119257600084815260026020526040902054610e11906001600160a01b031615155b156133f0565b60095484600052600a875280604060002055600160401b81101561088457610ed791610e6386610e4a8460016109ea96016009556129b2565b90919082549060031b91821b91600019901b1916179055565b600094611162575b600086815260026020526040902054610e8e906001600160a01b03161515610e0b565b338086526003895260408087208054600101905587875260028a52862080546001600160a01b0319168217905586908660008051602061343d8339815191528180a48533613080565b6000838152600260205260409020546001600160a01b031615611106578282526006855260408220908051906001600160401b0382116110f257610f1b83546126b0565b601f81116110c4575b508690601f831160011461106157610f5392918591836110565750508160011b916000199060031b1c19161790565b90555b7ff8e1a15aba9398e019f0b49df1a4fde98ee17ae345cb5f6b5e2c27f5033e8ce784604051848152a1604051610f8b81612705565b838152428582019081523360408084019182528585526011885280852093518455915160018401555160029290920180546001600160a01b0319166001600160a01b039390931692909217909155838252601085528120600501805460001981146110425760010190553381526012845260408120838252845260408120600160ff1982541617905560405192827f77a876d9d740d9b9463656513f72679ef9ffc0ecf22d7246246f17e554e50d3b339380a48152f35b634e487b7160e01b83526011600452602483fd5b01519050888061069f565b8385528785209190601f198416865b8a8282106110ae575050908460019594939210611095575b505050811b019055610f56565b015160001960f88460031b161c19169055878080611088565b6001859682939686015181550195019301611070565b6110ec90848652888620601f850160051c8101918a861061087a57601f0160051c0190613069565b87610f24565b634e487b7160e01b84526041600452602484fd5b60405162461bcd60e51b815260048101869052602e60248201527f45524337323155524953746f726167653a2055524920736574206f66206e6f6e60448201526d32bc34b9ba32b73a103a37b5b2b760911b6064820152608490fd5b61116b33612a3f565b33865260078952604086208187528952866040872055868652600889526040862055610e6b565b6064866040519062461bcd60e51b825280600483015260248201527f4552433732313a206d696e7420746f20746865207a65726f20616464726573736044820152fd5b600f546040516323b872dd60e01b81523360048201526001600160a01b0391821660248201526044810192909252602090829060649082906000907f0000000000000000000000000000000000000000000000000000000000000000165af19081156112c757600091611285575b501561124f5783610db6565b60405162461bcd60e51b815260206004820152600e60248201526d14185e5b595b9d0819985a5b195960921b6044820152606490fd5b6020813d6020116112bf575b8161129e60209383612720565b810103126112bb57519081151582036112b8575084611243565b80fd5b5080fd5b3d9150611291565b6040513d6000823e3d90fd5b60405162461bcd60e51b815260206004820152601260248201527113585e081cdd5c1c1b1e481c995858da195960721b6044820152606490fd5b905060058201541085610da6565b60405162461bcd60e51b815260206004820152601960248201527f416c7265616479206d696e7465642074686973206261646765000000000000006044820152606490fd5b60405162461bcd60e51b81526020600482015260136024820152724261646765207479706520696e61637469766560681b6044820152606490fd5b3461023d57602036600319011261023d5760206113be6113b9612601565b612a3f565b604051908152f35b3461023d57600036600319011261023d576020600e54604051908152f35b3461023d57606036600319011261023d576113fd612601565b602435906044356001600160401b03811161023d57611420903690600401612683565b3360009081527ff70e363b3d7895af770c4a138460777d52eebd3cb9962ccc6b58721f6127bbc8602052604090205490919060ff161561186857611466916105eb612f66565b6001600d54019081600d55602093604051916114828684612720565b600083526001600160a01b038516801580159691949190611825576000868152600260205260409020546114c0906001600160a01b03161515610e0b565b6009549186600052600a895282604060002055600160401b83101561088457866109ea926114fb82610e4a87600161156c99016009556129b2565b6000996117f5575b600082815260026020526040902054611526906001600160a01b03161515610e0b565b878a5260038b526040808b2080546001019055828b5260028c528a2080546001600160a01b0319168917905581888b60008051602061343d8339815191528180a4613080565b6000848152600260205260409020546001600160a01b031615611799578385526006865260408520908051906001600160401b038211611785576115b083546126b0565b601f8111611757575b508790601f83116001146116f4576115e892918891836116e95750508160011b916000199060031b1c19161790565b90555b7ff8e1a15aba9398e019f0b49df1a4fde98ee17ae345cb5f6b5e2c27f5033e8ce785604051858152a160405161162081612705565b818152428682019081526040808301858152868852601189528188209351845591516001840155905160029290920180546001600160a01b0319166001600160a01b039390931692909217909155818552601086528420600501805460001981146116d55760010190558184526012855260408420818552855260408420600160ff19825416179055827f77a876d9d740d9b9463656513f72679ef9ffc0ecf22d7246246f17e554e50d3b6040519580a48152f35b634e487b7160e01b86526011600452602486fd5b01519050898061069f565b8388528888209190601f198416895b8b828210611741575050908460019594939210611728575b505050811b0190556115eb565b015160001960f88460031b161c1916905588808061171b565b6001859682939686015181550195019301611703565b61177f90848952898920601f850160051c8101918b861061087a57601f0160051c0190613069565b886115b9565b634e487b7160e01b87526041600452602487fd5b60405162461bcd60e51b815260048101879052602e60248201527f45524337323155524953746f726167653a2055524920736574206f66206e6f6e60448201526d32bc34b9ba32b73a103a37b5b2b760911b6064820152608490fd5b6117fe81612a3f565b888b5260078c5260408b20818c528c528260408c2055828b5260088c5260408b2055611503565b6064886040519062461bcd60e51b825280600483015260248201527f4552433732313a206d696e7420746f20746865207a65726f20616464726573736044820152fd5b61194461187433613204565b61192460116118a27f9f2df0fed2c77648de5860a4cc508cd0818c85b8b8a1ab4ceeef8d981c8956a6613344565b9260376040519485927f416363657373436f6e74726f6c3a206163636f756e742000000000000000000060208501526118e481518092602086880191016125b9565b83017001034b99036b4b9b9b4b733903937b6329607d1b838201526119138251809360206048850191016125b9565b01010301601f198101835282612720565b60405162461bcd60e51b81526020600482015291829160248301906125dc565b0390fd5b3461023d57602036600319011261023d576020611966600435612a19565b6040516001600160a01b039091168152f35b3461023d57600036600319011261023d57600f546040516001600160a01b039091168152602090f35b3461023d57600036600319011261023d57602060ff600c54166040519015158152f35b3461023d57604036600319011261023d57600435611a0d6119e3612674565b6119eb612e4c565b82600052601060205260066040600020019060ff801983541691151516179055565b7f9aabaf22b7bbbeb2f187b83abfbae5bc808d80c8ad63c4bde716537705a6be4a600080a2005b3461023d57602036600319011261023d57600435600954811015611a6c57611a5d6020916129b2565b90549060031b1c604051908152f35b60405162461bcd60e51b815260206004820152602c60248201527f455243373231456e756d657261626c653a20676c6f62616c20696e646578206f60448201526b7574206f6620626f756e647360a01b6064820152608490fd5b3461023d57602036600319011261023d57600435611ae381612a19565b6001600160a01b031633148015611ddc575b15611da657611b0381612a19565b6001600160a01b0381169081611d1557505060095481600052600a60205280604060002055600160401b8110156108845781610e4a826001611b4894016009556129b2565b6009546000198101908111611cff5781600052600a602052611b6f604060002054916129b2565b90549060031b1c611b8381610e4a846129b2565b600052600a60205260406000205580600052600a602052600060408120556009548015611ce95760001901611bb7816129b2565b8154906000199060031b1b19169055600955806000611bd582612a19565b8282526004602052604082206001600160601b0360a01b815416905560018060a01b0316808252600360205260408220821981540190558282526002602052604082206001600160601b0360a01b815416905560008051602061343d8339815191528280a4806000526006602052611c516040600020546126b0565b611c7f575b33907f1824d608a68248122c0b0cd4f372032871b3602c17875d13b2e53f4326972431600080a3005b8060005260066020526040600020611c9781546126b0565b9081611ca5575b5050611c56565b81601f60009311600114611cbd5750555b8180611c9e565b81835260208320611cd991601f0160051c810190600101613069565b8082528160208120915555611cb6565b634e487b7160e01b600052603160045260246000fd5b634e487b7160e01b600052601160045260246000fd5b611d1e90612a3f565b600019810191908211611cff57826000526008602052604060002054828103611d73575b5082600052600860205260006040812055600052600760205260406000209060005260205260006040812055611b48565b60008281526007602090815260408083208684528252808320548484528184208190558352600890915290205583611d42565b60405162461bcd60e51b815260206004820152600e60248201526d139bdd08185d5d1a1bdc9a5e995960921b6044820152606490fd5b503360009081527fdf7de25b7f1fd6d0b5205f0e18f1f35bd7b8d84cce336588d184533ce43a6f76602052604090205460ff16611af5565b3461023d5761053a6109ea611e283661262d565b9060405192611e38602085612720565b600084526109da6109d58433612ab6565b3461023d57600036600319011261023d57611e62612dd9565b600c5460ff811615611ea15760ff1916600c557f5db9ee0a495bf2e6ff9c91a7834c1ba4fdd244a5e8aa4e537bd38aeae4b073aa6020604051338152a1005b60405162461bcd60e51b815260206004820152601460248201527314185d5cd8589b194e881b9bdd081c185d5cd95960621b6044820152606490fd5b3461023d57604036600319011261023d57611ef6612617565b336001600160a01b03821603611f125761053a90600435612ee0565b60405162461bcd60e51b815260206004820152602f60248201527f416363657373436f6e74726f6c3a2063616e206f6e6c792072656e6f756e636560448201526e103937b632b9903337b91039b2b63360891b6064820152608490fd5b3461023d57604036600319011261023d5760206113be611f8d612601565b60243590612924565b3461023d57604036600319011261023d57600435611fb2612617565b90611fce61053082600052600b60205260016040600020015490565b80600052600b602052604060002060018060a01b03831660005260205260ff6040600020541615611ffb57005b6000818152600b602090815260408083206001600160a01b0395909516808452949091528120805460ff19166001179055339291907f2f8788117e7eff1d82e926ec794901d17c78024a50270940304540a733656f0d9080a4005b3461023d57600036600319011261023d57600e54612073816128d7565b906120816040519283612720565b808252601f19612090826128d7565b0160005b8181106121fd57505060005b81811061216957826040518091602082016020835281518091526040830190602060408260051b8601019301916000905b8282106120e057505050500390f35b919360019193955060208091603f1989820301855287519060c080612121612111855160e0865260e08601906125dc565b86860151858203888701526125dc565b9361213460408201516040860190612667565b606081015160608501526080810151608085015260a081015160a08501520151151591015296019201920185949391926120d1565b806001916000526010602052604060002060ff60066040519261218b846126ea565b61219481612741565b84526121a1868201612741565b60208501526121b98360028301541660408601612918565b6003810154606085015260048101546080850152600581015460a0850152015416151560c08201526121eb82866128ee565b526121f681856128ee565b50016120a0565b60209060405161220c816126ea565b60608152606083820152600060408201526000606082015260006080820152600060a0820152600060c082015282828701015201612094565b3461023d57602036600319011261023d5760206113be600435600052600b60205260016040600020015490565b3461023d5761053a6122833661262d565b916122916109d58433612ab6565b612b89565b3461023d57600036600319011261023d576020600954604051908152f35b3461023d57604036600319011261023d576122cd612601565b602435906001600160a01b036122e283612a19565b6001600160a01b0390921691168181146123ee578033149081156123c9575b501561235e57600082815260046020526040902080546001600160a01b031916821790556001600160a01b0361233683612a19565b167f8c5be1e5ebec7d5bd14f71427d1e84f3dd0314c0f7b2291e5b200ac8c7c3b925600080a4005b60405162461bcd60e51b815260206004820152603d60248201527f4552433732313a20617070726f76652063616c6c6572206973206e6f7420746f60448201527f6b656e206f776e6572206f7220617070726f76656420666f7220616c6c0000006064820152608490fd5b600090815260056020908152604080832033845290915290205460ff16905083612301565b60405162461bcd60e51b815260206004820152602160248201527f4552433732313a20617070726f76616c20746f2063757272656e74206f776e656044820152603960f91b6064820152608490fd5b3461023d57602036600319011261023d576020611966600435612837565b3461023d57600036600319011261023d576040516000805461247c816126b0565b8084529060018116908115610c5357506001146124a3576109668361095281850382612720565b60008080527f290decd9548b62a8d60345a988386fc84ba6bc95484008f6362f93160ef3e563939250905b8082106124e657509091508101602001610952610be4565b9192600181602092548385880101520191019092916124ce565b3461023d57602036600319011261023d576004359063ffffffff60e01b821680920361023d57602091637965db0b60e01b8114908115612542575b5015158152f35b63780e9d6360e01b81149150811561255c575b508361253b565b632483248360e11b811491508115612576575b5083612555565b6380ac58cd60e01b8114915081156125a8575b8115612597575b508361256f565b6301ffc9a760e01b14905083612590565b635b5e139f60e01b81149150612589565b60005b8381106125cc5750506000910152565b81810151838201526020016125bc565b906020916125f5815180928185528580860191016125b9565b601f01601f1916010190565b600435906001600160a01b038216820361023d57565b602435906001600160a01b038216820361023d57565b606090600319011261023d576004356001600160a01b038116810361023d57906024356001600160a01b038116810361023d579060443590565b9060048210156107bf5752565b60243590811515820361023d57565b9181601f8401121561023d578235916001600160401b03831161023d576020838186019501011161023d57565b90600182811c921680156126e0575b60208310146126ca57565b634e487b7160e01b600052602260045260246000fd5b91607f16916126bf565b60e081019081106001600160401b0382111761088457604052565b606081019081106001600160401b0382111761088457604052565b90601f801991011681019081106001600160401b0382111761088457604052565b9060405191826000825492612755846126b0565b80845293600181169081156127c3575060011461277c575b5061277a92500383612720565b565b90506000929192526020600020906000915b8183106127a757505090602061277a928201013861276d565b602091935080600191548385890101520191019091849261278e565b90506020925061277a94915060ff191682840152151560051b8201013861276d565b6001600160401b03811161088457601f01601f191660200190565b92919261280c826127e5565b9161281a6040519384612720565b82948184528183011161023d578281602093846000960137010152565b60008181526002602052604090205461285a906001600160a01b031615156129cd565b6000908152600460205260409020546001600160a01b031690565b1561287c57565b60405162461bcd60e51b815260206004820152602d60248201527f4552433732313a2063616c6c6572206973206e6f7420746f6b656e206f776e6560448201526c1c881bdc88185c1c1c9bdd9959609a1b6064820152608490fd5b6001600160401b0381116108845760051b60200190565b80518210156129025760209160051b010190565b634e487b7160e01b600052603260045260246000fd5b60048210156107bf5752565b61292d81612a3f565b8210156129595760018060a01b0316600052600760205260406000209060005260205260406000205490565b60405162461bcd60e51b815260206004820152602b60248201527f455243373231456e756d657261626c653a206f776e657220696e646578206f7560448201526a74206f6620626f756e647360a81b6064820152608490fd5b60095481101561290257600960005260206000200190600090565b156129d457565b60405162461bcd60e51b815260206004820152601860248201527f4552433732313a20696e76616c696420746f6b656e20494400000000000000006044820152606490fd5b6000908152600260205260409020546001600160a01b0316612a3c8115156129cd565b90565b6001600160a01b03168015612a5f57600052600360205260406000205490565b60405162461bcd60e51b815260206004820152602960248201527f4552433732313a2061646472657373207a65726f206973206e6f7420612076616044820152683634b21037bbb732b960b91b6064820152608490fd5b906001600160a01b03612ac882612a19565b6001600160a01b0390931692168281149291908315612b08575b508215612aee57505090565b9091506001600160a01b0390612b0390612837565b161490565b909250600052600560205260406000208160005260205260ff604060002054169138612ae2565b15612b3657565b60405162461bcd60e51b815260206004820152602560248201527f4552433732313a207472616e736665722066726f6d20696e636f72726563742060448201526437bbb732b960d91b6064820152608490fd5b90612b9383612a19565b6001600160a01b038381169291612bac91168314612b2f565b6001600160a01b038116928315612d885782612cc757506009549084600052600a60205281604060002055600160401b82101561088457612c0685610e4a84600160008051602061343d83398151915296016009556129b2565b600090838503612c93575b50612c2e836001600160a01b03612c2788612a19565b1614612b2f565b8481526004602052604081206001600160601b0360a01b8154169055828152600360205260408120600019815401905583815260036020526040812060018154019055848152600260205260408120846001600160601b0360a01b82541617905580a4565b612c9c90612a3f565b8482526007602052604082208183526020528560408320558582526008602052604082205538612c11565b838303612ce5575b5060008051602061343d83398151915290612c06565b612cee90612a3f565b600019810191908211611cff5760008051602061343d83398151915291856000526008602052604060002054818103612d55575b50856000526008602052600060408120558360005260076020526040600020906000526020526000604081205590612ccf565b60008581526007602090815260408083208584528252808320548484528184208190558352600890915290205538612d22565b60405162461bcd60e51b8152602060048201526024808201527f4552433732313a207472616e7366657220746f20746865207a65726f206164646044820152637265737360e01b6064820152608490fd5b3360009081527f7aabb41b9887dc0093c744cd74ad704cf0e605a10880518010fc739828f23c45602052604090205460ff1615612e1257565b611944612e1e33613204565b61192460116118a27f65d7a28e3265b37a6474929f336521b332c1681b933f6cb9f3376673440d862a613344565b3360009081527fdf7de25b7f1fd6d0b5205f0e18f1f35bd7b8d84cce336588d184533ce43a6f76602052604090205460ff1615612e8557565b611944612e9133613204565b61192460116118a26000613344565b6000818152600b6020908152604080832033845290915290205460ff1615612ec55750565b6119449061192460116118a2612eda33613204565b93613344565b80600052600b602052604060002060018060a01b03831660005260205260ff60406000205416612f0e575050565b6000818152600b602090815260408083206001600160a01b0395909516808452949091528120805460ff19169055339291907ff6391f5c32d9c69d2a47ea670b442974b53935d1edc7fd64eb21e047a839171b9080a4565b60ff600c5416612f7257565b60405162461bcd60e51b815260206004820152601060248201526f14185d5cd8589b194e881c185d5cd95960821b6044820152606490fd5b60809060208152603260208201527f4552433732313a207472616e7366657220746f206e6f6e20455243373231526560408201527131b2b4bb32b91034b6b83632b6b2b73a32b960711b60608201520190565b1561300457565b60405162461bcd60e51b81528061194460048201612faa565b600081815260026020526040902054613040906001600160a01b031615156129cd565b60005260066020526130556040600020612741565b6000604051613065602082612720565b5290565b818110613074575050565b60008155600101613069565b91823b15613192576130c6926020926000604051809681958294630a85bd0160e11b845233600485015284602485015260448401526080606484015260848301906125dc565b03926001600160a01b03165af1809160009161314f575b5090613139573d15613132573d6130f3816127e5565b906131016040519283612720565b81523d6000602083013e5b8051908161312d5760405162461bcd60e51b81528061194460048201612faa565b602001fd5b606061310c565b6001600160e01b031916630a85bd0160e11b1490565b6020813d60201161318a575b8161316860209383612720565b810103126112bb5751906001600160e01b0319821682036112b85750386130dd565b3d915061315b565b505050600190565b919290803b156131ea576130c693600060209460405196879586948593630a85bd0160e11b855233600486015260018060a01b0316602485015260448401526080606484015260848301906125dc565b50505050600190565b908151811015612902570160200190565b600090613211602a6127e5565b9161321f6040519384612720565b602a835261322d602a6127e5565b6020840190601f1901368237835115613330576030905382516001101561331c576078602184015350602960005b600182116132b057505061326c5790565b606460405162461bcd60e51b815260206004820152602060248201527f537472696e67733a20686578206c656e67746820696e73756666696369656e746044820152fd5b9091600f81166010811015613308576f181899199a1a9b1b9c1cb0b131b232b360811b901a6132df84866131f3565b5360041c9180156132f457600019019061325b565b634e487b7160e01b82526011600452602482fd5b634e487b7160e01b83526032600452602483fd5b634e487b7160e01b81526032600452602490fd5b634e487b7160e01b82526032600452602482fd5b60009061335160426127e5565b9161335f6040519384612720565b6042835261336d60426127e5565b6020840190601f1901368237835115613330576030905382516001101561331c576078602184015350604160005b600182116133ac57505061326c5790565b9091600f81166010811015613308576f181899199a1a9b1b9c1cb0b131b232b360811b901a6133db84866131f3565b5360041c9180156132f457600019019061339b565b156133f757565b60405162461bcd60e51b815260206004820152601c60248201527f4552433732313a20746f6b656e20616c7265616479206d696e746564000000006044820152606490fdfeddf252ad1be2c89b69c2b068fc378daa952ba7f163c4a11628f55a4df523b3efa2646970667358221220425c97a435990b991e2d04f7d456d44bbda81b335acca9cf0ee94c7ea842cefd64736f6c634300081c00332f8788117e7eff1d82e926ec794901d17c78024a50270940304540a733656f0ddf7de25b7f1fd6d0b5205f0e18f1f35bd7b8d84cce336588d184533ce43a6f762fdae2103c77b58466d069ed2d687691b79d2a5b61554edd2291d8f4a9581890f70e363b3d7895af770c4a138460777d52eebd3cb9962ccc6b58721f6127bbc8",
  "linkReferences": {},
  "deployedLinkReferences": {}
}