{
  "_format": "hh-sol-artifact-1",
  "contractName": "IIITPStaking",
  "sourceName": "contracts/IIITPStaking.sol",
  "abi": [
    {
      "inputs": [
        {
          "internalType": "address",
          "name": "tokenAddress",
          "type": "address"
        }
      ],
      "stateMutability": "nonpayable",
      "type": "constructor"
    },
    {
      "anonymous": false,
      "inputs": [
        {
          "indexed": false,
          "internalType": "address",
          "name": "account",
          "type": "address"
        }
      ],
      "name": "Paused",
      "type": "event"
    },
    {
      "anonymous": false,
      "inputs": [
        {
          "indexed": true,
          "internalType": "address",
          "name": "user",
          "type": "address"
        },
        {
          "indexed": false,
          "internalType": "uint256",
          "name": "positionId",
          "type": "uint256"
        },
        {
          "indexed": false,
          "internalType": "uint256",
          "name": "reward",
          "type": "uint256"
        }
      ],
      "name": "RewardClaimed",
      "type": "event"
    },
    {
      "anonymous": false,
      "inputs": [
        {
          "indexed": true,
          "internalType": "bytes32",
          "name": "role",
          "type": "bytes32"
        },
        {
          "indexed": true,
          "internalType": "bytes32",
          "name": "previousAdminRole",
          "type": "bytes32"
        },
        {
          "indexed": true,
          "internalType": "bytes32",
          "name": "newAdminRole",
          "type": "bytes32"
        }
      ],
      "name": "RoleAdminChanged",
      "type": "event"
    },
    {
      "anonymous": false,
      "inputs": [
        {
          "indexed": true,
          "internalType": "bytes32",
          "name": "role",
          "type": "bytes32"
        },
        {
          "indexed": true,
          "internalType": "address",
          "name": "account",
          "type": "address"
        },
        {
          "indexed": true,
          "internalType": "address",
          "name": "sender",
          "type": "address"
        }
      ],
      "name": "RoleGranted",
      "type": "event"
    },
    {
      "anonymous": false,
      "inputs": [
        {
          "indexed": true,
          "internalType": "bytes32",
          "name": "role",
          "type": "bytes32"
        },
        {
          "indexed": true,
          "internalType": "address",
          "name": "account",
          "type": "address"
        },
        {
          "indexed": true,
          "internalType": "address",
          "name": "sender",
          "type": "address"
        }
      ],
      "name": "RoleRevoked",
      "type": "event"
    },
    {
      "anonymous": false,
      "inputs": [
        {
          "indexed": true,
          "internalType": "address",
          "name": "user",
          "type": "address"
        },
        {
          "indexed": false,
          "internalType": "uint256",
          "name": "positionId",
          "type": "uint256"
        },
        {
          "indexed": false,
          "internalType": "uint256",
          "name": "amount",
          "type": "uint256"
        },
        {
          "indexed": false,
          "internalType": "enum IIITPStaking.Tier",
          "name": "tier",
          "type": "uint8"
        }
      ],
      "name": "Staked",
      "type": "event"
    },
    {
      "anonymous": false,
      "inputs": [
        {
          "indexed": true,
          "internalType": "address",
          "name": "user",
          "type": "address"
        }
      ],
      "name": "TeacherStatusGranted",
      "type": "event"
    },
    {
      "anonymous": false,
      "inputs": [
        {
          "indexed": true,
          "internalType": "address",
          "name": "user",
          "type": "address"
        }
      ],
      "name": "TeacherStatusRevoked",
      "type": "event"
    },
    {
      "anonymous": false,
      "inputs": [
        {
          "indexed": false,
          "internalType": "uint256",
          "name": "newThreshold",
          "type": "uint256"
        }
      ],
      "name": "TeacherThresholdUpdated",
      "type": "event"
    },
    {
      "anonymous": false,
      "inputs": [
        {
          "indexed": false,
          "internalType": "address",
          "name": "account",
          "type": "address"
        }
      ],
      "name": "Unpaused",
      "type": "event"
    },
    {
      "anonymous": false,
      "inputs": [
        {
          "indexed": true,
          "internalType": "address",
          "name": "user",
          "type": "address"
        },
        {
          "indexed": false,
          "internalType": "uint256",
          "name": "positionId",
          "type": "uint256"
        },
        {
          "indexed": false,
          "internalType": "uint256",
          "name": "amount",
          "type": "uint256"
        },
        {
          "indexed": false,
          "internalType": "uint256",
          "name": "reward",
          "type": "uint256"
        },
        {
          "indexed": false,
          "internalType": "uint256",
          "name": "penalty",
          "type": "uint256"
        }
      ],
      "name": "Unstaked",
      "type": "event"
    },
    {
      "inputs": [],
      "name": "DEFAULT_ADMIN_ROLE",
      "outputs": [
        {
          "internalType": "bytes32",
          "name": "",
          "type": "bytes32"
        }
      ],
      "stateMutability": "view",
      "type": "function"
    },
    {
      "inputs": [],
      "name": "MANAGER_ROLE",
      "outputs": [
        {
          "internalType": "bytes32",
          "name": "",
          "type": "bytes32"
        }
      ],
      "stateMutability": "view",
      "type": "function"
    },
    {
      "inputs": [
        {
          "internalType": "uint256",
          "name": "positionId",
          "type": "uint256"
        }
      ],
      "name": "claimReward",
      "outputs": [],
      "stateMutability": "nonpayable",
      "type": "function"
    },
    {
      "inputs": [
        {
          "internalType": "address",
          "name": "user",
          "type": "address"
        }
      ],
      "name": "getPositionCount",
      "outputs": [
        {
          "internalType": "uint256",
          "name": "",
          "type": "uint256"
        }
      ],
      "stateMutability": "view",
      "type": "function"
    },
    {
      "inputs": [
        {
          "internalType": "address",
          "name": "user",
          "type": "address"
        }
      ],
      "name": "getPositions",
      "outputs": [
        {
          "components": [
            {
              "internalType": "uint256",
              "name": "amount",
              "type": "uint256"
            },
            {
              "internalType": "uint256",
              "name": "stakedAt",
              "type": "uint256"
            },
            {
              "internalType": "uint256",
              "name": "unlockAt",
              "type": "uint256"
            },
            {
              "internalType": "enum IIITPStaking.Tier",
              "name": "tier",
              "type": "uint8"
            },
            {
              "internalType": "bool",
              "name": "active",
              "type": "bool"
            }
          ],
          "internalType": "struct IIITPStaking.StakePosition[]",
          "name": "",
          "type": "tuple[]"
        }
      ],
      "stateMutability": "view",
      "type": "function"
    },
    {
      "inputs": [
        {
          "internalType": "bytes32",
          "name": "role",
          "type": "bytes32"
        }
      ],
      "name": "getRoleAdmin",
      "outputs": [
        {
          "internalType": "bytes32",
          "name": "",
          "type": "bytes32"
        }
      ],
      "stateMutability": "view",
      "type": "function"
    },
    {
      "inputs": [
        {
          "internalType": "bytes32",
          "name": "role",
          "type": "bytes32"
        },
        {
          "internalType": "address",
          "name": "account",
          "type": "address"
        }
      ],
      "name": "grantRole",
      "outputs": [],
      "stateMutability": "nonpayable",
      "type": "function"
    },
    {
      "inputs": [
        {
          "internalType": "bytes32",
          "name": "role",
          "type": "bytes32"
        },
        {
          "internalType": "address",
          "name": "account",
          "type": "address"
        }
      ],
      "name": "hasRole",
      "outputs": [
        {
          "internalType": "bool",
          "name": "",
          "type": "bool"
        }
      ],
      "stateMutability": "view",
      "type": "function"
    },
    {
      "inputs": [
        {
          "internalType": "address",
          "name": "",
          "type": "address"
        }
      ],
      "name": "isTeacherByStaking",
      "outputs": [
        {
          "internalType": "bool",
          "name": "",
          "type": "bool"
        }
      ],
      "stateMutability": "view",
      "type": "function"
    },
    {
      "inputs": [],
      "name": "pause",
      "outputs": [],
      "stateMutability": "nonpayable",
      "type": "function"
    },
    {
      "inputs": [],
      "name": "paused",
      "outputs": [
        {
          "internalType": "bool",
          "name": "",
          "type": "bool"
        }
      ],
      "stateMutability": "view",
      "type": "function"
    },
    {
      "inputs": [
        {
          "internalType": "address",
          "name": "user",
          "type": "address"
        },
        {
          "internalType": "uint256",
          "name": "positionId",
          "type": "uint256"
        }
      ],
      "name": "pendingReward",
      "outputs": [
        {
          "internalType": "uint256",
          "name": "",
          "type": "uint256"
        }
      ],
      "stateMutability": "view",
      "type": "function"
    },
    {
      "inputs": [
        {
          "internalType": "address",
          "name": "",
          "type": "address"
        },
        {
          "internalType": "uint256",
          "name": "",
          "type": "uint256"
        }
      ],
      "name": "positions",
      "outputs": [
        {
          "internalType": "uint256",
          "name": "amount",
          "type": "uint256"
        },
        {
          "internalType": "uint256",
          "name": "stakedAt",
          "type": "uint256"
        },
        {
          "internalType": "uint256",
          "name": "unlockAt",
          "type": "uint256"
        },
        {
          "internalType": "enum IIITPStaking.Tier",
          "name": "tier",
          "type": "uint8"
        },
        {
          "internalType": "bool",
          "name": "active",
          "type": "bool"
        }
      ],
      "stateMutability": "view",
      "type": "function"
    },
    {
      "inputs": [
        {
          "internalType": "bytes32",
          "name": "role",
          "type": "bytes32"
        },
        {
          "internalType": "address",
          "name": "account",
          "type": "address"
        }
      ],
      "name": "renounceRole",
      "outputs": [],
      "stateMutability": "nonpayable",
      "type": "function"
    },
    {
      "inputs": [
        {
          "internalType": "bytes32",
          "name": "role",
          "type": "bytes32"
        },
        {
          "internalType": "address",
          "name": "account",
          "type": "address"
        }
      ],
      "name": "revokeRole",
      "outputs": [],
      "stateMutability": "nonpayable",
      "type": "function"
    },
    {
      "inputs": [
        {
          "internalType": "uint256",
          "name": "threshold",
          "type": "uint256"
        }
      ],
      "name": "setTeacherThreshold",
      "outputs": [],
      "stateMutability": "nonpayable",
      "type": "function"
    },
    {
      "inputs": [
        {
          "internalType": "enum IIITPStaking.Tier",
          "name": "tier",
          "type": "uint8"
        },
        {
          "internalType": "uint256",
          "name": "apyBps",
          "type": "uint256"
        }
      ],
      "name": "setTierAPY",
      "outputs": [],
      "stateMutability": "nonpayable",
      "type": "function"
    },
    {
      "inputs": [
        {
          "internalType": "uint256",
          "name": "amount",
          "type": "uint256"
        },
        {
          "internalType": "enum IIITPStaking.Tier",
          "name": "tier",
          "type": "uint8"
        }
      ],
      "name": "stake",
      "outputs": [],
      "stateMutability": "nonpayable",
      "type": "function"
    },
    {
      "inputs": [
        {
          "internalType": "bytes4",
          "name": "interfaceId",
          "type": "bytes4"
        }
      ],
      "name": "supportsInterface",
      "outputs": [
        {
          "internalType": "bool",
          "name": "",
          "type": "bool"
        }
      ],
      "stateMutability": "view",
      "type": "function"
    },
    {
      "inputs": [],
      "name": "teacherThreshold",
      "outputs": [
        {
          "internalType": "uint256",
          "name": "",
          "type": "uint256"
        }
      ],
      "stateMutability": "view",
      "type": "function"
    },
    {
      "inputs": [
        {
          "internalType": "enum IIITPStaking.Tier",
          "name": "",
          "type": "uint8"
        }
      ],
      "name": "tiers",
      "outputs": [
        {
          "internalType": "uint256",
          "name": "lockDuration",
          "type": "uint256"
        },
        {
          "internalType": "uint256",
          "name": "apyBps",
          "type": "uint256"
        }
      ],
      "stateMutability": "view",
      "type": "function"
    },
    {
      "inputs": [],
      "name": "token",
      "outputs": [
        {
          "internalType": "contract IIITPToken",
          "name": "",
          "type": "address"
        }
      ],
      "stateMutability": "view",
      "type": "function"
    },
    {
      "inputs": [],
      "name": "totalStaked",
      "outputs": [
        {
          "internalType": "uint256",
          "name": "",
          "type": "uint256"
        }
      ],
      "stateMutability": "view",
      "type": "function"
    },
    {
      "inputs": [
        {
          "internalType": "address",
          "name": "user",
          "type": "address"
        }
      ],
      "name": "totalStakedByUser",
      "outputs": [
        {
          "internalType": "uint256",
          "name": "total",
          "type": "uint256"
        }
      ],
      "stateMutability": "view",
      "type": "function"
    },
    {
      "inputs": [],
      "name": "unpause",
      "outputs": [],
      "stateMutability": "nonpayable",
      "type": "function"
    },
    {
      "inputs": [
        {
          "internalType": "uint256",
          "name": "positionId",
          "type": "uint256"
        }
      ],
      "name": "unstake",
      "outputs": [],
      "stateMutability": "nonpayable",
      "type": "function"
    }
  ],
  "bytecode": "0x60a06040523461031c57604051601f611de338819003918201601f19168301916001600160401b038311848410176103215780849260209460405283398101031261031c57516001600160a01b0381169081900361031c57600160005560ff1960015416600155683635c9adc5dea0000060045580156102d757608052336000908152600080516020611dc3833981519152602052604090205460ff1615610297575b336000908152600080516020611da3833981519152602052604090205460ff1615610235575b6100d0610337565b60008082526101f46020808401918252918052600390915290517f3617319a054d772f909f7c479a2cebe5066e836a939412e32403c99029b92eff55517f3617319a054d772f909f7c479a2cebe5066e836a939412e32403c99029b92f0055610137610337565b62278d0081526104b0602080830191825260016000526003905290517fa15bc60c955c405d20d9149c709e2460f1c2d9a497496a7f46004d1772c3054c55517fa15bc60c955c405d20d9149c709e2460f1c2d9a497496a7f46004d1772c3054d556101a0610337565b6276a70081526109c4602080830191825260026000526003905290517fc3a24b0501bd2c13a7e57f2db4369ec4c223447539fc0724a9d55ac4a06ebd4d55517fc3a24b0501bd2c13a7e57f2db4369ec4c223447539fc0724a9d55ac4a06ebd4e55604051611a2c908161035782396080518181816101540152818161040801528181610b2501528181610cc90152610e160152f35b336000818152600080516020611da383398151915260205260408120805460ff1916600117905581907f241ecf16d79d0f8dbfb92cbc07fe17840425976cf0667f022fe9877caa831b0890600080516020611d838339815191529080a46100c8565b336000818152600080516020611dc383398151915260205260408120805460ff191660011790558190600080516020611d838339815191528180a46100a2565b60405162461bcd60e51b815260206004820152601360248201527f5374616b696e673a207a65726f20746f6b656e000000000000000000000000006044820152606490fd5b600080fd5b634e487b7160e01b600052604160045260246000fd5b60408051919082016001600160401b038111838210176103215760405256fe608080604052600436101561001357600080fd5b600090813560e01c90816301ffc9a7146110ec575080630234b445146110b357806304b6262d1461107a57806310087fb114610db6578063248a9ca314610d885780632e17de7814610a6b5780632f2ff15d146109a657806336568abe146109135780633eeb530e146107c25780633f4ba83a1461072d578063489aa0331461068e5780635c975abb1461066b578063817b1cd21461064d5780638456cb59146105f357806391d14854146105a757806396d7424514610589578063a217fddf1461056d578063ae169a501461038f578063c1be667714610304578063c45652b5146102b6578063c676cf2014610277578063d1d799741461023a578063d547741f146101f1578063ec87621c146101b6578063f430cf0d146101865763fc0c546a1461013f57600080fd5b346101835780600319360112610183576040517f00000000000000000000000000000000000000000000000000000000000000006001600160a01b03168152602090f35b80fd5b50346101835760403660031901126101835760206101ae6101a5611141565b602435906112dd565b604051908152f35b503461018357806003193601126101835760206040517f241ecf16d79d0f8dbfb92cbc07fe17840425976cf0667f022fe9877caa831b088152f35b50346101835760403660031901126101835761023760043561021161115c565b9061023261022d82600052600260205260016040600020015490565b6114a7565b611734565b80f35b503461018357602036600319011261018357600435906003821015610183576040610264836111c7565b6001815491015482519182526020820152f35b50346101835760203660031901126101835760209060ff906040906001600160a01b036102a2611141565b168152600784522054166040519015158152f35b5034610183576020366003190112610183577fa47d38daf1eadda8fe9420bea36ddf002af8d9c099a1295ed3a609a4f5de6af160206004356102f6611321565b80600455604051908152a180f35b50346101835760403660031901126101835761031e611141565b6001600160a01b03168152600560205260408120805460243592908310156101835760a061034c8484611195565b5060ff81549160018101549060036002820154910154916040519485526020850152604084015261038260608401838316611172565b60081c1615156080820152f35b5034610183576020366003190112610183576004356103ac6114eb565b6103b4611541565b33825260056020526103c98160408420611195565b5060ff60038201546103df828260081c16611288565b16600381101561055957610506576103f6816116f4565b9081156104cc574260019190910155827f00000000000000000000000000000000000000000000000000000000000000006001600160a01b0316803b156104c8576040516340c10f1960e01b8152336004820152602481018490529082908290604490829084905af180156104bd576104a4575b505060405191825260208201527ff01da32686223933d8a18a391060918c7f11a3648639edd87ae013e2e273174360403392a26001815580f35b816104ae91611212565b6104b957823861046a565b8280fd5b6040513d84823e3d90fd5b5080fd5b60405162461bcd60e51b815260206004820152601260248201527114dd185ada5b99ce881b9bc81c995dd85c9960721b6044820152606490fd5b60405162461bcd60e51b815260206004820152602560248201527f5374616b696e673a2075736520756e7374616b6520666f72206c6f636b656420604482015264746965727360d81b6064820152608490fd5b634e487b7160e01b84526021600452602484fd5b5034610183578060031936011261018357602090604051908152f35b50346101835780600319360112610183576020600454604051908152f35b50346101835760403660031901126101835760406105c361115c565b9160043581526002602052209060018060a01b0316600052602052602060ff604060002054166040519015158152f35b503461018357806003193601126101835761060c61144f565b610614611541565b600160ff19815416176001557f62e78cea01bee320cd4e420270b5ea74000d11b0c9f74754ebdbfc544b05a2586020604051338152a180f35b50346101835780600319360112610183576020600654604051908152f35b5034610183578060031936011261018357602060ff600154166040519015158152f35b5034610183576020366003190112610183576106a8611141565b81906001600160a01b0316815b8183526005602052604083205481101561072257818352600560205260ff60036106e28360408720611195565b50015460081c166106f6575b6001016106b5565b9261071a60019183855260056020526107128660408720611195565b50549061124c565b9390506106ee565b602084604051908152f35b503461018357806003193601126101835761074661144f565b60015460ff8116156107865760ff19166001557f5db9ee0a495bf2e6ff9c91a7834c1ba4fdd244a5e8aa4e537bd38aeae4b073aa6020604051338152a180f35b60405162461bcd60e51b815260206004820152601460248201527314185d5cd8589b194e881b9bdd081c185d5cd95960621b6044820152606490fd5b5034610183576020366003190112610183576001600160a01b036107e4611141565b168152600560205260408120805467ffffffffffffffff81116108ff576040519061081560208260051b0183611212565b80825260208201809385526020852085915b8383106108a757868587604051928392602084019060208552518091526040840192915b818110610859575050500390f35b91935091602060a0600192608087518051835284810151858401526040810151604084015261089060608201516060850190611172565b01511515608082015201940191019184939261084b565b600460206001926040516108ba816111e0565b8554815284860154838201526002860154604082015260ff60038701546108e68282166060850161126f565b60081c1615156080820152815201920192019190610827565b634e487b7160e01b83526041600452602483fd5b50346101835760403660031901126101835761092d61115c565b336001600160a01b038216036109495761023790600435611734565b60405162461bcd60e51b815260206004820152602f60248201527f416363657373436f6e74726f6c3a2063616e206f6e6c792072656e6f756e636560448201526e103937b632b9903337b91039b2b63360891b6064820152608490fd5b5034610183576040366003190112610183576004356109c361115c565b906109df61022d82600052600260205260016040600020015490565b80835260026020526040832060018060a01b03831660005260205260ff6040600020541615610a0c578280f35b8083526002602090815260408085206001600160a01b0394909416600081815294909252909220805460ff191660011790553391907f2f8788117e7eff1d82e926ec794901d17c78024a50270940304540a733656f0d8480a438808280f35b503461018357602036600319011261018357600435610a886114eb565b610a90611541565b3382526005602052610aa58160408420611195565b50600381018054610abb60ff8260081c16611288565b61ff0019168155610acf825460065461127b565b600655610adb826116f4565b84926002810154421080938194610d5d575b50610caa575b83610afe915461127b565b60405163a9059cbb60e01b8152336004820152602481018290529092906001600160a01b037f000000000000000000000000000000000000000000000000000000000000000016906020816044818b865af1908115610c9f578891610c70575b5015610c2b578690821580610c22575b610bcf575b5050610b7e33611585565b15610bc9575083905b6040519384526020840152604083015260608201527fdcfd2b4017d03f7e541021db793b2f9b31e4acdee005f789e52853c390e3e96260803392a26001815580f35b90610b87565b803b156104c8576040516340c10f1960e01b8152336004820152602481018590529082908290604490829084905af180156104bd5715610b735781610c1391611212565b610c1e578538610b73565b8580fd5b50831515610b6e565b60405162461bcd60e51b815260206004820152601860248201527f5374616b696e673a207472616e73666572206661696c656400000000000000006044820152606490fd5b610c92915060203d602011610c98575b610c8a8183611212565b810190611234565b38610b5e565b503d610c80565b6040513d8a823e3d90fd5b80935054600a810290808204600a1490151715610d49576064900492857f00000000000000000000000000000000000000000000000000000000000000006001600160a01b0316803b156104c8578190602460405180948193630852cd8d60e31b83528a60048401525af18015610d3e57610d26575b50610af3565b86610d36610afe93988793611212565b969150610d20565b6040513d89823e3d90fd5b634e487b7160e01b86526011600452602486fd5b60ff915054166003811015610d7457151538610aed565b634e487b7160e01b87526021600452602487fd5b50346101835760203660031901126101835760206101ae600435600052600260205260016040600020015490565b50346101835760403660031901126101835760043560243560038110156104b957610ddf6114eb565b610de7611541565b811561103e576040516323b872dd60e01b815233600482015230602482015260448101839052602081606481877f00000000000000000000000000000000000000000000000000000000000000006001600160a01b03165af1801561103357611016575b50610e55816111c7565b6040516040810181811067ffffffffffffffff8211176110025790610e8d92916040526020600183549384845201549101524261124c565b338452600560205260408420604051610ea5816111e0565b8481526020810192428452604082019081526060820193610ec6868661126f565b60808301936001855280549068010000000000000000821015610fee5790610ef391600182018155611195565b939093610fda575183555160018301555160028201559151600392830192811015610fc6578254915161ffff1990921660ff919091161790151560081b61ff0016179055600654610f4590839061124c565b600655610f5133611585565b33835260056020526040832054600019810192908311610fb25790610f859160405193845260208401526040830190611172565b7f11046f741396910185536955c79ec22a76d04229d188bc13962f8331b81008a960603392a26001815580f35b634e487b7160e01b84526011600452602484fd5b634e487b7160e01b86526021600452602486fd5b634e487b7160e01b89526004899052602489fd5b634e487b7160e01b8a52604160045260248afd5b634e487b7160e01b86526041600452602486fd5b61102e9060203d602011610c9857610c8a8183611212565b610e4b565b6040513d86823e3d90fd5b60405162461bcd60e51b815260206004820152601460248201527314dd185ada5b99ce881e995c9bc8185b5bdd5b9d60621b6044820152606490fd5b50346101835760403660031901126101835760043560038110156104c8576110a0611321565b60016110ae602435926111c7565b015580f35b5034610183576020366003190112610183576020906040906001600160a01b036110db611141565b168152600583522054604051908152f35b9050346104c85760203660031901126104c85760043563ffffffff60e01b81168091036104b95760209250637965db0b60e01b8114908115611130575b5015158152f35b6301ffc9a760e01b14905038611129565b600435906001600160a01b038216820361115757565b600080fd5b602435906001600160a01b038216820361115757565b90600382101561117f5752565b634e487b7160e01b600052602160045260246000fd5b80548210156111b15760005260206000209060021b0190600090565b634e487b7160e01b600052603260045260246000fd5b600381101561117f576000526003602052604060002090565b60a0810190811067ffffffffffffffff8211176111fc57604052565b634e487b7160e01b600052604160045260246000fd5b90601f8019910116810190811067ffffffffffffffff8211176111fc57604052565b90816020910312611157575180151581036111575790565b9190820180921161125957565b634e487b7160e01b600052601160045260246000fd5b600382101561117f5752565b9190820391821161125957565b1561128f57565b60405162461bcd60e51b81526020600482015260136024820152725374616b696e673a206e6f742061637469766560681b6044820152606490fd5b8181029291811591840414171561125957565b6001600160a01b031660009081526005602052604090206112fe9190611195565b5060ff600382015460081c161561131b57611318906116f4565b90565b50600090565b3360009081527f94996c563abb815835b318c981fa050298066bd55a6db8b3a8c1aff30a38e7ef602052604090205460ff161561135a57565b6114416044603761136a3361180a565b61141960116113987f241ecf16d79d0f8dbfb92cbc07fe17840425976cf0667f022fe9877caa831b0861194a565b60405194859160208301957f416363657373436f6e74726f6c3a206163636f756e742000000000000000000087526113d981518092602086880191016117ba565b83017001034b99036b4b9b9b4b733903937b6329607d1b838201526114088251809360206048850191016117ba565b01010301601f198101845283611212565b60405193849262461bcd60e51b845260206004850152518092816024860152858501906117ba565b601f01601f19168101030190fd5b3360009081527fac33ff75c19e70fe83507db0d683fd3465c996598dc972688b7ace676c89077b602052604090205460ff161561148857565b611441604460376114983361180a565b6114196011611398600061194a565b600081815260026020908152604080832033845290915290205460ff16156114cc5750565b604460376114419261141960116113986114e53361180a565b9361194a565b6002600054146114fc576002600055565b60405162461bcd60e51b815260206004820152601f60248201527f5265656e7472616e637947756172643a207265656e7472616e742063616c6c006044820152606490fd5b60ff6001541661154d57565b60405162461bcd60e51b815260206004820152601060248201526f14185d5cd8589b194e881c185d5cd95960821b6044820152606490fd5b60009060005b6001600160a01b0382166000818152600560205260409020548210156116005780600052600560205260ff60036115c6846040600020611195565b50015460081c166115db575b5060010161158b565b600191936115f9916000526005602052610712856040600020611195565b92906115d2565b505090600454118015806116d1575b1561165d57506001600160a01b03166000818152600760205260408120805460ff191660011790557f1c4608d03256bc811a5f437a7cb2eba451dc09d63f9d225330fdfc855a19cc2a9080a2565b806116af575b61166a5750565b6001600160a01b03166000818152600760205260408120805460ff191690557f8ea0e1e19c842511c5ea001e2400b65f8040b00f73fabfbf6372f4e05e69f8e99080a2565b506001600160a01b03811660009081526007602052604090205460ff16611663565b506001600160a01b03821660009081526007602052604090205460ff161561160f565b61173064496cebb8009161172b61170f60018301544261127b565b91600161172260ff6003840154166111c7565b015490546112ca565b6112ca565b0490565b806000526002602052604060002060018060a01b03831660005260205260ff60406000205416611762575050565b60008181526002602090815260408083206001600160a01b0395909516808452949091528120805460ff19169055339291907ff6391f5c32d9c69d2a47ea670b442974b53935d1edc7fd64eb21e047a839171b9080a4565b60005b8381106117cd5750506000910152565b81810151838201526020016117bd565b67ffffffffffffffff81116111fc57601f01601f191660200190565b9081518110156111b1570160200190565b600090611817602a6117dd565b916118256040519384611212565b602a8352611833602a6117dd565b6020840190601f19013682378351156119365760309053825160011015611922576078602184015350602960005b600182116118b65750506118725790565b606460405162461bcd60e51b815260206004820152602060248201527f537472696e67733a20686578206c656e67746820696e73756666696369656e746044820152fd5b9091600f8116601081101561190e576f181899199a1a9b1b9c1cb0b131b232b360811b901a6118e584866117f9565b5360041c9180156118fa576000190190611861565b634e487b7160e01b82526011600452602482fd5b634e487b7160e01b83526032600452602483fd5b634e487b7160e01b81526032600452602490fd5b634e487b7160e01b82526032600452602482fd5b60009061195760426117dd565b916119656040519384611212565b6042835261197360426117dd565b6020840190601f19013682378351156119365760309053825160011015611922576078602184015350604160005b600182116119b25750506118725790565b9091600f8116601081101561190e576f181899199a1a9b1b9c1cb0b131b232b360811b901a6119e184866117f9565b5360041c9180156118fa5760001901906119a156fea2646970667358221220ed831d50cc7d2728c8a80d046d68d2c4056c738c2c41549862d504fe0e1101f464736f6c634300081c00332f8788117e7eff1d82e926ec794901d17c78024a50270940304540a733656f0d94996c563abb815835b318c981fa050298066bd55a6db8b3a8c1aff30a38e7efac33ff75c19e70fe83507db0d683fd3465c996598dc972688b7ace676c89077b",
  "linkReferences": {},
  "deployedLinkReferences": {}
}