{
  "_format": "hh-sol-artifact-1",
  "contractName": "IIITPDice",
  "sourceName": "contracts/IIITPDice.sol",
  "abi": [
    {
      "inputs": [
        {
          "internalType": "address",
          "name": "tokenAddress",
          "type": "address"
        }
      ],
      "stateMutability": "nonpayable",
      "type": "constructor"
    },
    {
      "anonymous": false,
      "inputs": [
        {
          "indexed": false,
          "internalType": "uint256",
          "name": "minBet",
          "type": "uint256"
        },
        {
          "indexed": false,
          "internalType": "uint256",
          "name": "maxBetBps",
          "type": "uint256"
        },
        {
          "indexed": false,
          "internalType": "uint256",
          "name": "houseEdgeBps",
          "type": "uint256"
        }
      ],
      "name": "ConfigUpdated",
      "type": "event"
    },
    {
      "anonymous": false,
      "inputs": [
        {
          "indexed": true,
          "internalType": "address",
          "name": "by",
          "type": "address"
        },
        {
          "indexed": false,
          "internalType": "uint256",
          "name": "amount",
          "type": "uint256"
        }
      ],
      "name": "HouseFunded",
      "type": "event"
    },
    {
      "anonymous": false,
      "inputs": [
        {
          "indexed": true,
          "internalType": "address",
          "name": "to",
          "type": "address"
        },
        {
          "indexed": false,
          "internalType": "uint256",
          "name": "amount",
          "type": "uint256"
        }
      ],
      "name": "HouseWithdrawn",
      "type": "event"
    },
    {
      "anonymous": false,
      "inputs": [
        {
          "indexed": false,
          "internalType": "address",
          "name": "account",
          "type": "address"
        }
      ],
      "name": "Paused",
      "type": "event"
    },
    {
      "anonymous": false,
      "inputs": [
        {
          "indexed": true,
          "internalType": "bytes32",
          "name": "role",
          "type": "bytes32"
        },
        {
          "indexed": true,
          "internalType": "bytes32",
          "name": "previousAdminRole",
          "type": "bytes32"
        },
        {
          "indexed": true,
          "internalType": "bytes32",
          "name": "newAdminRole",
          "type": "bytes32"
        }
      ],
      "name": "RoleAdminChanged",
      "type": "event"
    },
    {
      "anonymous": false,
      "inputs": [
        {
          "indexed": true,
          "internalType": "bytes32",
          "name": "role",
          "type": "bytes32"
        },
        {
          "indexed": true,
          "internalType": "address",
          "name": "account",
          "type": "address"
        },
        {
          "indexed": true,
          "internalType": "address",
          "name": "sender",
          "type": "address"
        }
      ],
      "name": "RoleGranted",
      "type": "event"
    },
    {
      "anonymous": false,
      "inputs": [
        {
          "indexed": true,
          "internalType": "bytes32",
          "name": "role",
          "type": "bytes32"
        },
        {
          "indexed": true,
          "internalType": "address",
          "name": "account",
          "type": "address"
        },
        {
          "indexed": true,
          "internalType": "address",
          "name": "sender",
          "type": "address"
        }
      ],
      "name": "RoleRevoked",
      "type": "event"
    },
    {
      "anonymous": false,
      "inputs": [
        {
          "indexed": true,
          "internalType": "address",
          "name": "player",
          "type": "address"
        },
        {
          "indexed": false,
          "internalType": "uint256",
          "name": "roll",
          "type": "uint256"
        },
        {
          "indexed": false,
          "internalType": "enum IIITPDice.BetType",
          "name": "betType",
          "type": "uint8"
        },
        {
          "indexed": false,
          "internalType": "uint8",
          "name": "target",
          "type": "uint8"
        },
        {
          "indexed": false,
          "internalType": "uint256",
          "name": "wager",
          "type": "uint256"
        },
        {
          "indexed": false,
          "internalType": "uint256",
          "name": "payout",
          "type": "uint256"
        },
        {
          "indexed": false,
          "internalType": "bool",
          "name": "won",
          "type": "bool"
        }
      ],
      "name": "Rolled",
      "type": "event"
    },
    {
      "anonymous": false,
      "inputs": [
        {
          "indexed": false,
          "internalType": "address",
          "name": "account",
          "type": "address"
        }
      ],
      "name": "Unpaused",
      "type": "event"
    },
    {
      "inputs": [],
      "name": "DEFAULT_ADMIN_ROLE",
      "outputs": [
        {
          "internalType": "bytes32",
          "name": "",
          "type": "bytes32"
        }
      ],
      "stateMutability": "view",
      "type": "function"
    },
    {
      "inputs": [],
      "name": "MANAGER_ROLE",
      "outputs": [
        {
          "internalType": "bytes32",
          "name": "",
          "type": "bytes32"
        }
      ],
      "stateMutability": "view",
      "type": "function"
    },
    {
      "inputs": [
        {
          "internalType": "uint256",
          "name": "amount",
          "type": "uint256"
        }
      ],
      "name": "fundHouse",
      "outputs": [],
      "stateMutability": "nonpayable",
      "type": "function"
    },
    {
      "inputs": [
        {
          "internalType": "address",
          "name": "player",
          "type": "address"
        }
      ],
      "name": "getHistory",
      "outputs": [
        {
          "components": [
            {
              "internalType": "uint256",
              "name": "roll",
              "type": "uint256"
            },
            {
              "internalType": "uint256",
              "name": "wager",
              "type": "uint256"
            },
            {
              "internalType": "uint256",
              "name": "payout",
              "type": "uint256"
            },
            {
              "internalType": "enum IIITPDice.BetType",
              "name": "betType",
              "type": "uint8"
            },
            {
              "internalType": "uint8",
              "name": "target",
              "type": "uint8"
            },
            {
              "internalType": "bool",
              "name": "won",
              "type": "bool"
            },
            {
              "internalType": "uint256",
              "name": "timestamp",
              "type": "uint256"
            }
          ],
          "internalType": "struct IIITPDice.RollResult[]",
          "name": "",
          "type": "tuple[]"
        }
      ],
      "stateMutability": "view",
      "type": "function"
    },
    {
      "inputs": [
        {
          "internalType": "address",
          "name": "player",
          "type": "address"
        },
        {
          "internalType": "uint256",
          "name": "from",
          "type": "uint256"
        },
        {
          "internalType": "uint256",
          "name": "count",
          "type": "uint256"
        }
      ],
      "name": "getHistoryPaged",
      "outputs": [
        {
          "components": [
            {
              "internalType": "uint256",
              "name": "roll",
              "type": "uint256"
            },
            {
              "internalType": "uint256",
              "name": "wager",
              "type": "uint256"
            },
            {
              "internalType": "uint256",
              "name": "payout",
              "type": "uint256"
            },
            {
              "internalType": "enum IIITPDice.BetType",
              "name": "betType",
              "type": "uint8"
            },
            {
              "internalType": "uint8",
              "name": "target",
              "type": "uint8"
            },
            {
              "internalType": "bool",
              "name": "won",
              "type": "bool"
            },
            {
              "internalType": "uint256",
              "name": "timestamp",
              "type": "uint256"
            }
          ],
          "internalType": "struct IIITPDice.RollResult[]",
          "name": "",
          "type": "tuple[]"
        }
      ],
      "stateMutability": "view",
      "type": "function"
    },
    {
      "inputs": [
        {
          "internalType": "bytes32",
          "name": "role",
          "type": "bytes32"
        }
      ],
      "name": "getRoleAdmin",
      "outputs": [
        {
          "internalType": "bytes32",
          "name": "",
          "type": "bytes32"
        }
      ],
      "stateMutability": "view",
      "type": "function"
    },
    {
      "inputs": [],
      "name": "getStats",
      "outputs": [
        {
          "internalType": "uint256",
          "name": "rolls",
          "type": "uint256"
        },
        {
          "internalType": "uint256",
          "name": "wagered",
          "type": "uint256"
        },
        {
          "internalType": "uint256",
          "name": "paidOut",
          "type": "uint256"
        },
        {
          "internalType": "uint256",
          "name": "houseProfit",
          "type": "uint256"
        }
      ],
      "stateMutability": "view",
      "type": "function"
    },
    {
      "inputs": [
        {
          "internalType": "bytes32",
          "name": "role",
          "type": "bytes32"
        },
        {
          "internalType": "address",
          "name": "account",
          "type": "address"
        }
      ],
      "name": "grantRole",
      "outputs": [],
      "stateMutability": "nonpayable",
      "type": "function"
    },
    {
      "inputs": [
        {
          "internalType": "bytes32",
          "name": "role",
          "type": "bytes32"
        },
        {
          "internalType": "address",
          "name": "account",
          "type": "address"
        }
      ],
      "name": "hasRole",
      "outputs": [
        {
          "internalType": "bool",
          "name": "",
          "type": "bool"
        }
      ],
      "stateMutability": "view",
      "type": "function"
    },
    {
      "inputs": [],
      "name": "houseBalance",
      "outputs": [
        {
          "internalType": "uint256",
          "name": "",
          "type": "uint256"
        }
      ],
      "stateMutability": "view",
      "type": "function"
    },
    {
      "inputs": [],
      "name": "houseEdgeBps",
      "outputs": [
        {
          "internalType": "uint256",
          "name": "",
          "type": "uint256"
        }
      ],
      "stateMutability": "view",
      "type": "function"
    },
    {
      "inputs": [],
      "name": "maxBetAmount",
      "outputs": [
        {
          "internalType": "uint256",
          "name": "",
          "type": "uint256"
        }
      ],
      "stateMutability": "view",
      "type": "function"
    },
    {
      "inputs": [],
      "name": "maxBetBps",
      "outputs": [
        {
          "internalType": "uint256",
          "name": "",
          "type": "uint256"
        }
      ],
      "stateMutability": "view",
      "type": "function"
    },
    {
      "inputs": [],
      "name": "minBet",
      "outputs": [
        {
          "internalType": "uint256",
          "name": "",
          "type": "uint256"
        }
      ],
      "stateMutability": "view",
      "type": "function"
    },
    {
      "inputs": [
        {
          "internalType": "address",
          "name": "",
          "type": "address"
        }
      ],
      "name": "nonces",
      "outputs": [
        {
          "internalType": "uint256",
          "name": "",
          "type": "uint256"
        }
      ],
      "stateMutability": "view",
      "type": "function"
    },
    {
      "inputs": [],
      "name": "pause",
      "outputs": [],
      "stateMutability": "nonpayable",
      "type": "function"
    },
    {
      "inputs": [],
      "name": "paused",
      "outputs": [
        {
          "internalType": "bool",
          "name": "",
          "type": "bool"
        }
      ],
      "stateMutability": "view",
      "type": "function"
    },
    {
      "inputs": [
        {
          "internalType": "bytes32",
          "name": "role",
          "type": "bytes32"
        },
        {
          "internalType": "address",
          "name": "account",
          "type": "address"
        }
      ],
      "name": "renounceRole",
      "outputs": [],
      "stateMutability": "nonpayable",
      "type": "function"
    },
    {
      "inputs": [
        {
          "internalType": "bytes32",
          "name": "role",
          "type": "bytes32"
        },
        {
          "internalType": "address",
          "name": "account",
          "type": "address"
        }
      ],
      "name": "revokeRole",
      "outputs": [],
      "stateMutability": "nonpayable",
      "type": "function"
    },
    {
      "inputs": [
        {
          "internalType": "uint256",
          "name": "wager",
          "type": "uint256"
        },
        {
          "internalType": "enum IIITPDice.BetType",
          "name": "betType",
          "type": "uint8"
        },
        {
          "internalType": "uint8",
          "name": "target",
          "type": "uint8"
        }
      ],
      "name": "roll",
      "outputs": [
        {
          "internalType": "uint256",
          "name": "rollResult",
          "type": "uint256"
        }
      ],
      "stateMutability": "nonpayable",
      "type": "function"
    },
    {
      "inputs": [
        {
          "internalType": "address",
          "name": "",
          "type": "address"
        },
        {
          "internalType": "uint256",
          "name": "",
          "type": "uint256"
        }
      ],
      "name": "rollHistory",
      "outputs": [
        {
          "internalType": "uint256",
          "name": "roll",
          "type": "uint256"
        },
        {
          "internalType": "uint256",
          "name": "wager",
          "type": "uint256"
        },
        {
          "internalType": "uint256",
          "name": "payout",
          "type": "uint256"
        },
        {
          "internalType": "enum IIITPDice.BetType",
          "name": "betType",
          "type": "uint8"
        },
        {
          "internalType": "uint8",
          "name": "target",
          "type": "uint8"
        },
        {
          "internalType": "bool",
          "name": "won",
          "type": "bool"
        },
        {
          "internalType": "uint256",
          "name": "timestamp",
          "type": "uint256"
        }
      ],
      "stateMutability": "view",
      "type": "function"
    },
    {
      "inputs": [
        {
          "internalType": "uint256",
          "name": "_minBet",
          "type": "uint256"
        },
        {
          "internalType": "uint256",
          "name": "_maxBetBps",
          "type": "uint256"
        },
        {
          "internalType": "uint256",
          "name": "_houseEdgeBps",
          "type": "uint256"
        }
      ],
      "name": "setConfig",
      "outputs": [],
      "stateMutability": "nonpayable",
      "type": "function"
    },
    {
      "inputs": [
        {
          "internalType": "bytes4",
          "name": "interfaceId",
          "type": "bytes4"
        }
      ],
      "name": "supportsInterface",
      "outputs": [
        {
          "internalType": "bool",
          "name": "",
          "type": "bool"
        }
      ],
      "stateMutability": "view",
      "type": "function"
    },
    {
      "inputs": [],
      "name": "token",
      "outputs": [
        {
          "internalType": "contract I_IIITPToken",
          "name": "",
          "type": "address"
        }
      ],
      "stateMutability": "view",
      "type": "function"
    },
    {
      "inputs": [
        {
          "internalType": "address",
          "name": "",
          "type": "address"
        }
      ],
      "name": "totalLost",
      "outputs": [
        {
          "internalType": "uint256",
          "name": "",
          "type": "uint256"
        }
      ],
      "stateMutability": "view",
      "type": "function"
    },
    {
      "inputs": [],
      "name": "totalPaidOut",
      "outputs": [
        {
          "internalType": "uint256",
          "name": "",
          "type": "uint256"
        }
      ],
      "stateMutability": "view",
      "type": "function"
    },
    {
      "inputs": [],
      "name": "totalRolls",
      "outputs": [
        {
          "internalType": "uint256",
          "name": "",
          "type": "uint256"
        }
      ],
      "stateMutability": "view",
      "type": "function"
    },
    {
      "inputs": [],
      "name": "totalWagered",
      "outputs": [
        {
          "internalType": "uint256",
          "name": "",
          "type": "uint256"
        }
      ],
      "stateMutability": "view",
      "type": "function"
    },
    {
      "inputs": [
        {
          "internalType": "address",
          "name": "",
          "type": "address"
        }
      ],
      "name": "totalWon",
      "outputs": [
        {
          "internalType": "uint256",
          "name": "",
          "type": "uint256"
        }
      ],
      "stateMutability": "view",
      "type": "function"
    },
    {
      "inputs": [],
      "name": "unpause",
      "outputs": [],
      "stateMutability": "nonpayable",
      "type": "function"
    },
    {
      "inputs": [
        {
          "internalType": "uint256",
          "name": "amount",
          "type": "uint256"
        }
      ],
      "name": "withdrawHouse",
      "outputs": [],
      "stateMutability": "nonpayable",
      "type": "function"
    }
  ],
  "bytecode": "0x60a0346101a257601f611f9538819003918201601f19168301916001600160401b038311848410176101a7578084926020946040528339810103126101a257516001600160a01b038116908190036101a2576001805460ff19168155600255670de0b6b3a76400006003556103e86004556101f4600555608052336000908152600080516020611f75833981519152602052604090205460ff1615610162575b336000908152600080516020611f55833981519152602052604090205460ff1615610100575b604051611d7790816101be8239608051818181610189015281816102a5015281816104b9015281816106d801528181610eaf01526112490152f35b336000818152600080516020611f5583398151915260205260408120805460ff1916600117905581907f241ecf16d79d0f8dbfb92cbc07fe17840425976cf0667f022fe9877caa831b0890600080516020611f358339815191529080a46100c5565b336000818152600080516020611f7583398151915260205260408120805460ff191660011790558190600080516020611f358339815191528180a461009f565b600080fd5b634e487b7160e01b600052604160045260246000fdfe608080604052600436101561001357600080fd5b60003560e01c908162998421146115815750806301ffc9a71461152b578063129ee21a146114465780631357e1dc14611428578063147e03d51461138657806323218411146111d1578063248a9ca31461119c5780632f2ff15d146110e057806336568abe1461104e5780633f4ba83a14610fba57806344f0c3ce14610f8057806358db02ec14610f485780635c975abb14610f2557806367084eb314610e8357806378e12547146106765780637ecebe001461063c57806380396811146105a95780638456cb59146105505780638746cf981461046b5780638a14f12c1461044d57806391d14854146104005780639619367d146103e2578063a217fddf146103c6578063a9224b64146103a8578063c23cc8b11461038a578063c59d484714610339578063cab11d5d14610279578063d547741f14610232578063ec87621c146101f7578063f0e3fff8146101bd5763fc0c546a1461017357600080fd5b346101b85760003660031901126101b8576040517f00000000000000000000000000000000000000000000000000000000000000006001600160a01b03168152602090f35b600080fd5b346101b85760203660031901126101b8576001600160a01b036101de61159c565b16600052600b6020526020604060002054604051908152f35b346101b85760003660031901126101b85760206040517f241ecf16d79d0f8dbfb92cbc07fe17840425976cf0667f022fe9877caa831b088152f35b346101b85760403660031901126101b8576102776004356102516115b2565b9061027261026d82600052600060205260016040600020015490565b611a11565b611a53565b005b346101b85760003660031901126101b8576040516370a0823160e01b81523060048201526020816024817f00000000000000000000000000000000000000000000000000000000000000006001600160a01b03165afa90811561032d576000916102f9575b60206127106102f08460045490611978565b04604051908152f35b90506020813d602011610325575b81610314602093836116aa565b810103126101b857516127106102de565b3d9150610307565b6040513d6000823e3d90fd5b346101b85760003660031901126101b857608060085460065460075480821160001461038257610369818361175d565b915b604051938452602084015260408301526060820152f35b60009161036b565b346101b85760003660031901126101b8576020600454604051908152f35b346101b85760003660031901126101b8576020600854604051908152f35b346101b85760003660031901126101b857602060405160008152f35b346101b85760003660031901126101b8576020600354604051908152f35b346101b85760403660031901126101b8576104196115b2565b600435600052600060205260406000209060018060a01b0316600052602052602060ff604060002054166040519015158152f35b346101b85760003660031901126101b8576020600654604051908152f35b346101b85760203660031901126101b85760043561048761199a565b6040516323b872dd60e01b81523360048201523060248201526044810182905260208160648160006001600160a01b037f0000000000000000000000000000000000000000000000000000000000000000165af1801561032d576104f391600091610521575b506116e4565b6040519081527f68b5652e3b29601ecd57e94e383b10ba5e2f2726963da06839bb31da7e5dd0d960203392a2005b610543915060203d602011610549575b61053b81836116aa565b8101906116cc565b836104ed565b503d610531565b346101b85760003660031901126101b85761056961199a565b610571611ad5565b600160ff19815416176001557f62e78cea01bee320cd4e420270b5ea74000d11b0c9f74754ebdbfc544b05a2586020604051338152a1005b346101b85760203660031901126101b8576001600160a01b036105ca61159c565b16600052600a602052604060002080546105e381611722565b916105f160405193846116aa565b818352602083019060005260206000206000915b83831061061e576040518061061a8782611607565b0390f35b6005602060019261062e8561178a565b815201920192019190610605565b346101b85760203660031901126101b8576001600160a01b0361065d61159c565b1660005260096020526020604060002054604051908152f35b346101b85760603660031901126101b85760043560243560038110156101b8576044359060ff82168092036101b8576106ad611ad5565b6002805414610e3e57600280556003548310610e09576040516370a0823160e01b81523060048201527f00000000000000000000000000000000000000000000000000000000000000006001600160a01b03169290602081602481875afa90811561032d57600091610dd5575b5061072b6127109160045490611978565b048411610d9e57811592600084610d49575b50600183149485610cf3575b600094600285149081610c9d575b6040516323b872dd60e01b8152336004820152306024820152604481018490526020816064818b895af1908115610c92578891610c73575b5015610c3d573387526009602052604087208054906107ad8261198b565b9055600019430190438211610c2957906006916040519060208201924083524260408301523360601b60608301526074820152607481526107ef6094826116aa565b519020069660018801809811610c1557809882610c0b575b600090610c01575b5082610bf7575b8815610bd3575060009115610b6557505061085161271061083a61c3505b84611978565b0461271061084a60055483611978565b049061175d565b916040516370a0823160e01b8152306004820152602081602481855afa90811561032d57600091610b33575b508311610acc575b60405163a9059cbb60e01b81523360048201526024810184905290602090829060449082906000905af190811561032d57600091610aad575b5015610a785733600052600b60205260406000206108dd83825461173a565b90556108eb8260075461173a565b6007555b6108fb8160065461173a565b60065561090960085461198b565b600855604051926109198461168e565b85845260208401938285526040810194848652606082019061093b888361177e565b608083019184835260a084019a151597888c5260c085019242845233600052600a6020526040600020805468010000000000000000811015610a6257610986916001820181556115c8565b969096610a4c575186555160018601555160028501556003840190516003811015610a365760209b60049460ff62ff000061ff008654935160081b169351151560101b1693169062ffffff19161717179055519101556109ef60405195878752888701906115fa565b60408501526060840152608083015260a08201527fb6584cd587a8dd10b8c8b512b7102632450f08ab130e1a53dc04be3c14e08b4760c03392a26001600255604051908152f35b634e487b7160e01b600052602160045260246000fd5b634e487b7160e01b600052600060045260246000fd5b634e487b7160e01b600052604160045260246000fd5b60405162461bcd60e51b815260206004820152600d60248201526c14185e5bdd5d0819985a5b1959609a1b6044820152606490fd5b610ac6915060203d6020116105495761053b81836116aa565b876108be565b6040516370a0823160e01b8152306004820152909250602081602481865afa90811561032d57600091610b01575b5091610885565b90506020813d602011610b2b575b81610b1c602093836116aa565b810103126101b8575187610afa565b3d9150610b0f565b90506020813d602011610b5d575b81610b4e602093836116aa565b810103126101b857518861087d565b3d9150610b41565b15610bbd578360060360ff8111610ba95760ff16905b8115610b95575061271061083a6108519261ea6004610834565b634e487b7160e01b81526012600452602490fd5b634e487b7160e01b82526011600452602482fd5b600019840160ff8111610ba95760ff1690610b7b565b9350505033600052600c6020526040600020610bf082825461173a565b90556108ef565b8786149850610816565b868910995061080f565b8689119950610807565b634e487b7160e01b81526011600452602490fd5b634e487b7160e01b89526011600452602489fd5b60405162461bcd60e51b815260206004820152600e60248201526d14185e5b595b9d0819985a5b195960921b6044820152606490fd5b610c8c915060203d6020116105495761053b81836116aa565b8961078f565b6040513d8a823e3d90fd5b600185101580610ce8575b6107575760405162461bcd60e51b815260206004820152601460248201527315185c99d95d080c4b4d88199bdc8811561050d560621b6044820152606490fd5b506006851115610ca8565b600283101580610d3e575b6107495760405162461bcd60e51b81526020600482015260146024820152732a30b933b2ba1019169b103337b9102aa72222a960611b6044820152606490fd5b506006831115610cfe565b600183101580610d93575b61073d5760405162461bcd60e51b81526020600482015260136024820152722a30b933b2ba1018969a903337b91027ab22a960691b6044820152606490fd5b506005831115610d54565b60405162461bcd60e51b815260206004820152600f60248201526e115e18d959591cc81b585e0818995d608a1b6044820152606490fd5b90506020813d602011610e01575b81610df0602093836116aa565b810103126101b8575161072b61071a565b3d9150610de3565b60405162461bcd60e51b815260206004820152600d60248201526c10995b1bddc81b5a5b8818995d609a1b6044820152606490fd5b60405162461bcd60e51b815260206004820152601f60248201527f5265656e7472616e637947756172643a207265656e7472616e742063616c6c006044820152606490fd5b346101b85760003660031901126101b8576040516370a0823160e01b81523060048201526020816024817f00000000000000000000000000000000000000000000000000000000000000006001600160a01b03165afa801561032d57600090610ef2575b602090604051908152f35b506020813d602011610f1d575b81610f0c602093836116aa565b810103126101b85760209051610ee7565b3d9150610eff565b346101b85760003660031901126101b857602060ff600154166040519015158152f35b346101b85760603660031901126101b85761061a610f74610f6761159c565b60443590602435906117e8565b60405191829182611607565b346101b85760203660031901126101b8576001600160a01b03610fa161159c565b16600052600c6020526020604060002054604051908152f35b346101b85760003660031901126101b857610fd361199a565b60015460ff8116156110125760ff19166001557f5db9ee0a495bf2e6ff9c91a7834c1ba4fdd244a5e8aa4e537bd38aeae4b073aa6020604051338152a1005b60405162461bcd60e51b815260206004820152601460248201527314185d5cd8589b194e881b9bdd081c185d5cd95960621b6044820152606490fd5b346101b85760403660031901126101b8576110676115b2565b336001600160a01b038216036110835761027790600435611a53565b60405162461bcd60e51b815260206004820152602f60248201527f416363657373436f6e74726f6c3a2063616e206f6e6c792072656e6f756e636560448201526e103937b632b9903337b91039b2b63360891b6064820152608490fd5b346101b85760403660031901126101b8576004356110fc6115b2565b9061111861026d82600052600060205260016040600020015490565b6000818152602081815260408083206001600160a01b038616845290915290205460ff161561114357005b6000818152602081815260408083206001600160a01b0395909516808452949091528120805460ff19166001179055339291907f2f8788117e7eff1d82e926ec794901d17c78024a50270940304540a733656f0d9080a4005b346101b85760203660031901126101b85760206111c9600435600052600060205260016040600020015490565b604051908152f35b346101b85760203660031901126101b8573360009081527fad3228b676f7d3cd4284a5443f17f1962b36e491b30a40b2405849e597ba5fb560205260409020546004359060ff16156112b05760405163a9059cbb60e01b81523360048201526024810182905260208160448160006001600160a01b037f0000000000000000000000000000000000000000000000000000000000000000165af1801561032d576112829160009161052157506116e4565b6040519081527fd7d7cc9b93e284aa94ef15ab7a70191483528f4e45d0bd07818aef974077ba7860203392a2005b611378604460376112c033611b69565b61135060116112cf6000611c95565b60405194859160208301957f416363657373436f6e74726f6c3a206163636f756e742000000000000000000087526113108151809260208688019101611b19565b83017001034b99036b4b9b9b4b733903937b6329607d1b8382015261133f825180936020604885019101611b19565b01010301601f1981018452836116aa565b60405193849262461bcd60e51b84526020600485015251809281602486015285850190611b19565b601f01601f19168101030190fd5b346101b85760403660031901126101b85761139f61159c565b6001600160a01b03166000908152600a60205260409020805460243591908210156101b85760e0916113d0916115c8565b5080549060ff600182015491600281015460046003830154920154936040519586526020860152604085015261140b606085018383166115fa565b818160081c16608085015260101c16151560a083015260c0820152f35b346101b85760003660031901126101b8576020600754604051908152f35b346101b85760603660031901126101b85760443560243560043561146861199a565b6107d083116114f65761138882116114be577f6d05db271e19f930af71c4765de54ef86294762644c20f4d6fd2609d057d3c7b9260609282600355806004558160055560405192835260208301526040820152a1005b60405162461bcd60e51b815260206004820152601060248201526f09ac2f040c4cae840e8dede40d0d2ced60831b6044820152606490fd5b60405162461bcd60e51b815260206004820152600d60248201526c08ac8ceca40e8dede40d0d2ced609b1b6044820152606490fd5b346101b85760203660031901126101b85760043563ffffffff60e01b81168091036101b857602090637965db0b60e01b8114908115611570575b506040519015158152f35b6301ffc9a760e01b14905082611565565b346101b85760003660031901126101b8576020906005548152f35b600435906001600160a01b03821682036101b857565b602435906001600160a01b03821682036101b857565b80548210156115e4576000526005602060002091020190600090565b634e487b7160e01b600052603260045260246000fd5b906003821015610a365752565b602060408183019282815284518094520192019060005b81811061162b5750505090565b909192602060e060019260c0875180518352848101518584015260408101516040840152611661606082015160608501906115fa565b60ff608082015116608084015260a0810151151560a0840152015160c0820152019401910191909161161e565b60e0810190811067ffffffffffffffff821117610a6257604052565b90601f8019910116810190811067ffffffffffffffff821117610a6257604052565b908160209103126101b8575180151581036101b85790565b156116eb57565b60405162461bcd60e51b815260206004820152600f60248201526e151c985b9cd9995c8819985a5b1959608a1b6044820152606490fd5b67ffffffffffffffff8111610a625760051b60200190565b9190820180921161174757565b634e487b7160e01b600052601160045260246000fd5b9190820391821161174757565b80518210156115e45760209160051b010190565b6003821015610a365752565b906040516117978161168e565b60c06004829480548452600181015460208501526002810154604085015260ff60038201546117cb8282166060880161177e565b818160081c16608087015260101c16151560a08501520154910152565b6001600160a01b03166000908152600a6020526040902080549092606082841015611905575081611819828561173a565b11156118f45750905b61182c818361175d565b9261183684611722565b9361184460405195866116aa565b808552611853601f1991611722565b0160005b8181106118ac575050815b838110611870575050505090565b806118a5611880600193856115c8565b5061189461188e878561175d565b9161178a565b61189e828a61176a565b528761176a565b5001611862565b6020906040516118bb8161168e565b60008152600083820152600060408201526000606082015260006080820152600060a0820152600060c082015282828901015201611857565b6118ff91508261173a565b90611822565b604051945092506000915061191d90506020846116aa565b8252600090815b8281106119315750505090565b6020906040516119408161168e565b600081526000838201526000604082015260008482015260006080820152600060a0820152600060c082015282828701015201611924565b8181029291811591840414171561174757565b60001981146117475760010190565b3360009081527fe84508f2c7fa9c351146748b3025cb78b45df37d868e48c6a75102fecdeee645602052604090205460ff16156119d357565b611378604460376119e333611b69565b61135060116112cf7f241ecf16d79d0f8dbfb92cbc07fe17840425976cf0667f022fe9877caa831b08611c95565b60008181526020818152604080832033845290915290205460ff1615611a345750565b604460376113789261135060116112cf611a4d33611b69565b93611c95565b6000818152602081815260408083206001600160a01b038616845290915290205460ff16611a7f575050565b6000818152602081815260408083206001600160a01b0395909516808452949091528120805460ff19169055339291907ff6391f5c32d9c69d2a47ea670b442974b53935d1edc7fd64eb21e047a839171b9080a4565b60ff60015416611ae157565b60405162461bcd60e51b815260206004820152601060248201526f14185d5cd8589b194e881c185d5cd95960821b6044820152606490fd5b60005b838110611b2c5750506000910152565b8181015183820152602001611b1c565b67ffffffffffffffff8111610a6257601f01601f191660200190565b9081518110156115e4570160200190565b600090611b76602a611b3c565b91611b8460405193846116aa565b602a8352611b92602a611b3c565b6020840190601f1901368237835115611c815760309053825160011015611c6d576078602184015350602960005b60018211611c15575050611bd15790565b606460405162461bcd60e51b815260206004820152602060248201527f537472696e67733a20686578206c656e67746820696e73756666696369656e746044820152fd5b9091600f81166010811015611c59576f181899199a1a9b1b9c1cb0b131b232b360811b901a611c448486611b58565b5360041c918015610ba9576000190190611bc0565b634e487b7160e01b83526032600452602483fd5b634e487b7160e01b81526032600452602490fd5b634e487b7160e01b82526032600452602482fd5b600090611ca26042611b3c565b91611cb060405193846116aa565b60428352611cbe6042611b3c565b6020840190601f1901368237835115611c815760309053825160011015611c6d576078602184015350604160005b60018211611cfd575050611bd15790565b9091600f81166010811015611c59576f181899199a1a9b1b9c1cb0b131b232b360811b901a611d2c8486611b58565b5360041c918015610ba9576000190190611cec56fea2646970667358221220a52ce5914ef508b77574b11043973ccd75b8912aa6c7728c1f2ab84945a4224c64736f6c634300081c00332f8788117e7eff1d82e926ec794901d17c78024a50270940304540a733656f0de84508f2c7fa9c351146748b3025cb78b45df37d868e48c6a75102fecdeee645ad3228b676f7d3cd4284a5443f17f1962b36e491b30a40b2405849e597ba5fb5",
  "linkReferences": {},
  "deployedLinkReferences": {}
}