{
  "_format": "hh-sol-artifact-1",
  "contractName": "IIITPMarket",
  "sourceName": "contracts/IIITPMarket.sol",
  "abi": [
    {
      "inputs": [
        {
          "internalType": "address",
          "name": "tokenAddress",
          "type": "address"
        },
        {
          "internalType": "address",
          "name": "_treasury",
          "type": "address"
        }
      ],
      "stateMutability": "nonpayable",
      "type": "constructor"
    },
    {
      "anonymous": false,
      "inputs": [
        {
          "indexed": true,
          "internalType": "address",
          "name": "owner",
          "type": "address"
        },
        {
          "indexed": true,
          "internalType": "address",
          "name": "approved",
          "type": "address"
        },
        {
          "indexed": true,
          "internalType": "uint256",
          "name": "tokenId",
          "type": "uint256"
        }
      ],
      "name": "Approval",
      "type": "event"
    },
    {
      "anonymous": false,
      "inputs": [
        {
          "indexed": true,
          "internalType": "address",
          "name": "owner",
          "type": "address"
        },
        {
          "indexed": true,
          "internalType": "address",
          "name": "operator",
          "type": "address"
        },
        {
          "indexed": false,
          "internalType": "bool",
          "name": "approved",
          "type": "bool"
        }
      ],
      "name": "ApprovalForAll",
      "type": "event"
    },
    {
      "anonymous": false,
      "inputs": [
        {
          "indexed": false,
          "internalType": "uint256",
          "name": "_fromTokenId",
          "type": "uint256"
        },
        {
          "indexed": false,
          "internalType": "uint256",
          "name": "_toTokenId",
          "type": "uint256"
        }
      ],
      "name": "BatchMetadataUpdate",
      "type": "event"
    },
    {
      "anonymous": false,
      "inputs": [
        {
          "indexed": true,
          "internalType": "uint256",
          "name": "tokenId",
          "type": "uint256"
        },
        {
          "indexed": true,
          "internalType": "address",
          "name": "seller",
          "type": "address"
        }
      ],
      "name": "Delisted",
      "type": "event"
    },
    {
      "anonymous": false,
      "inputs": [
        {
          "indexed": true,
          "internalType": "uint256",
          "name": "tokenId",
          "type": "uint256"
        },
        {
          "indexed": true,
          "internalType": "address",
          "name": "seller",
          "type": "address"
        },
        {
          "indexed": false,
          "internalType": "uint256",
          "name": "price",
          "type": "uint256"
        }
      ],
      "name": "Listed",
      "type": "event"
    },
    {
      "anonymous": false,
      "inputs": [
        {
          "indexed": false,
          "internalType": "uint256",
          "name": "_tokenId",
          "type": "uint256"
        }
      ],
      "name": "MetadataUpdate",
      "type": "event"
    },
    {
      "anonymous": false,
      "inputs": [
        {
          "indexed": false,
          "internalType": "uint256",
          "name": "newFee",
          "type": "uint256"
        }
      ],
      "name": "MintFeeUpdated",
      "type": "event"
    },
    {
      "anonymous": false,
      "inputs": [
        {
          "indexed": true,
          "internalType": "uint256",
          "name": "tokenId",
          "type": "uint256"
        },
        {
          "indexed": true,
          "internalType": "address",
          "name": "creator",
          "type": "address"
        },
        {
          "indexed": false,
          "internalType": "string",
          "name": "imageURI",
          "type": "string"
        },
        {
          "indexed": false,
          "internalType": "string",
          "name": "name",
          "type": "string"
        },
        {
          "indexed": false,
          "internalType": "bool",
          "name": "teacherMint",
          "type": "bool"
        }
      ],
      "name": "Minted",
      "type": "event"
    },
    {
      "anonymous": false,
      "inputs": [
        {
          "indexed": false,
          "internalType": "address",
          "name": "account",
          "type": "address"
        }
      ],
      "name": "Paused",
      "type": "event"
    },
    {
      "anonymous": false,
      "inputs": [
        {
          "indexed": false,
          "internalType": "uint256",
          "name": "newBps",
          "type": "uint256"
        }
      ],
      "name": "PlatformFeeUpdated",
      "type": "event"
    },
    {
      "anonymous": false,
      "inputs": [
        {
          "indexed": true,
          "internalType": "bytes32",
          "name": "role",
          "type": "bytes32"
        },
        {
          "indexed": true,
          "internalType": "bytes32",
          "name": "previousAdminRole",
          "type": "bytes32"
        },
        {
          "indexed": true,
          "internalType": "bytes32",
          "name": "newAdminRole",
          "type": "bytes32"
        }
      ],
      "name": "RoleAdminChanged",
      "type": "event"
    },
    {
      "anonymous": false,
      "inputs": [
        {
          "indexed": true,
          "internalType": "bytes32",
          "name": "role",
          "type": "bytes32"
        },
        {
          "indexed": true,
          "internalType": "address",
          "name": "account",
          "type": "address"
        },
        {
          "indexed": true,
          "internalType": "address",
          "name": "sender",
          "type": "address"
        }
      ],
      "name": "RoleGranted",
      "type": "event"
    },
    {
      "anonymous": false,
      "inputs": [
        {
          "indexed": true,
          "internalType": "bytes32",
          "name": "role",
          "type": "bytes32"
        },
        {
          "indexed": true,
          "internalType": "address",
          "name": "account",
          "type": "address"
        },
        {
          "indexed": true,
          "internalType": "address",
          "name": "sender",
          "type": "address"
        }
      ],
      "name": "RoleRevoked",
      "type": "event"
    },
    {
      "anonymous": false,
      "inputs": [
        {
          "indexed": true,
          "internalType": "uint256",
          "name": "tokenId",
          "type": "uint256"
        },
        {
          "indexed": true,
          "internalType": "address",
          "name": "seller",
          "type": "address"
        },
        {
          "indexed": true,
          "internalType": "address",
          "name": "buyer",
          "type": "address"
        },
        {
          "indexed": false,
          "internalType": "uint256",
          "name": "price",
          "type": "uint256"
        }
      ],
      "name": "Sold",
      "type": "event"
    },
    {
      "anonymous": false,
      "inputs": [
        {
          "indexed": true,
          "internalType": "address",
          "name": "account",
          "type": "address"
        },
        {
          "indexed": false,
          "internalType": "bool",
          "name": "status",
          "type": "bool"
        }
      ],
      "name": "TeacherSet",
      "type": "event"
    },
    {
      "anonymous": false,
      "inputs": [
        {
          "indexed": true,
          "internalType": "address",
          "name": "from",
          "type": "address"
        },
        {
          "indexed": true,
          "internalType": "address",
          "name": "to",
          "type": "address"
        },
        {
          "indexed": true,
          "internalType": "uint256",
          "name": "tokenId",
          "type": "uint256"
        }
      ],
      "name": "Transfer",
      "type": "event"
    },
    {
      "anonymous": false,
      "inputs": [
        {
          "indexed": false,
          "internalType": "address",
          "name": "newTreasury",
          "type": "address"
        }
      ],
      "name": "TreasuryUpdated",
      "type": "event"
    },
    {
      "anonymous": false,
      "inputs": [
        {
          "indexed": false,
          "internalType": "address",
          "name": "account",
          "type": "address"
        }
      ],
      "name": "Unpaused",
      "type": "event"
    },
    {
      "inputs": [],
      "name": "DEFAULT_ADMIN_ROLE",
      "outputs": [
        {
          "internalType": "bytes32",
          "name": "",
          "type": "bytes32"
        }
      ],
      "stateMutability": "view",
      "type": "function"
    },
    {
      "inputs": [],
      "name": "PAUSER_ROLE",
      "outputs": [
        {
          "internalType": "bytes32",
          "name": "",
          "type": "bytes32"
        }
      ],
      "stateMutability": "view",
      "type": "function"
    },
    {
      "inputs": [],
      "name": "TEACHER_ROLE",
      "outputs": [
        {
          "internalType": "bytes32",
          "name": "",
          "type": "bytes32"
        }
      ],
      "stateMutability": "view",
      "type": "function"
    },
    {
      "inputs": [
        {
          "internalType": "address",
          "name": "to",
          "type": "address"
        },
        {
          "internalType": "uint256",
          "name": "tokenId",
          "type": "uint256"
        }
      ],
      "name": "approve",
      "outputs": [],
      "stateMutability": "nonpayable",
      "type": "function"
    },
    {
      "inputs": [
        {
          "internalType": "address",
          "name": "owner",
          "type": "address"
        }
      ],
      "name": "balanceOf",
      "outputs": [
        {
          "internalType": "uint256",
          "name": "",
          "type": "uint256"
        }
      ],
      "stateMutability": "view",
      "type": "function"
    },
    {
      "inputs": [
        {
          "internalType": "uint256",
          "name": "tokenId",
          "type": "uint256"
        }
      ],
      "name": "buy",
      "outputs": [],
      "stateMutability": "nonpayable",
      "type": "function"
    },
    {
      "inputs": [
        {
          "internalType": "uint256",
          "name": "tokenId",
          "type": "uint256"
        }
      ],
      "name": "delist",
      "outputs": [],
      "stateMutability": "nonpayable",
      "type": "function"
    },
    {
      "inputs": [],
      "name": "getAllListings",
      "outputs": [
        {
          "internalType": "uint256[]",
          "name": "tokenIds",
          "type": "uint256[]"
        },
        {
          "internalType": "address[]",
          "name": "sellers",
          "type": "address[]"
        },
        {
          "internalType": "uint256[]",
          "name": "prices",
          "type": "uint256[]"
        },
        {
          "internalType": "string[]",
          "name": "imageURIs",
          "type": "string[]"
        },
        {
          "internalType": "string[]",
          "name": "names",
          "type": "string[]"
        }
      ],
      "stateMutability": "view",
      "type": "function"
    },
    {
      "inputs": [
        {
          "internalType": "uint256",
          "name": "tokenId",
          "type": "uint256"
        }
      ],
      "name": "getApproved",
      "outputs": [
        {
          "internalType": "address",
          "name": "",
          "type": "address"
        }
      ],
      "stateMutability": "view",
      "type": "function"
    },
    {
      "inputs": [
        {
          "internalType": "address",
          "name": "owner",
          "type": "address"
        }
      ],
      "name": "getOwnedTokens",
      "outputs": [
        {
          "internalType": "uint256[]",
          "name": "",
          "type": "uint256[]"
        }
      ],
      "stateMutability": "view",
      "type": "function"
    },
    {
      "inputs": [
        {
          "internalType": "bytes32",
          "name": "role",
          "type": "bytes32"
        }
      ],
      "name": "getRoleAdmin",
      "outputs": [
        {
          "internalType": "bytes32",
          "name": "",
          "type": "bytes32"
        }
      ],
      "stateMutability": "view",
      "type": "function"
    },
    {
      "inputs": [
        {
          "internalType": "bytes32",
          "name": "role",
          "type": "bytes32"
        },
        {
          "internalType": "address",
          "name": "account",
          "type": "address"
        }
      ],
      "name": "grantRole",
      "outputs": [],
      "stateMutability": "nonpayable",
      "type": "function"
    },
    {
      "inputs": [
        {
          "internalType": "bytes32",
          "name": "role",
          "type": "bytes32"
        },
        {
          "internalType": "address",
          "name": "account",
          "type": "address"
        }
      ],
      "name": "hasRole",
      "outputs": [
        {
          "internalType": "bool",
          "name": "",
          "type": "bool"
        }
      ],
      "stateMutability": "view",
      "type": "function"
    },
    {
      "inputs": [
        {
          "internalType": "address",
          "name": "owner",
          "type": "address"
        },
        {
          "internalType": "address",
          "name": "operator",
          "type": "address"
        }
      ],
      "name": "isApprovedForAll",
      "outputs": [
        {
          "internalType": "bool",
          "name": "",
          "type": "bool"
        }
      ],
      "stateMutability": "view",
      "type": "function"
    },
    {
      "inputs": [
        {
          "internalType": "address",
          "name": "account",
          "type": "address"
        }
      ],
      "name": "isTeacher",
      "outputs": [
        {
          "internalType": "bool",
          "name": "",
          "type": "bool"
        }
      ],
      "stateMutability": "view",
      "type": "function"
    },
    {
      "inputs": [
        {
          "internalType": "uint256",
          "name": "tokenId",
          "type": "uint256"
        },
        {
          "internalType": "uint256",
          "name": "price",
          "type": "uint256"
        }
      ],
      "name": "list",
      "outputs": [],
      "stateMutability": "nonpayable",
      "type": "function"
    },
    {
      "inputs": [
        {
          "internalType": "uint256",
          "name": "",
          "type": "uint256"
        }
      ],
      "name": "listings",
      "outputs": [
        {
          "internalType": "address",
          "name": "seller",
          "type": "address"
        },
        {
          "internalType": "uint256",
          "name": "price",
          "type": "uint256"
        },
        {
          "internalType": "bool",
          "name": "active",
          "type": "bool"
        }
      ],
      "stateMutability": "view",
      "type": "function"
    },
    {
      "inputs": [
        {
          "internalType": "string",
          "name": "imageURI",
          "type": "string"
        },
        {
          "internalType": "string",
          "name": "name",
          "type": "string"
        }
      ],
      "name": "mint",
      "outputs": [
        {
          "internalType": "uint256",
          "name": "",
          "type": "uint256"
        }
      ],
      "stateMutability": "nonpayable",
      "type": "function"
    },
    {
      "inputs": [],
      "name": "mintFee",
      "outputs": [
        {
          "internalType": "uint256",
          "name": "",
          "type": "uint256"
        }
      ],
      "stateMutability": "view",
      "type": "function"
    },
    {
      "inputs": [],
      "name": "name",
      "outputs": [
        {
          "internalType": "string",
          "name": "",
          "type": "string"
        }
      ],
      "stateMutability": "view",
      "type": "function"
    },
    {
      "inputs": [
        {
          "internalType": "uint256",
          "name": "",
          "type": "uint256"
        }
      ],
      "name": "nftInfo",
      "outputs": [
        {
          "internalType": "address",
          "name": "creator",
          "type": "address"
        },
        {
          "internalType": "uint256",
          "name": "mintedAt",
          "type": "uint256"
        },
        {
          "internalType": "string",
          "name": "imageURI",
          "type": "string"
        },
        {
          "internalType": "string",
          "name": "name",
          "type": "string"
        }
      ],
      "stateMutability": "view",
      "type": "function"
    },
    {
      "inputs": [
        {
          "internalType": "uint256",
          "name": "tokenId",
          "type": "uint256"
        }
      ],
      "name": "ownerOf",
      "outputs": [
        {
          "internalType": "address",
          "name": "",
          "type": "address"
        }
      ],
      "stateMutability": "view",
      "type": "function"
    },
    {
      "inputs": [],
      "name": "pause",
      "outputs": [],
      "stateMutability": "nonpayable",
      "type": "function"
    },
    {
      "inputs": [],
      "name": "paused",
      "outputs": [
        {
          "internalType": "bool",
          "name": "",
          "type": "bool"
        }
      ],
      "stateMutability": "view",
      "type": "function"
    },
    {
      "inputs": [],
      "name": "platformFeeBps",
      "outputs": [
        {
          "internalType": "uint256",
          "name": "",
          "type": "uint256"
        }
      ],
      "stateMutability": "view",
      "type": "function"
    },
    {
      "inputs": [
        {
          "internalType": "bytes32",
          "name": "role",
          "type": "bytes32"
        },
        {
          "internalType": "address",
          "name": "account",
          "type": "address"
        }
      ],
      "name": "renounceRole",
      "outputs": [],
      "stateMutability": "nonpayable",
      "type": "function"
    },
    {
      "inputs": [
        {
          "internalType": "bytes32",
          "name": "role",
          "type": "bytes32"
        },
        {
          "internalType": "address",
          "name": "account",
          "type": "address"
        }
      ],
      "name": "revokeRole",
      "outputs": [],
      "stateMutability": "nonpayable",
      "type": "function"
    },
    {
      "inputs": [
        {
          "internalType": "address",
          "name": "from",
          "type": "address"
        },
        {
          "internalType": "address",
          "name": "to",
          "type": "address"
        },
        {
          "internalType": "uint256",
          "name": "tokenId",
          "type": "uint256"
        }
      ],
      "name": "safeTransferFrom",
      "outputs": [],
      "stateMutability": "nonpayable",
      "type": "function"
    },
    {
      "inputs": [
        {
          "internalType": "address",
          "name": "from",
          "type": "address"
        },
        {
          "internalType": "address",
          "name": "to",
          "type": "address"
        },
        {
          "internalType": "uint256",
          "name": "tokenId",
          "type": "uint256"
        },
        {
          "internalType": "bytes",
          "name": "data",
          "type": "bytes"
        }
      ],
      "name": "safeTransferFrom",
      "outputs": [],
      "stateMutability": "nonpayable",
      "type": "function"
    },
    {
      "inputs": [
        {
          "internalType": "address",
          "name": "operator",
          "type": "address"
        },
        {
          "internalType": "bool",
          "name": "approved",
          "type": "bool"
        }
      ],
      "name": "setApprovalForAll",
      "outputs": [],
      "stateMutability": "nonpayable",
      "type": "function"
    },
    {
      "inputs": [
        {
          "internalType": "uint256",
          "name": "fee",
          "type": "uint256"
        }
      ],
      "name": "setMintFee",
      "outputs": [],
      "stateMutability": "nonpayable",
      "type": "function"
    },
    {
      "inputs": [
        {
          "internalType": "uint256",
          "name": "bps",
          "type": "uint256"
        }
      ],
      "name": "setPlatformFee",
      "outputs": [],
      "stateMutability": "nonpayable",
      "type": "function"
    },
    {
      "inputs": [
        {
          "internalType": "address",
          "name": "account",
          "type": "address"
        },
        {
          "internalType": "bool",
          "name": "status",
          "type": "bool"
        }
      ],
      "name": "setTeacher",
      "outputs": [],
      "stateMutability": "nonpayable",
      "type": "function"
    },
    {
      "inputs": [
        {
          "internalType": "address[]",
          "name": "accounts",
          "type": "address[]"
        },
        {
          "internalType": "bool",
          "name": "status",
          "type": "bool"
        }
      ],
      "name": "setTeacherBatch",
      "outputs": [],
      "stateMutability": "nonpayable",
      "type": "function"
    },
    {
      "inputs": [
        {
          "internalType": "address",
          "name": "_treasury",
          "type": "address"
        }
      ],
      "name": "setTreasury",
      "outputs": [],
      "stateMutability": "nonpayable",
      "type": "function"
    },
    {
      "inputs": [
        {
          "internalType": "bytes4",
          "name": "interfaceId",
          "type": "bytes4"
        }
      ],
      "name": "supportsInterface",
      "outputs": [
        {
          "internalType": "bool",
          "name": "",
          "type": "bool"
        }
      ],
      "stateMutability": "view",
      "type": "function"
    },
    {
      "inputs": [],
      "name": "symbol",
      "outputs": [
        {
          "internalType": "string",
          "name": "",
          "type": "string"
        }
      ],
      "stateMutability": "view",
      "type": "function"
    },
    {
      "inputs": [],
      "name": "token",
      "outputs": [
        {
          "internalType": "contract I_IIITPToken",
          "name": "",
          "type": "address"
        }
      ],
      "stateMutability": "view",
      "type": "function"
    },
    {
      "inputs": [
        {
          "internalType": "uint256",
          "name": "index",
          "type": "uint256"
        }
      ],
      "name": "tokenByIndex",
      "outputs": [
        {
          "internalType": "uint256",
          "name": "",
          "type": "uint256"
        }
      ],
      "stateMutability": "view",
      "type": "function"
    },
    {
      "inputs": [
        {
          "internalType": "address",
          "name": "owner",
          "type": "address"
        },
        {
          "internalType": "uint256",
          "name": "index",
          "type": "uint256"
        }
      ],
      "name": "tokenOfOwnerByIndex",
      "outputs": [
        {
          "internalType": "uint256",
          "name": "",
          "type": "uint256"
        }
      ],
      "stateMutability": "view",
      "type": "function"
    },
    {
      "inputs": [
        {
          "internalType": "uint256",
          "name": "tokenId",
          "type": "uint256"
        }
      ],
      "name": "tokenURI",
      "outputs": [
        {
          "internalType": "string",
          "name": "",
          "type": "string"
        }
      ],
      "stateMutability": "view",
      "type": "function"
    },
    {
      "inputs": [],
      "name": "totalMinted",
      "outputs": [
        {
          "internalType": "uint256",
          "name": "",
          "type": "uint256"
        }
      ],
      "stateMutability": "view",
      "type": "function"
    },
    {
      "inputs": [],
      "name": "totalSupply",
      "outputs": [
        {
          "internalType": "uint256",
          "name": "",
          "type": "uint256"
        }
      ],
      "stateMutability": "view",
      "type": "function"
    },
    {
      "inputs": [
        {
          "internalType": "address",
          "name": "from",
          "type": "address"
        },
        {
          "internalType": "address",
          "name": "to",
          "type": "address"
        },
        {
          "internalType": "uint256",
          "name": "tokenId",
          "type": "uint256"
        }
      ],
      "name": "transferFrom",
      "outputs": [],
      "stateMutability": "nonpayable",
      "type": "function"
    },
    {
      "inputs": [],
      "name": "treasury",
      "outputs": [
        {
          "internalType": "address",
          "name": "",
          "type": "address"
        }
      ],
      "stateMutability": "view",
      "type": "function"
    },
    {
      "inputs": [],
      "name": "unpause",
      "outputs": [],
      "stateMutability": "nonpayable",
      "type": "function"
    }
  ],
  "bytecode": "0x60a0604052346104b657613e956040813803918261001c816104bb565b9384928339810103126104b65761003e6020610037836104e0565b92016104e0565b9061004960406104bb565b91600b83526a125252551413585c9ad95d60aa1b602084015261006c60406104bb565b60078152661252551413919560ca1b602082015283519092906001600160401b0381116103c157600054600181811c911680156104ac575b60208210146103a157601f8111610448575b50602094601f82116001146103e2579481929394956000926103d7575b50508160011b916000199060031b1c1916176000555b82516001600160401b0381116103c157600154600181811c911680156103b7575b60208210146103a157601f811161033c575b506020601f82116001146102d557819293946000926102ca575b50508160011b916000199060031b1c1916176001555b600c805460ff191690556001600d55678ac7230489e8000060105560fa6011556001600160a01b03908116608052600f80546001600160a01b03191692909116919091179055336000908152600080516020613e75833981519152602052604090205460ff161561028a575b3360009081527f7aabb41b9887dc0093c744cd74ad704cf0e605a10880518010fc739828f23c45602052604090205460ff1615610216575b60405161396090816104f5823960805181818161022f0152818161056b0152611a510152f35b3360008181527f7aabb41b9887dc0093c744cd74ad704cf0e605a10880518010fc739828f23c4560205260408120805460ff1916600117905581907f65d7a28e3265b37a6474929f336521b332c1681b933f6cb9f3376673440d862a90600080516020613e558339815191529080a46101f0565b336000818152600080516020613e7583398151915260205260408120805460ff191660011790558190600080516020613e558339815191528180a46101b8565b015190503880610136565b601f198216906001600052806000209160005b8181106103245750958360019596971061030b575b505050811b0160015561014c565b015160001960f88460031b161c191690553880806102fd565b9192602060018192868b0151815501940192016102e8565b60016000527fb10e2d527612073b26eecdfd717e6a320cf44b4afac2b0732d9fcbe2b7fa0cf6601f830160051c81019160208410610397575b601f0160051c01905b81811061038b575061011c565b6000815560010161037e565b9091508190610375565b634e487b7160e01b600052602260045260246000fd5b90607f169061010a565b634e487b7160e01b600052604160045260246000fd5b0151905038806100d3565b601f1982169560008052806000209160005b88811061043057508360019596979810610417575b505050811b016000556100e9565b015160001960f88460031b161c19169055388080610409565b919260206001819286850151815501940192016103f4565b600080527f290decd9548b62a8d60345a988386fc84ba6bc95484008f6362f93160ef3e563601f830160051c810191602084106104a2575b601f0160051c01905b81811061049657506100b6565b60008155600101610489565b9091508190610480565b90607f16906100a4565b600080fd5b6040519190601f01601f191682016001600160401b038111838210176103c157604052565b51906001600160a01b03821682036104b65756fe608080604052600436101561001357600080fd5b60003560e01c90816301ffc9a7146125cc57508063059e7d431461254d57806306fdde03146124a8578063081812fc1461248a578063095ea7b31461230157806312e8e2c31461227c57806313966db51461225e57806318160ddd146122405780631f8bc790146121c457806322dcd13e146121a657806323b872dd14612182578063248a9ca3146121555780632f2ff15d146120955780632f745c591461206e57806336568abe14611fdc5780633f4ba83a14611f4857806342842e0e14611f135780634f6ccce714611e8157806350fd736714611ca35780635c975abb14611c8057806361d027b314611c575780636352211e14611c2757806370a0823114611bfc5780638456cb5914611ba257806386e5c15a14611b675780638aa0fdad1461102357806391d1485414610fd657806395d89b4114610f09578063964bc33f14610e63578063a217fddf14610e47578063a22cb46514610d6f578063a2309ff814610d51578063ae73ccec14610ab7578063aec37eb314610a67578063b26bb3351461096f578063b88d4fde146108ea578063c87b56dd146108b7578063d547741f14610870578063d96a094a146104a8578063d9d616551461043a578063de74e57b146103ea578063e63ab1e9146103af578063e985e9c514610354578063eddd0d9c14610308578063f0f44260146102635763fc0c546a1461021957600080fd5b3461025e57600036600319011261025e576040517f00000000000000000000000000000000000000000000000000000000000000006001600160a01b03168152602090f35b600080fd5b3461025e57602036600319011261025e5761027c612685565b610284612ca8565b6001600160a01b031680156102d4576020817f7dae230f18360d76a040c81f050aa14eb9d6dc7901b20fc5d855e2a20fe814d1926001600160601b0360a01b600f541617600f55604051908152a1005b60405162461bcd60e51b815260206004820152600c60248201526b5a65726f206164647265737360a01b6044820152606490fd5b3461025e57602036600319011261025e577f38fbb1c8b109c430f0c030e7ed076cf5611a307773a4e8e365601e8f8bceaec66020600435610347612ca8565b80601055604051908152a1005b3461025e57604036600319011261025e5761036d612685565b61037561269b565b9060018060a01b0316600052600560205260406000209060018060a01b0316600052602052602060ff604060002054166040519015158152f35b3461025e57600036600319011261025e5760206040517f65d7a28e3265b37a6474929f336521b332c1681b933f6cb9f3376673440d862a8152f35b3461025e57602036600319011261025e5760043560005260136020526060604060002060018060a01b038154169060ff600260018301549201541690604051928352602083015215156040820152f35b3461025e57602036600319011261025e57610453612685565b61045c81612b1e565b61046581612bf4565b9160005b82811061048a57604051602080825281906104869082018761286e565b0390f35b80610497600192846129ed565b6104a18287612c70565b5201610469565b3461025e57602036600319011261025e576004356104c46133ce565b6104cc613412565b8060005260136020526040600020600281019182549260ff84161561083e576104f482612af8565b83546001600160a01b03908116949116849003610801578333146107c75760010154936011548086029086820414861517156107b157612710900491828603918683116107b15760ff191690556040516323b872dd60e01b8152336004820152306024820152604481018690526001600160a01b037f00000000000000000000000000000000000000000000000000000000000000001691906020816064816000875af19081156106f457600091610792575b501561075c5760405163a9059cbb60e01b81526001600160a01b038616600482015260248101919091526020816044816000865af19081156106f45760009161073d575b50156107005781610637575b5050610604813384613100565b6040519283527f23f50d55776d8003622a982ade45a6c7f083116c8dbbcd980f59942f440badb160203394a46001600d55005b600f5460405163a9059cbb60e01b81526001600160a01b0390911660048201526024810192909252602090829060449082906000905af19081156106f4576000916106c5575b501561068a5783806105f7565b60405162461bcd60e51b8152602060048201526013602482015272119959481d1c985b9cd9995c8819985a5b1959606a1b6044820152606490fd5b6106e7915060203d6020116106ed575b6106df8183612742565b810190612b95565b8461067d565b503d6106d5565b6040513d6000823e3d90fd5b60405162461bcd60e51b815260206004820152601560248201527414d95b1b195c881c185e5b595b9d0819985a5b1959605a1b6044820152606490fd5b610756915060203d6020116106ed576106df8183612742565b866105eb565b60405162461bcd60e51b815260206004820152600e60248201526d14185e5b595b9d0819985a5b195960921b6044820152606490fd5b6107ab915060203d6020116106ed576106df8183612742565b876105a7565b634e487b7160e01b600052601160045260246000fd5b60405162461bcd60e51b815260206004820152601260248201527110d85b9b9bdd08189d5e481bdddb8813919560721b6044820152606490fd5b60405162461bcd60e51b815260206004820152601560248201527453656c6c6572206e6f206c6f6e676572206f776e7360581b6044820152606490fd5b60405162461bcd60e51b815260206004820152600a602482015269139bdd081b1a5cdd195960b21b6044820152606490fd5b3461025e57604036600319011261025e576108b560043561088f61269b565b906108b06108ab82600052600b60205260016040600020015490565b612e15565b612efc565b005b3461025e57602036600319011261025e576104866108d66004356134ec565b6040519182916020835260208301906126e3565b3461025e57608036600319011261025e57610903612685565b61090b61269b565b90606435906044356001600160401b03831161025e573660238401121561025e576108b59361094761096a943690602481600401359101612916565b9261095a610955843361302d565b61298b565b610965838383613100565b613659565b6134cc565b3461025e57604036600319011261025e576004356001600160401b03811161025e573660238201121561025e5780600401356001600160401b03811161025e576024820191602436918360051b01011161025e576109cb6126b1565b6109d3612ca8565b8015159060005b8381106109e357005b6001908215610a4c57610a07610a026109fd83888a612c84565b612c94565b612f82565b818060a01b03610a1b6109fd83888a612c84565b167ff298082733890bb1d40c8a212d0d625c6f108630873a7b701117666ed60d7a1e6020604051878152a2016109da565b610a62610a5d6109fd83888a612c84565b612e55565b610a07565b3461025e57602036600319011261025e57610a80612685565b6001600160a01b0316600090815260008051602061390b833981519152602090815260409182902054915160ff9092161515825290f35b3461025e57600036600319011261025e57600e5460009060015b81811115610ce25750610ae382612bf4565b90610aed83612bdd565b92610afb6040519485612742565b808452610b0781612bdd565b602085019490601f1901368637610b1d82612bf4565b90610b30610b2a84612c26565b93612c26565b93600060015b82811115610bc9575050506020610b586040519660a0885260a088019061286e565b9186830382880152519182815201959060005b818110610baa57868061048688610b9c89610b8e8e8b878203604089015261286e565b9085820360608701526128a2565b9083820360808501526128a2565b82516001600160a01b0316885260209788019790920191600101610b6b565b80600052601360205260ff6002604060002001541680610cb6575b610bf7575b610bf290612bce565b610b36565b90610cae8183610c0a610bf2948c612c70565b526000848152601360205260409020546001600160a01b0316610c2d8288612c70565b52836000526013602052600160406000200154610c4a8289612c70565b52836000526012602052610c646002604060002001612763565b610c6e828a612c70565b52610c798189612c70565b50836000526012602052610c936003604060002001612763565b610c9d828b612c70565b52610ca8818a612c70565b50612bce565b919050610be9565b50610cc081612af8565b6000828152601360205260409020546001600160a01b03918216911614610be4565b80600052601360205260ff6002604060002001541680610d25575b610d10575b610d0b90612bce565b610ad1565b91610d1d610d0b91612bce565b929050610d02565b50610d2f81612af8565b6000828152601360205260409020546001600160a01b03918216911614610cfd565b3461025e57600036600319011261025e576020600e54604051908152f35b3461025e57604036600319011261025e57610d88612685565b610d906126b1565b6001600160a01b0390911690338214610e0257336000526005602052604060002082600052602052610dd28160406000209060ff801983541691151516179055565b60405190151581527f17307eab39ab6107e8899845ad3d59bd9653f200f220920489ca2b5937696c3160203392a3005b60405162461bcd60e51b815260206004820152601960248201527f4552433732313a20617070726f766520746f2063616c6c6572000000000000006044820152606490fd5b3461025e57600036600319011261025e57602060405160008152f35b3461025e57602036600319011261025e576004356000818152601360205260409020546001600160a01b03163303610ed757806000526013602052600260406000200160ff19815416905533907f8e51b30707579d5dafbd56c2b27a7d382dd32fce8afa83687e99daf0ee47f8af600080a3005b60405162461bcd60e51b815260206004820152600a6024820152692737ba1039b2b63632b960b11b6044820152606490fd5b3461025e57600036600319011261025e576040516000600154610f2b81612708565b8084529060018116908115610fb25750600114610f53575b610486836108d681850382612742565b600160009081527fb10e2d527612073b26eecdfd717e6a320cf44b4afac2b0732d9fcbe2b7fa0cf6939250905b808210610f98575090915081016020016108d6610f43565b919260018160209254838588010152019101909291610f80565b60ff191660208086019190915291151560051b840190910191506108d69050610f43565b3461025e57604036600319011261025e57610fef61269b565b600435600052600b60205260406000209060018060a01b0316600052602052602060ff604060002054166040519015158152f35b3461025e57604036600319011261025e576004356001600160401b03811161025e57611053903690600401612841565b6024356001600160401b03811161025e57611072903690600401612841565b9161107b6133ce565b611083613412565b8015611b33578215611afe5733600090815260008051602061390b833981519152602052604090205460ff1615908180611af3575b611a15575b6001600e54019283600e55602094604051966110d98789612742565b6000885233156119d257600086815260026020526040902054611108906001600160a01b031615155b1561389e565b60095486600052600a885280604060002055600160401b8110156119bc578661113a8260016111539401600955612a7b565b90919082549060031b91821b91600019901b1916179055565b6111f261096a60009961116533612b1e565b338c5260078b5260408c20818d528b528960408d2055898c5260088b5260408c20556111a96111028a600052600260205260018060a01b0360406000205416151590565b33808c5260038b526040808d20805460010190558a8d5260028c528c2080546001600160a01b0319168217905589908c6000805160206138eb8339815191528180a48833613538565b6060936040516112028682612742565b602a8152888101601f1987013682378151156119a857603081538151600110156119a857607860218301538a5b60148110611875575060405180918b820193683d913730b6b2911d1160b91b855287896029850137858884016a11161134b6b0b3b2911d1160a91b60298201528189603483013701602901906c11161131b932b0ba37b9111d1160991b600b830152519182601883016112a1926126c0565b01600b0161227d60f01b600d82015203600d01601d19810182526002016112c89082612742565b6040519182918b83017f646174613a6170706c69636174696f6e2f6a736f6e3b757466382c00000000009052519081603b8401611304926126c0565b810103603b01601f198101825261131b9082612742565b6000888152600260205260409020546001600160a01b03161561181957878a526006895260408a20908051906001600160401b0382116116385781906113618454612708565b601f81116117c8575b508b908d601f84116001146117645792611759575b50508160011b916000199060031b1c19161790555b7ff8e1a15aba9398e019f0b49df1a4fde98ee17ae345cb5f6b5e2c27f5033e8ce788604051898152a1604051608081018181106001600160401b03821117611745576040523381528881014281526113ed368486612916565b604083019081526113ff368789612916565b83890152898c5260128b5260408c20835181546001600160a01b0319166001600160a01b039190911617815591516001830155518051906001600160401b038211611731579188918d938d6114576002850154612708565b601f81116116d7575b50508d94601f8311600114611657579394600394918361164c575b50508160011b9160001990851b1c19161760028201555b019101518051906001600160401b038211611638576114b18354612708565b601f81116115f5575b50999a989997988a988c916001601f85111461155e57928061153998969361152c96937fc8dcd659b7b5352bb61a9d417d06439b47331060cc22422e5715130cc40062649c9b999692611553575b50508160011b916000199060031b1c19161790555b60405196808852870191612bad565b918483038a860152612bad565b931560408201528033940390a36001600d55604051908152f35b015190508f80611508565b8481528d8120929190601f198516908f5b8282106115d95750509361153998969361152c9693600193837fc8dcd659b7b5352bb61a9d417d06439b47331060cc22422e5715130cc40062649e9d9b98106115c0575b505050811b01905561151d565b015160001960f88460031b161c191690558f80806115b3565b8484015186558f9d50600190950194938401939081019061156f565b838d528b8d20601f840160051c8101918d851061162e575b601f0160051c01905b81811061162357506114ba565b8d8155600101611616565b909150819061160d565b634e487b7160e01b8c52604160045260248cfd5b015190508f8061147b565b91929394908e601f1985169060028701855280852094905b8282106116b1575050916001939185600397969410611699575b505050811b016002820155611492565b015160001983871b60f8161c191690558f8080611689565b9192939596975093600182918786015181550195019301908f918d97969594939261166f565b919395819395506002870181522090601f850160051c8201928510611727575b918f959391601f8d96940160051c01905b818110611717578f9150611460565b9586558f958c9550600101611708565b90915081906116f7565b634e487b7160e01b8d52604160045260248dfd5b634e487b7160e01b8b52604160045260248bfd5b015190508c8061137f565b8581528d81209350601f198516908e5b8282106117b1575050908460019594939210611798575b505050811b019055611394565b015160001960f88460031b161c191690558c808061178b565b60018596829396860151815501950193018e611774565b909150838d528b8d20601f840160051c8101918d851061180f575b849392918f91601f0160051c0191905b82821061180157505061136a565b81558493506001018e6117f3565b90915081906117e3565b60405162461bcd60e51b8152600481018a9052602e60248201527f45524337323155524953746f726167653a2055524920736574206f66206e6f6e60448201526d32bc34b9ba32b73a103a37b5b2b760911b6064820152608490fd5b8060130360138111611994576001600160fd1b038116810361199457339060031b1c600f8160041c16906010821015611980578260011b908382046002148415171561196c5781600201928360021161195757600f91906f181899199a1a9b1b9c1cb0b131b232b360811b901a6118ec8589613468565b53169060108210156119435760030180921161192f57600192916f181899199a1a9b1b9c1cb0b131b232b360811b90911a906119289086613468565b530161122f565b634e487b7160e01b8e52601160045260248efd5b634e487b7160e01b8f52603260045260248ffd5b50634e487b7160e01b8f52601160045260248ffd5b634e487b7160e01b8f52601160045260248ffd5b634e487b7160e01b8e52603260045260248efd5b634e487b7160e01b8d52601160045260248dfd5b634e487b7160e01b8b52603260045260248bfd5b634e487b7160e01b600052604160045260246000fd5b6064876040519062461bcd60e51b825280600483015260248201527f4552433732313a206d696e7420746f20746865207a65726f20616464726573736044820152fd5b600f546010546040516323b872dd60e01b81523360048201526001600160a01b03909216602483015260448201526020818060648101038160007f00000000000000000000000000000000000000000000000000000000000000006001600160a01b03165af19081156106f457600091611ad4575b506110bd5760405162461bcd60e51b815260206004820152601760248201527f4d696e7420666565207061796d656e74206661696c65640000000000000000006044820152606490fd5b611aed915060203d6020116106ed576106df8183612742565b86611a8a565b5060105415156110b8565b60405162461bcd60e51b815260206004820152600d60248201526c13985b59481c995c5d5a5c9959609a1b6044820152606490fd5b60405162461bcd60e51b815260206004820152600c60248201526b155492481c995c5d5a5c995960a21b6044820152606490fd5b3461025e57600036600319011261025e5760206040517fd16e204b8a42a15ab0ea6bb8ec1ecdfbe69f38074fc865323af19efe7d9573d98152f35b3461025e57600036600319011261025e57611bbb612da2565b611bc36133ce565b600160ff19600c541617600c557f62e78cea01bee320cd4e420270b5ea74000d11b0c9f74754ebdbfc544b05a2586020604051338152a1005b3461025e57602036600319011261025e576020611c1f611c1a612685565b612b1e565b604051908152f35b3461025e57602036600319011261025e576020611c45600435612af8565b6040516001600160a01b039091168152f35b3461025e57600036600319011261025e57600f546040516001600160a01b039091168152602090f35b3461025e57600036600319011261025e57602060ff600c54166040519015158152f35b3461025e57604036600319011261025e57602435600435611cc26133ce565b611ccb81612af8565b336001600160a01b0390911603611e50578115611e1757611ceb8161294d565b6001600160a01b031630148015611df3575b15611db55760405160608101908082106001600160401b038311176119bc57611d879160405233815260026020820185815260408301906001825285600052601360205260406000209360018060a01b039060018060a01b03905116166001600160601b0360a01b85541617845551600184015551151591019060ff801983541691151516179055565b6040519182527f50955776c5778c3b7d968d86d8c51fb6b29a7a74c20866b533268e209fc0834360203393a3005b60405162461bcd60e51b8152602060048201526016602482015275105c1c1c9bdd994818dbdb9d1c9858dd08199a5c9cdd60521b6044820152606490fd5b5033600090815260056020908152604080832030845290915290205460ff16611cfd565b60405162461bcd60e51b815260206004820152601160248201527005072696365206d757374206265203e203607c1b6044820152606490fd5b60405162461bcd60e51b81526020600482015260096024820152682737ba1037bbb732b960b91b6044820152606490fd5b3461025e57602036600319011261025e57600435600954811015611eb957611eaa602091612a7b565b90549060031b1c604051908152f35b60405162461bcd60e51b815260206004820152602c60248201527f455243373231456e756d657261626c653a20676c6f62616c20696e646578206f60448201526b7574206f6620626f756e647360a01b6064820152608490fd5b3461025e576108b561096a611f2736612807565b9060405192611f37602085612742565b6000845261095a610955843361302d565b3461025e57600036600319011261025e57611f61612da2565b600c5460ff811615611fa05760ff1916600c557f5db9ee0a495bf2e6ff9c91a7834c1ba4fdd244a5e8aa4e537bd38aeae4b073aa6020604051338152a1005b60405162461bcd60e51b815260206004820152601460248201527314185d5cd8589b194e881b9bdd081c185d5cd95960621b6044820152606490fd5b3461025e57604036600319011261025e57611ff561269b565b336001600160a01b03821603612011576108b590600435612efc565b60405162461bcd60e51b815260206004820152602f60248201527f416363657373436f6e74726f6c3a2063616e206f6e6c792072656e6f756e636560448201526e103937b632b9903337b91039b2b63360891b6064820152608490fd5b3461025e57604036600319011261025e576020611c1f61208c612685565b602435906129ed565b3461025e57604036600319011261025e576004356120b161269b565b906120cd6108ab82600052600b60205260016040600020015490565b80600052600b602052604060002060018060a01b03831660005260205260ff60406000205416156120fa57005b6000818152600b602090815260408083206001600160a01b0395909516808452949091528120805460ff19166001179055339291907f2f8788117e7eff1d82e926ec794901d17c78024a50270940304540a733656f0d9080a4005b3461025e57602036600319011261025e576020611c1f600435600052600b60205260016040600020015490565b3461025e576108b561219336612807565b916121a1610955843361302d565b613100565b3461025e57600036600319011261025e576020601154604051908152f35b3461025e57602036600319011261025e576004356000526012602052604060002060018060a01b03815416610486600183015492612232612213600361220c60028501612763565b9301612763565b91604051958695865260208601526080604086015260808501906126e3565b9083820360608501526126e3565b3461025e57600036600319011261025e576020600954604051908152f35b3461025e57600036600319011261025e576020601054604051908152f35b3461025e57602036600319011261025e57600435612298612ca8565b6103e881116122d2576020817f45610d581145924dd7090a5017e5f2b1d6f42213bb2e95707ff86846bbfcb1ca92601155604051908152a1005b60405162461bcd60e51b81526020600482015260076024820152664d61782031302560c81b6044820152606490fd5b3461025e57604036600319011261025e5761231a612685565b602435906001600160a01b0361232f83612af8565b6001600160a01b03909216911681811461243b57803314908115612416575b50156123ab57600082815260046020526040902080546001600160a01b031916821790556001600160a01b0361238383612af8565b167f8c5be1e5ebec7d5bd14f71427d1e84f3dd0314c0f7b2291e5b200ac8c7c3b925600080a4005b60405162461bcd60e51b815260206004820152603d60248201527f4552433732313a20617070726f76652063616c6c6572206973206e6f7420746f60448201527f6b656e206f776e6572206f7220617070726f76656420666f7220616c6c0000006064820152608490fd5b600090815260056020908152604080832033845290915290205460ff1690508361234e565b60405162461bcd60e51b815260206004820152602160248201527f4552433732313a20617070726f76616c20746f2063757272656e74206f776e656044820152603960f91b6064820152608490fd5b3461025e57602036600319011261025e576020611c4560043561294d565b3461025e57600036600319011261025e57604051600080546124c981612708565b8084529060018116908115610fb257506001146124f057610486836108d681850382612742565b60008080527f290decd9548b62a8d60345a988386fc84ba6bc95484008f6362f93160ef3e563939250905b808210612533575090915081016020016108d6610f43565b91926001816020925483858801015201910190929161251b565b3461025e57604036600319011261025e57612566612685565b7ff298082733890bb1d40c8a212d0d625c6f108630873a7b701117666ed60d7a1e60206125916126b1565b9261259a612ca8565b83156125be576125a981612f82565b60405193151584526001600160a01b031692a2005b6125c781612e55565b6125a9565b3461025e57602036600319011261025e576004359063ffffffff60e01b821680920361025e57602091637965db0b60e01b811490811561260e575b5015158152f35b63780e9d6360e01b811491508115612628575b5083612607565b632483248360e11b811491508115612642575b5083612621565b6380ac58cd60e01b811491508115612674575b8115612663575b508361263b565b6301ffc9a760e01b1490508361265c565b635b5e139f60e01b81149150612655565b600435906001600160a01b038216820361025e57565b602435906001600160a01b038216820361025e57565b60243590811515820361025e57565b60005b8381106126d35750506000910152565b81810151838201526020016126c3565b906020916126fc815180928185528580860191016126c0565b601f01601f1916010190565b90600182811c92168015612738575b602083101461272257565b634e487b7160e01b600052602260045260246000fd5b91607f1691612717565b90601f801991011681019081106001600160401b038211176119bc57604052565b906040519182600082549261277784612708565b80845293600181169081156127e5575060011461279e575b5061279c92500383612742565b565b90506000929192526020600020906000915b8183106127c957505090602061279c928201013861278f565b60209193508060019154838589010152019101909184926127b0565b90506020925061279c94915060ff191682840152151560051b8201013861278f565b606090600319011261025e576004356001600160a01b038116810361025e57906024356001600160a01b038116810361025e579060443590565b9181601f8401121561025e578235916001600160401b03831161025e576020838186019501011161025e57565b906020808351928381520192019060005b81811061288c5750505090565b825184526020938401939092019160010161287f565b9080602083519182815201916020808360051b8301019401926000915b8383106128ce57505050505090565b90919293946020806128ec600193601f1986820301875289516126e3565b970193019301919392906128bf565b6001600160401b0381116119bc57601f01601f191660200190565b929192612922826128fb565b916129306040519384612742565b82948184528183011161025e578281602093846000960137010152565b600081815260026020526040902054612970906001600160a01b03161515612aac565b6000908152600460205260409020546001600160a01b031690565b1561299257565b60405162461bcd60e51b815260206004820152602d60248201527f4552433732313a2063616c6c6572206973206e6f7420746f6b656e206f776e6560448201526c1c881bdc88185c1c1c9bdd9959609a1b6064820152608490fd5b6129f681612b1e565b821015612a225760018060a01b0316600052600760205260406000209060005260205260406000205490565b60405162461bcd60e51b815260206004820152602b60248201527f455243373231456e756d657261626c653a206f776e657220696e646578206f7560448201526a74206f6620626f756e647360a81b6064820152608490fd5b600954811015612a9657600960005260206000200190600090565b634e487b7160e01b600052603260045260246000fd5b15612ab357565b60405162461bcd60e51b815260206004820152601860248201527f4552433732313a20696e76616c696420746f6b656e20494400000000000000006044820152606490fd5b6000908152600260205260409020546001600160a01b0316612b1b811515612aac565b90565b6001600160a01b03168015612b3e57600052600360205260406000205490565b60405162461bcd60e51b815260206004820152602960248201527f4552433732313a2061646472657373207a65726f206973206e6f7420612076616044820152683634b21037bbb732b960b91b6064820152608490fd5b9081602091031261025e5751801515810361025e5790565b908060209392818452848401376000828201840152601f01601f1916010190565b60001981146107b15760010190565b6001600160401b0381116119bc5760051b60200190565b90612bfe82612bdd565b612c0b6040519182612742565b8281528092612c1c601f1991612bdd565b0190602036910137565b90612c3082612bdd565b612c3d6040519182612742565b8281528092612c4e601f1991612bdd565b019060005b828110612c5f57505050565b806060602080938501015201612c53565b8051821015612a965760209160051b010190565b9190811015612a965760051b0190565b356001600160a01b038116810361025e5790565b3360009081527fdf7de25b7f1fd6d0b5205f0e18f1f35bd7b8d84cce336588d184533ce43a6f76602052604090205460ff1615612ce157565b612d9e612ced336136b2565b612d7e6011612cfc60006137f2565b9260376040519485927f416363657373436f6e74726f6c3a206163636f756e74200000000000000000006020850152612d3e81518092602086880191016126c0565b83017001034b99036b4b9b9b4b733903937b6329607d1b83820152612d6d8251809360206048850191016126c0565b01010301601f198101835282612742565b60405162461bcd60e51b81526020600482015291829160248301906126e3565b0390fd5b3360009081527f7aabb41b9887dc0093c744cd74ad704cf0e605a10880518010fc739828f23c45602052604090205460ff1615612ddb57565b612d9e612de7336136b2565b612d7e6011612cfc7f65d7a28e3265b37a6474929f336521b332c1681b933f6cb9f3376673440d862a6137f2565b6000818152600b6020908152604080832033845290915290205460ff1615612e3a5750565b612d9e90612d7e6011612cfc612e4f336136b2565b936137f2565b6001600160a01b038116600090815260008051602061390b833981519152602052604090205460ff16612e855750565b6001600160a01b0316600081815260008051602061390b83398151915260205260408120805460ff191690553391907fd16e204b8a42a15ab0ea6bb8ec1ecdfbe69f38074fc865323af19efe7d9573d9907ff6391f5c32d9c69d2a47ea670b442974b53935d1edc7fd64eb21e047a839171b9080a4565b80600052600b602052604060002060018060a01b03831660005260205260ff60406000205416612f2a575050565b6000818152600b602090815260408083206001600160a01b0395909516808452949091528120805460ff19169055339291907ff6391f5c32d9c69d2a47ea670b442974b53935d1edc7fd64eb21e047a839171b9080a4565b6001600160a01b038116600090815260008051602061390b833981519152602052604090205460ff1615612fb35750565b6001600160a01b0316600081815260008051602061390b83398151915260205260408120805460ff191660011790553391907fd16e204b8a42a15ab0ea6bb8ec1ecdfbe69f38074fc865323af19efe7d9573d9907f2f8788117e7eff1d82e926ec794901d17c78024a50270940304540a733656f0d9080a4565b906001600160a01b0361303f82612af8565b6001600160a01b039093169216828114929190831561307f575b50821561306557505090565b9091506001600160a01b039061307a9061294d565b161490565b909250600052600560205260406000208160005260205260ff604060002054169138613059565b156130ad57565b60405162461bcd60e51b815260206004820152602560248201527f4552433732313a207472616e736665722066726f6d20696e636f72726563742060448201526437bbb732b960d91b6064820152608490fd5b61310983612af8565b6001600160a01b038083169291613122911683146130a6565b6001600160a01b03831692831561337d5782159182156132bc57506009549185600052600a60205282604060002055600160401b8310156119bc576131808661113a8560016000805160206138eb8339815191529701600955612a7b565b600091848603613288575b50158061326f575b613219575b6131b4836001600160a01b036131ad88612af8565b16146130a6565b8481526004602052604081206001600160601b0360a01b8154169055828152600360205260408120600019815401905583815260036020526040812060018154019055848152600260205260408120846001600160601b0360a01b82541617905580a4565b848152601360208181526040808420600201805460ff191690558784529190528120546001600160a01b0316857f8e51b30707579d5dafbd56c2b27a7d382dd32fce8afa83687e99daf0ee47f8af8380a3613198565b50848152601360205260ff600260408320015416613193565b61329190612b1e565b858352600760205260408320818452602052866040842055868352600860205260408320553861318b565b8484036132da575b506000805160206138eb83398151915291613180565b6132e390612b1e565b6000198101929083116107b1576000805160206138eb8339815191529286600052600860205260406000205481810361334a575b508660005260086020526000604081205584600052600760205260406000209060005260205260006040812055916132c4565b60008681526007602090815260408083208584528252808320548484528184208190558352600890915290205538613317565b60405162461bcd60e51b8152602060048201526024808201527f4552433732313a207472616e7366657220746f20746865207a65726f206164646044820152637265737360e01b6064820152608490fd5b60ff600c54166133da57565b60405162461bcd60e51b815260206004820152601060248201526f14185d5cd8589b194e881c185d5cd95960821b6044820152606490fd5b6002600d5414613423576002600d55565b60405162461bcd60e51b815260206004820152601f60248201527f5265656e7472616e637947756172643a207265656e7472616e742063616c6c006044820152606490fd5b908151811015612a96570160200190565b60809060208152603260208201527f4552433732313a207472616e7366657220746f206e6f6e20455243373231526560408201527131b2b4bb32b91034b6b83632b6b2b73a32b960711b60608201520190565b156134d357565b60405162461bcd60e51b815280612d9e60048201613479565b60008181526002602052604090205461350f906001600160a01b03161515612aac565b60005260066020526135246040600020612763565b6000604051613534602082612742565b5290565b91823b156136515761357e926020926000604051809681958294630a85bd0160e11b845233600485015284602485015260448401526080606484015260848301906126e3565b03926001600160a01b03165af18091600091613607575b50906135f1573d156135ea573d6135ab816128fb565b906135b96040519283612742565b81523d6000602083013e5b805190816135e55760405162461bcd60e51b815280612d9e60048201613479565b602001fd5b60606135c4565b6001600160e01b031916630a85bd0160e11b1490565b6020813d602011613649575b8161362060209383612742565b810103126136455751906001600160e01b031982168203613642575038613595565b80fd5b5080fd5b3d9150613613565b505050600190565b919290803b156136a95761357e93600060209460405196879586948593630a85bd0160e11b855233600486015260018060a01b0316602485015260448401526080606484015260848301906126e3565b50505050600190565b6000906136bf602a6128fb565b916136cd6040519384612742565b602a83526136db602a6128fb565b6020840190601f19013682378351156137de57603090538251600110156137ca576078602184015350602960005b6001821161375e57505061371a5790565b606460405162461bcd60e51b815260206004820152602060248201527f537472696e67733a20686578206c656e67746820696e73756666696369656e746044820152fd5b9091600f811660108110156137b6576f181899199a1a9b1b9c1cb0b131b232b360811b901a61378d8486613468565b5360041c9180156137a2576000190190613709565b634e487b7160e01b82526011600452602482fd5b634e487b7160e01b83526032600452602483fd5b634e487b7160e01b81526032600452602490fd5b634e487b7160e01b82526032600452602482fd5b6000906137ff60426128fb565b9161380d6040519384612742565b6042835261381b60426128fb565b6020840190601f19013682378351156137de57603090538251600110156137ca576078602184015350604160005b6001821161385a57505061371a5790565b9091600f811660108110156137b6576f181899199a1a9b1b9c1cb0b131b232b360811b901a6138898486613468565b5360041c9180156137a2576000190190613849565b156138a557565b60405162461bcd60e51b815260206004820152601c60248201527f4552433732313a20746f6b656e20616c7265616479206d696e746564000000006044820152606490fdfeddf252ad1be2c89b69c2b068fc378daa952ba7f163c4a11628f55a4df523b3efbc5b90746d7cdf67dc242e364dd313b001bbdfedef9ab30ecf62f914a88e6863a264697066735822122004ee9f780e7112d5da6c5b4f9a7be26462b52c0c9fb08428f4441a05780f142464736f6c634300081c00332f8788117e7eff1d82e926ec794901d17c78024a50270940304540a733656f0ddf7de25b7f1fd6d0b5205f0e18f1f35bd7b8d84cce336588d184533ce43a6f76",
  "linkReferences": {},
  "deployedLinkReferences": {}
}