{
  "_format": "hh-sol-artifact-1",
  "contractName": "IIITPToken",
  "sourceName": "contracts/IIITPToken.sol",
  "abi": [
    {
      "inputs": [
        {
          "internalType": "address",
          "name": "treasury",
          "type": "address"
        }
      ],
      "stateMutability": "nonpayable",
      "type": "constructor"
    },
    {
      "anonymous": false,
      "inputs": [
        {
          "indexed": true,
          "internalType": "address",
          "name": "owner",
          "type": "address"
        },
        {
          "indexed": true,
          "internalType": "address",
          "name": "spender",
          "type": "address"
        },
        {
          "indexed": false,
          "internalType": "uint256",
          "name": "value",
          "type": "uint256"
        }
      ],
      "name": "Approval",
      "type": "event"
    },
    {
      "anonymous": false,
      "inputs": [
        {
          "indexed": false,
          "internalType": "address",
          "name": "account",
          "type": "address"
        }
      ],
      "name": "Paused",
      "type": "event"
    },
    {
      "anonymous": false,
      "inputs": [
        {
          "indexed": true,
          "internalType": "bytes32",
          "name": "role",
          "type": "bytes32"
        },
        {
          "indexed": true,
          "internalType": "bytes32",
          "name": "previousAdminRole",
          "type": "bytes32"
        },
        {
          "indexed": true,
          "internalType": "bytes32",
          "name": "newAdminRole",
          "type": "bytes32"
        }
      ],
      "name": "RoleAdminChanged",
      "type": "event"
    },
    {
      "anonymous": false,
      "inputs": [
        {
          "indexed": true,
          "internalType": "bytes32",
          "name": "role",
          "type": "bytes32"
        },
        {
          "indexed": true,
          "internalType": "address",
          "name": "account",
          "type": "address"
        },
        {
          "indexed": true,
          "internalType": "address",
          "name": "sender",
          "type": "address"
        }
      ],
      "name": "RoleGranted",
      "type": "event"
    },
    {
      "anonymous": false,
      "inputs": [
        {
          "indexed": true,
          "internalType": "bytes32",
          "name": "role",
          "type": "bytes32"
        },
        {
          "indexed": true,
          "internalType": "address",
          "name": "account",
          "type": "address"
        }
      ],
      "name": "RoleGrantedByAdmin",
      "type": "event"
    },
    {
      "anonymous": false,
      "inputs": [
        {
          "indexed": true,
          "internalType": "bytes32",
          "name": "role",
          "type": "bytes32"
        },
        {
          "indexed": true,
          "internalType": "address",
          "name": "account",
          "type": "address"
        },
        {
          "indexed": true,
          "internalType": "address",
          "name": "sender",
          "type": "address"
        }
      ],
      "name": "RoleRevoked",
      "type": "event"
    },
    {
      "anonymous": false,
      "inputs": [
        {
          "indexed": false,
          "internalType": "uint256",
          "name": "id",
          "type": "uint256"
        }
      ],
      "name": "Snapshot",
      "type": "event"
    },
    {
      "anonymous": false,
      "inputs": [
        {
          "indexed": true,
          "internalType": "address",
          "name": "from",
          "type": "address"
        },
        {
          "indexed": true,
          "internalType": "address",
          "name": "to",
          "type": "address"
        },
        {
          "indexed": false,
          "internalType": "uint256",
          "name": "value",
          "type": "uint256"
        }
      ],
      "name": "Transfer",
      "type": "event"
    },
    {
      "anonymous": false,
      "inputs": [
        {
          "indexed": false,
          "internalType": "address",
          "name": "account",
          "type": "address"
        }
      ],
      "name": "Unpaused",
      "type": "event"
    },
    {
      "inputs": [],
      "name": "DEFAULT_ADMIN_ROLE",
      "outputs": [
        {
          "internalType": "bytes32",
          "name": "",
          "type": "bytes32"
        }
      ],
      "stateMutability": "view",
      "type": "function"
    },
    {
      "inputs": [],
      "name": "MAX_SUPPLY",
      "outputs": [
        {
          "internalType": "uint256",
          "name": "",
          "type": "uint256"
        }
      ],
      "stateMutability": "view",
      "type": "function"
    },
    {
      "inputs": [],
      "name": "MINTER_ROLE",
      "outputs": [
        {
          "internalType": "bytes32",
          "name": "",
          "type": "bytes32"
        }
      ],
      "stateMutability": "view",
      "type": "function"
    },
    {
      "inputs": [],
      "name": "PAUSER_ROLE",
      "outputs": [
        {
          "internalType": "bytes32",
          "name": "",
          "type": "bytes32"
        }
      ],
      "stateMutability": "view",
      "type": "function"
    },
    {
      "inputs": [],
      "name": "SNAPSHOT_ROLE",
      "outputs": [
        {
          "internalType": "bytes32",
          "name": "",
          "type": "bytes32"
        }
      ],
      "stateMutability": "view",
      "type": "function"
    },
    {
      "inputs": [
        {
          "internalType": "address",
          "name": "owner",
          "type": "address"
        },
        {
          "internalType": "address",
          "name": "spender",
          "type": "address"
        }
      ],
      "name": "allowance",
      "outputs": [
        {
          "internalType": "uint256",
          "name": "",
          "type": "uint256"
        }
      ],
      "stateMutability": "view",
      "type": "function"
    },
    {
      "inputs": [
        {
          "internalType": "address",
          "name": "spender",
          "type": "address"
        },
        {
          "internalType": "uint256",
          "name": "amount",
          "type": "uint256"
        }
      ],
      "name": "approve",
      "outputs": [
        {
          "internalType": "bool",
          "name": "",
          "type": "bool"
        }
      ],
      "stateMutability": "nonpayable",
      "type": "function"
    },
    {
      "inputs": [
        {
          "internalType": "address",
          "name": "account",
          "type": "address"
        }
      ],
      "name": "balanceOf",
      "outputs": [
        {
          "internalType": "uint256",
          "name": "",
          "type": "uint256"
        }
      ],
      "stateMutability": "view",
      "type": "function"
    },
    {
      "inputs": [
        {
          "internalType": "address",
          "name": "account",
          "type": "address"
        },
        {
          "internalType": "uint256",
          "name": "snapshotId",
          "type": "uint256"
        }
      ],
      "name": "balanceOfAt",
      "outputs": [
        {
          "internalType": "uint256",
          "name": "",
          "type": "uint256"
        }
      ],
      "stateMutability": "view",
      "type": "function"
    },
    {
      "inputs": [
        {
          "internalType": "uint256",
          "name": "amount",
          "type": "uint256"
        }
      ],
      "name": "burn",
      "outputs": [],
      "stateMutability": "nonpayable",
      "type": "function"
    },
    {
      "inputs": [
        {
          "internalType": "address",
          "name": "account",
          "type": "address"
        },
        {
          "internalType": "uint256",
          "name": "amount",
          "type": "uint256"
        }
      ],
      "name": "burnFrom",
      "outputs": [],
      "stateMutability": "nonpayable",
      "type": "function"
    },
    {
      "inputs": [],
      "name": "decimals",
      "outputs": [
        {
          "internalType": "uint8",
          "name": "",
          "type": "uint8"
        }
      ],
      "stateMutability": "view",
      "type": "function"
    },
    {
      "inputs": [
        {
          "internalType": "address",
          "name": "spender",
          "type": "address"
        },
        {
          "internalType": "uint256",
          "name": "subtractedValue",
          "type": "uint256"
        }
      ],
      "name": "decreaseAllowance",
      "outputs": [
        {
          "internalType": "bool",
          "name": "",
          "type": "bool"
        }
      ],
      "stateMutability": "nonpayable",
      "type": "function"
    },
    {
      "inputs": [
        {
          "internalType": "bytes32",
          "name": "role",
          "type": "bytes32"
        }
      ],
      "name": "getRoleAdmin",
      "outputs": [
        {
          "internalType": "bytes32",
          "name": "",
          "type": "bytes32"
        }
      ],
      "stateMutability": "view",
      "type": "function"
    },
    {
      "inputs": [
        {
          "internalType": "address",
          "name": "account",
          "type": "address"
        }
      ],
      "name": "grantMinter",
      "outputs": [],
      "stateMutability": "nonpayable",
      "type": "function"
    },
    {
      "inputs": [
        {
          "internalType": "bytes32",
          "name": "role",
          "type": "bytes32"
        },
        {
          "internalType": "address",
          "name": "account",
          "type": "address"
        }
      ],
      "name": "grantRole",
      "outputs": [],
      "stateMutability": "nonpayable",
      "type": "function"
    },
    {
      "inputs": [
        {
          "internalType": "address",
          "name": "account",
          "type": "address"
        }
      ],
      "name": "grantSnapshotter",
      "outputs": [],
      "stateMutability": "nonpayable",
      "type": "function"
    },
    {
      "inputs": [
        {
          "internalType": "bytes32",
          "name": "role",
          "type": "bytes32"
        },
        {
          "internalType": "address",
          "name": "account",
          "type": "address"
        }
      ],
      "name": "hasRole",
      "outputs": [
        {
          "internalType": "bool",
          "name": "",
          "type": "bool"
        }
      ],
      "stateMutability": "view",
      "type": "function"
    },
    {
      "inputs": [
        {
          "internalType": "address",
          "name": "spender",
          "type": "address"
        },
        {
          "internalType": "uint256",
          "name": "addedValue",
          "type": "uint256"
        }
      ],
      "name": "increaseAllowance",
      "outputs": [
        {
          "internalType": "bool",
          "name": "",
          "type": "bool"
        }
      ],
      "stateMutability": "nonpayable",
      "type": "function"
    },
    {
      "inputs": [
        {
          "internalType": "address",
          "name": "to",
          "type": "address"
        },
        {
          "internalType": "uint256",
          "name": "amount",
          "type": "uint256"
        }
      ],
      "name": "mint",
      "outputs": [],
      "stateMutability": "nonpayable",
      "type": "function"
    },
    {
      "inputs": [],
      "name": "name",
      "outputs": [
        {
          "internalType": "string",
          "name": "",
          "type": "string"
        }
      ],
      "stateMutability": "view",
      "type": "function"
    },
    {
      "inputs": [],
      "name": "pause",
      "outputs": [],
      "stateMutability": "nonpayable",
      "type": "function"
    },
    {
      "inputs": [],
      "name": "paused",
      "outputs": [
        {
          "internalType": "bool",
          "name": "",
          "type": "bool"
        }
      ],
      "stateMutability": "view",
      "type": "function"
    },
    {
      "inputs": [
        {
          "internalType": "bytes32",
          "name": "role",
          "type": "bytes32"
        },
        {
          "internalType": "address",
          "name": "account",
          "type": "address"
        }
      ],
      "name": "renounceRole",
      "outputs": [],
      "stateMutability": "nonpayable",
      "type": "function"
    },
    {
      "inputs": [
        {
          "internalType": "bytes32",
          "name": "role",
          "type": "bytes32"
        },
        {
          "internalType": "address",
          "name": "account",
          "type": "address"
        }
      ],
      "name": "revokeRole",
      "outputs": [],
      "stateMutability": "nonpayable",
      "type": "function"
    },
    {
      "inputs": [],
      "name": "snapshot",
      "outputs": [
        {
          "internalType": "uint256",
          "name": "",
          "type": "uint256"
        }
      ],
      "stateMutability": "nonpayable",
      "type": "function"
    },
    {
      "inputs": [
        {
          "internalType": "bytes4",
          "name": "interfaceId",
          "type": "bytes4"
        }
      ],
      "name": "supportsInterface",
      "outputs": [
        {
          "internalType": "bool",
          "name": "",
          "type": "bool"
        }
      ],
      "stateMutability": "view",
      "type": "function"
    },
    {
      "inputs": [],
      "name": "symbol",
      "outputs": [
        {
          "internalType": "string",
          "name": "",
          "type": "string"
        }
      ],
      "stateMutability": "view",
      "type": "function"
    },
    {
      "inputs": [],
      "name": "totalSupply",
      "outputs": [
        {
          "internalType": "uint256",
          "name": "",
          "type": "uint256"
        }
      ],
      "stateMutability": "view",
      "type": "function"
    },
    {
      "inputs": [
        {
          "internalType": "uint256",
          "name": "snapshotId",
          "type": "uint256"
        }
      ],
      "name": "totalSupplyAt",
      "outputs": [
        {
          "internalType": "uint256",
          "name": "",
          "type": "uint256"
        }
      ],
      "stateMutability": "view",
      "type": "function"
    },
    {
      "inputs": [
        {
          "internalType": "address",
          "name": "to",
          "type": "address"
        },
        {
          "internalType": "uint256",
          "name": "amount",
          "type": "uint256"
        }
      ],
      "name": "transfer",
      "outputs": [
        {
          "internalType": "bool",
          "name": "",
          "type": "bool"
        }
      ],
      "stateMutability": "nonpayable",
      "type": "function"
    },
    {
      "inputs": [
        {
          "internalType": "address",
          "name": "from",
          "type": "address"
        },
        {
          "internalType": "address",
          "name": "to",
          "type": "address"
        },
        {
          "internalType": "uint256",
          "name": "amount",
          "type": "uint256"
        }
      ],
      "name": "transferFrom",
      "outputs": [
        {
          "internalType": "bool",
          "name": "",
          "type": "bool"
        }
      ],
      "stateMutability": "nonpayable",
      "type": "function"
    },
    {
      "inputs": [],
      "name": "unpause",
      "outputs": [],
      "stateMutability": "nonpayable",
      "type": "function"
    }
  ],
  "bytecode": "0x608060405234610754576125796020813803918261001c81610759565b93849283398101031261075457516001600160a01b03811690819003610754576100466040610759565b90600a82526924a4a4aa282a37b5b2b760b11b60208301526100686040610759565b60048152630493354560e41b602082015282519091906001600160401b03811161065d57600354600181811c9116801561074a575b602082101461063d57601f81116106e5575b506020601f821160011461067e5781929394600092610673575b50508160011b916000199060031b1c1916176003555b81516001600160401b03811161065d57600454600181811c91168015610653575b602082101461063d57601f81116105d8575b50602092601f82116001146105735792819293600092610568575b50508160011b916000199060031b1c1916176004555b60ff19600a5416600a55801561052357336000908152600080516020612519833981519152602052604090205460ff16156104e3575b336000908152600080516020612559833981519152602052604090205460ff1615610481575b3360009081526000805160206124f9833981519152602052604090205460ff161561041f575b336000908152600080516020612539833981519152602052604090205460ff16156103bd575b600060ff600a5416610385578181526005602052604081208282528160205260408220546008548061021c8461081b565b10610367575b505050600254600854806102346107d6565b106102cb575b50506002546a084595161401484a00000081018091116102b75760025581815280602052604081206a084595161401484a00000081540190557fddf252ad1be2c89b69c2b068fc378daa952ba7f163c4a11628f55a4df523b3ef60206040516a084595161401484a0000008152a3604051611c9a908161083f8239f35b634e487b7160e01b82526011600452602482fd5b6006546801000000000000000081101561035357906102f582600161030e9401600655600661077e565b90919082549060031b91821b91600019901b1916179055565b6007546801000000000000000081101561033f57906102f58260016103389401600755600761077e565b388061023a565b634e487b7160e01b83526041600452602483fd5b634e487b7160e01b84526041600452602484fd5b8261037760019261037d956107ac565b016107ac565b388080610222565b60405162461bcd60e51b815260206004820152601060248201526f14185d5cd8589b194e881c185d5cd95960821b6044820152606490fd5b33600081815260008051602061253983398151915260205260408120805460ff1916600117905581907f5fdbd35e8da83ee755d5e62a539e5ed7f47126abede0b8b10f9ea43dc6eed07f906000805160206124d98339815191529080a46101eb565b3360008181526000805160206124f983398151915260205260408120805460ff1916600117905581907f65d7a28e3265b37a6474929f336521b332c1681b933f6cb9f3376673440d862a906000805160206124d98339815191529080a46101c5565b33600081815260008051602061255983398151915260205260408120805460ff1916600117905581907f9f2df0fed2c77648de5860a4cc508cd0818c85b8b8a1ab4ceeef8d981c8956a6906000805160206124d98339815191529080a461019f565b33600081815260008051602061251983398151915260205260408120805460ff1916600117905581906000805160206124d98339815191528180a4610179565b60405162461bcd60e51b815260206004820152601960248201527f4949495450546f6b656e3a207a65726f207472656173757279000000000000006044820152606490fd5b01519050388061012d565b601f198216936004600052806000209160005b8681106105c057508360019596106105a7575b505050811b01600455610143565b015160001960f88460031b161c19169055388080610599565b91926020600181928685015181550194019201610586565b60046000527f8a35acfbc15ff81a39ae7d344fd709f28e8600b4aa8c65c6b64bfe7fe36bd19b601f830160051c81019160208410610633575b601f0160051c01905b8181106106275750610112565b6000815560010161061a565b9091508190610611565b634e487b7160e01b600052602260045260246000fd5b90607f1690610100565b634e487b7160e01b600052604160045260246000fd5b0151905038806100c9565b601f198216906003600052806000209160005b8181106106cd575095836001959697106106b4575b505050811b016003556100df565b015160001960f88460031b161c191690553880806106a6565b9192602060018192868b015181550194019201610691565b60036000527fc2575a0e9e593c00f959f8c92f12db2869c3395a3b0502d05e2516446f71f85b601f830160051c81019160208410610740575b601f0160051c01905b81811061073457506100af565b60008155600101610727565b909150819061071e565b90607f169061009d565b600080fd5b6040519190601f01601f191682016001600160401b0381118382101761065d57604052565b80548210156107965760005260206000200190600090565b634e487b7160e01b600052603260045260246000fd5b908154916801000000000000000083101561065d57826102f59160016107d49501815561077e565b565b600654806107e45750600090565b6000198101908111610805576107fb90600661077e565b90549060031b1c90565b634e487b7160e01b600052601160045260246000fd5b805480610829575050600090565b6000198101908111610805576107fb9161077e56fe608080604052600436101561001357600080fd5b60003560e01c90816301ffc9a714610fa05750806306fdde0314610ee1578063095ea7b314610ebb57806315a4bcf014610d9c57806318160ddd14610d7e57806323b872dd14610d46578063248a9ca314610d19578063261707fa14610bfa5780632f2ff15d14610b3a578063313ce56714610b1e57806332cb6b0c14610af857806336568abe14610a665780633950935114610a145780633f4ba83a1461098057806340c10f19146107e457806342966c68146107c75780634ee2cd7e146107685780635c975abb146107455780637028e2cd1461071c57806370a08231146106e257806379cc6790146106b25780638456cb591461065857806391d148541461060b57806395d89b41146105035780639711715a146103b8578063981b24d01461037f578063a217fddf14610363578063a457c2d7146102bc578063a9059cbb1461028b578063d539139314610262578063d547741f1461021b578063dd62ed3e146101ca5763e63ab1e91461018a57600080fd5b346101c55760003660031901126101c55760206040517f65d7a28e3265b37a6474929f336521b332c1681b933f6cb9f3376673440d862a8152f35b600080fd5b346101c55760403660031901126101c5576101e3611042565b6101eb611058565b6001600160a01b039182166000908152600160209081526040808320949093168252928352819020549051908152f35b346101c55760403660031901126101c55761026060043561023a611058565b9061025b61025682600052600960205260016040600020015490565b611298565b611505565b005b346101c55760003660031901126101c5576020604051600080516020611c458339815191528152f35b346101c55760403660031901126101c5576102b16102a7611042565b6024359033611375565b602060405160018152f35b346101c55760403660031901126101c5576102d5611042565b60243590336000526001602052604060002060018060a01b03821660005260205260406000205491808310610310576102b1920390336110c9565b60405162461bcd60e51b815260206004820152602560248201527f45524332303a2064656372656173656420616c6c6f77616e63652062656c6f77604482015264207a65726f60d81b6064820152608490fd5b346101c55760003660031901126101c557602060405160008152f35b346101c55760203660031901126101c55761039b6004356116db565b90156103ad576020905b604051908152f35b5060206002546103a5565b346101c55760003660031901126101c5573360009081527f74adca16b85aafc20345e70c697853a2b0939989b7cd0487e7aa3c40ce97d60c602052604090205460ff161561043d576020600160085401806008557f8030e83b04d87bef53480e26263266d6ca66863aa8506aca6f2559d18aa1cb6782604051838152a1604051908152f35b6104ff610449336118f0565b6104e76011610465600080516020611c25833981519152611a30565b9260376040519485927f416363657373436f6e74726f6c3a206163636f756e742000000000000000000060208501526104a78151809260208688019101610ff3565b83017001034b99036b4b9b9b4b733903937b6329607d1b838201526104d6825180936020604885019101610ff3565b01010301601f19810183528261106e565b60405162461bcd60e51b815291829160048301611016565b0390fd5b346101c55760003660031901126101c55760405160006004548060011c90600181168015610601575b6020831081146105ed578285529081156105c95750600114610569575b610565836105598185038261106e565b60405191829182611016565b0390f35b91905060046000527f8a35acfbc15ff81a39ae7d344fd709f28e8600b4aa8c65c6b64bfe7fe36bd19b916000905b8082106105af57509091508101602001610559610549565b919260018160209254838588010152019101909291610597565b60ff191660208086019190915291151560051b840190910191506105599050610549565b634e487b7160e01b84526022600452602484fd5b91607f169161052c565b346101c55760403660031901126101c557610624611058565b600435600052600960205260406000209060018060a01b0316600052602052602060ff604060002054166040519015158152f35b346101c55760003660031901126101c557610671611225565b61067961187f565b600160ff19600a541617600a557f62e78cea01bee320cd4e420270b5ea74000d11b0c9f74754ebdbfc544b05a2586020604051338152a1005b346101c55760403660031901126101c5576102606106ce611042565b602435906106dd8233836112d8565b61158b565b346101c55760203660031901126101c5576001600160a01b03610703611042565b1660005260006020526020604060002054604051908152f35b346101c55760003660031901126101c5576020604051600080516020611c258339815191528152f35b346101c55760003660031901126101c557602060ff600a54166040519015158152f35b346101c55760403660031901126101c55760206001600160a01b0361078b611042565b1680600052600582526107a460406000206024356117a3565b91600091156107b7575050604051908152f35b60409250815280835220546103a5565b346101c55760203660031901126101c5576102606004353361158b565b346101c55760403660031901126101c5576107fd611042565b3360009081527fd5d09b8f3165a736d25b1a14611612ac91830c1b82012b1c33b2dac7c90a06496020526040902054602435919060ff1615610958576a52b7d2dcc80cd2e4000000610851836002546110a6565b11610913576001600160a01b0381169182156108ce5760207fddf252ad1be2c89b69c2b068fc378daa952ba7f163c4a11628f55a4df523b3ef9161089e60009461089961187f565b611adc565b6108a6611b2d565b6108b2816002546110a6565b60025584845283825260408420818154019055604051908152a3005b60405162461bcd60e51b815260206004820152601f60248201527f45524332303a206d696e7420746f20746865207a65726f2061646472657373006044820152606490fd5b60405162461bcd60e51b815260206004820152601860248201527f4949495450546f6b656e3a2063617020657863656564656400000000000000006044820152606490fd5b6104ff610964336118f0565b6104e76011610465600080516020611c45833981519152611a30565b346101c55760003660031901126101c557610999611225565b600a5460ff8116156109d85760ff1916600a557f5db9ee0a495bf2e6ff9c91a7834c1ba4fdd244a5e8aa4e537bd38aeae4b073aa6020604051338152a1005b60405162461bcd60e51b815260206004820152601460248201527314185d5cd8589b194e881b9bdd081c185d5cd95960621b6044820152606490fd5b346101c55760403660031901126101c5576102b1610a30611042565b336000526001602052604060002060018060a01b038216600052602052610a5f604060002060243590546110a6565b90336110c9565b346101c55760403660031901126101c557610a7f611058565b336001600160a01b03821603610a9b5761026090600435611505565b60405162461bcd60e51b815260206004820152602f60248201527f416363657373436f6e74726f6c3a2063616e206f6e6c792072656e6f756e636560448201526e103937b632b9903337b91039b2b63360891b6064820152608490fd5b346101c55760003660031901126101c55760206040516a52b7d2dcc80cd2e40000008152f35b346101c55760003660031901126101c557602060405160128152f35b346101c55760403660031901126101c557600435610b56611058565b90610b7261025682600052600960205260016040600020015490565b806000526009602052604060002060018060a01b03831660005260205260ff6040600020541615610b9f57005b60008181526009602090815260408083206001600160a01b0395909516808452949091528120805460ff19166001179055339291907f2f8788117e7eff1d82e926ec794901d17c78024a50270940304540a733656f0d9080a4005b346101c55760203660031901126101c557610c13611042565b610c1b6111d1565b600080516020611c4583398151915260005260096020527fd5d09b8f3165a736d25b1a14611612ac91830c1b82012b1c33b2dac7c90a064a54610c5d90611298565b6001600160a01b03811660009081527fd5d09b8f3165a736d25b1a14611612ac91830c1b82012b1c33b2dac7c90a0649602052604090205460ff1615610c9f57005b6001600160a01b031660008181527fd5d09b8f3165a736d25b1a14611612ac91830c1b82012b1c33b2dac7c90a064960205260408120805460ff19166001179055339190600080516020611c45833981519152907f2f8788117e7eff1d82e926ec794901d17c78024a50270940304540a733656f0d9080a4005b346101c55760203660031901126101c55760206103a5600435600052600960205260016040600020015490565b346101c55760603660031901126101c5576102b1610d62611042565b610d6a611058565b60443591610d798333836112d8565b611375565b346101c55760003660031901126101c5576020600254604051908152f35b346101c55760203660031901126101c557610db5611042565b610dbd6111d1565b600080516020611c2583398151915260005260096020527f74adca16b85aafc20345e70c697853a2b0939989b7cd0487e7aa3c40ce97d60d54610dff90611298565b6001600160a01b03811660009081527f74adca16b85aafc20345e70c697853a2b0939989b7cd0487e7aa3c40ce97d60c602052604090205460ff1615610e4157005b6001600160a01b031660008181527f74adca16b85aafc20345e70c697853a2b0939989b7cd0487e7aa3c40ce97d60c60205260408120805460ff19166001179055339190600080516020611c25833981519152907f2f8788117e7eff1d82e926ec794901d17c78024a50270940304540a733656f0d9080a4005b346101c55760403660031901126101c5576102b1610ed7611042565b60243590336110c9565b346101c55760003660031901126101c55760405160006003548060011c90600181168015610f96575b6020831081146105ed578285529081156105c95750600114610f3657610565836105598185038261106e565b91905060036000527fc2575a0e9e593c00f959f8c92f12db2869c3395a3b0502d05e2516446f71f85b916000905b808210610f7c57509091508101602001610559610549565b919260018160209254838588010152019101909291610f64565b91607f1691610f0a565b346101c55760203660031901126101c5576004359063ffffffff60e01b82168092036101c557602091637965db0b60e01b8114908115610fe2575b5015158152f35b6301ffc9a760e01b14905083610fdb565b60005b8381106110065750506000910152565b8181015183820152602001610ff6565b604091602082526110368151809281602086015260208686019101610ff3565b601f01601f1916010190565b600435906001600160a01b03821682036101c557565b602435906001600160a01b03821682036101c557565b90601f8019910116810190811067ffffffffffffffff82111761109057604052565b634e487b7160e01b600052604160045260246000fd5b919082018092116110b357565b634e487b7160e01b600052601160045260246000fd5b6001600160a01b0316908115611180576001600160a01b03169182156111305760207f8c5be1e5ebec7d5bd14f71427d1e84f3dd0314c0f7b2291e5b200ac8c7c3b925918360005260018252604060002085600052825280604060002055604051908152a3565b60405162461bcd60e51b815260206004820152602260248201527f45524332303a20617070726f766520746f20746865207a65726f206164647265604482015261737360f01b6064820152608490fd5b60405162461bcd60e51b8152602060048201526024808201527f45524332303a20617070726f76652066726f6d20746865207a65726f206164646044820152637265737360e01b6064820152608490fd5b3360009081527fec8156718a8372b1db44bb411437d0870f3e3790d4a08526d024ce1b0b668f6b602052604090205460ff161561120a57565b6104ff611216336118f0565b6104e760116104656000611a30565b3360009081527f84574a31e2f767388bfa57bc81ff2590df95d3022c04c363cca3e37ee9608631602052604090205460ff161561125e57565b6104ff61126a336118f0565b6104e760116104657f65d7a28e3265b37a6474929f336521b332c1681b933f6cb9f3376673440d862a611a30565b600081815260096020908152604080832033845290915290205460ff16156112bd5750565b6104ff906104e760116104656112d2336118f0565b93611a30565b9060018060a01b0382166000526001602052604060002060018060a01b038216600052602052604060002054926000198403611315575b50505050565b808410611330576113279303916110c9565b3880808061130f565b60405162461bcd60e51b815260206004820152601d60248201527f45524332303a20696e73756666696369656e7420616c6c6f77616e63650000006044820152606490fd5b90916001600160a01b0382169182156114b2576001600160a01b038416938415611461576113b0906113a561187f565b610899600093611adc565b8281528060205260408120549180831061140d57604082827fddf252ad1be2c89b69c2b068fc378daa952ba7f163c4a11628f55a4df523b3ef958760209652828652038282205586815280845220818154019055604051908152a3565b60405162461bcd60e51b815260206004820152602660248201527f45524332303a207472616e7366657220616d6f756e7420657863656564732062604482015265616c616e636560d01b6064820152608490fd5b60405162461bcd60e51b815260206004820152602360248201527f45524332303a207472616e7366657220746f20746865207a65726f206164647260448201526265737360e81b6064820152608490fd5b60405162461bcd60e51b815260206004820152602560248201527f45524332303a207472616e736665722066726f6d20746865207a65726f206164604482015264647265737360d81b6064820152608490fd5b806000526009602052604060002060018060a01b03831660005260205260ff60406000205416611533575050565b60008181526009602090815260408083206001600160a01b0395909516808452949091528120805460ff19169055339291907ff6391f5c32d9c69d2a47ea670b442974b53935d1edc7fd64eb21e047a839171b9080a4565b906001600160a01b03821690811561165e576115a561187f565b6115b0600093611adc565b6115b8611b2d565b81835282602052604083205481811061160e57817fddf252ad1be2c89b69c2b068fc378daa952ba7f163c4a11628f55a4df523b3ef926020928587528684520360408620558060025403600255604051908152a3565b60405162461bcd60e51b815260206004820152602260248201527f45524332303a206275726e20616d6f756e7420657863656564732062616c616e604482015261636560f01b6064820152608490fd5b60405162461bcd60e51b815260206004820152602160248201527f45524332303a206275726e2066726f6d20746865207a65726f206164647265736044820152607360f81b6064820152608490fd5b80548210156116c55760005260206000200190600090565b634e487b7160e01b600052603260045260246000fd5b8015611765576008548111611720576116f59060066117da565b60065481036117075750600090600090565b6117129060076116ad565b90549060031b1c9060019190565b60405162461bcd60e51b815260206004820152601d60248201527f4552433230536e617073686f743a206e6f6e6578697374656e742069640000006044820152606490fd5b60405162461bcd60e51b815260206004820152601660248201527504552433230536e617073686f743a20696420697320360541b6044820152606490fd5b8015611765576008548111611720576117bc90826117da565b815481036117ce575050600090600090565b600161171292016116ad565b8054918215611877576000925b80841061183757508215159182611812575b50501561180f5760001981019081116110b35790565b90565b909150826000198101116110b3576000526000198260206000200101541438806117f9565b61184881851860011c8286166110a6565b90836000528282602060002001541160001461186457506117e7565b9350600181018091116110b357926117e7565b505050600090565b60ff600a541661188b57565b60405162461bcd60e51b815260206004820152601060248201526f14185d5cd8589b194e881c185d5cd95960821b6044820152606490fd5b67ffffffffffffffff811161109057601f01601f191660200190565b9081518110156116c5570160200190565b6000906118fd602a6118c3565b9161190b604051938461106e565b602a8352611919602a6118c3565b6020840190601f1901368237835115611a1c5760309053825160011015611a08576078602184015350602960005b6001821161199c5750506119585790565b606460405162461bcd60e51b815260206004820152602060248201527f537472696e67733a20686578206c656e67746820696e73756666696369656e746044820152fd5b9091600f811660108110156119f4576f181899199a1a9b1b9c1cb0b131b232b360811b901a6119cb84866118df565b5360041c9180156119e0576000190190611947565b634e487b7160e01b82526011600452602482fd5b634e487b7160e01b83526032600452602483fd5b634e487b7160e01b81526032600452602490fd5b634e487b7160e01b82526032600452602482fd5b600090611a3d60426118c3565b91611a4b604051938461106e565b60428352611a5960426118c3565b6020840190601f1901368237835115611a1c5760309053825160011015611a08576078602184015350604160005b60018211611a985750506119585790565b9091600f811660108110156119f4576f181899199a1a9b1b9c1cb0b131b232b360811b901a611ac784866118df565b5360041c9180156119e0576000190190611a87565b6001600160a01b03166000908152600560209081526040808320918390529091205460085480611b0b84611c01565b10611b1557505050565b82611b25600192611b2b95611bb5565b01611bb5565b565b60025460085480611b3c611bd2565b10611b45575050565b600654600160401b81101561109057806001611b66920160065560066116ad565b819291549060031b91821b91600019901b1916179055600754600160401b81101561109057806001611b9d920160075560076116ad565b819291549060031b91821b91600019901b1916179055565b8054600160401b81101561109057611b9d916001820181556116ad565b60065480611be05750600090565b60001981019081116110b357611bf79060066116ad565b90549060031b1c90565b805480611c0f575050600090565b60001981019081116110b357611bf7916116ad56fe5fdbd35e8da83ee755d5e62a539e5ed7f47126abede0b8b10f9ea43dc6eed07f9f2df0fed2c77648de5860a4cc508cd0818c85b8b8a1ab4ceeef8d981c8956a6a264697066735822122018037ce46b3f5f0dc06a34d28aa0a1129094cbd76869b2f7662d8eb6dddd455d64736f6c634300081c00332f8788117e7eff1d82e926ec794901d17c78024a50270940304540a733656f0d84574a31e2f767388bfa57bc81ff2590df95d3022c04c363cca3e37ee9608631ec8156718a8372b1db44bb411437d0870f3e3790d4a08526d024ce1b0b668f6b74adca16b85aafc20345e70c697853a2b0939989b7cd0487e7aa3c40ce97d60cd5d09b8f3165a736d25b1a14611612ac91830c1b82012b1c33b2dac7c90a0649",
  "linkReferences": {},
  "deployedLinkReferences": {}
}