{
  "_format": "hh-sol-artifact-1",
  "contractName": "IIITPLiquidityPool",
  "sourceName": "contracts/IIITPLiquidity.sol",
  "abi": [
    {
      "inputs": [
        {
          "internalType": "address",
          "name": "tokenAddress",
          "type": "address"
        },
        {
          "internalType": "address",
          "name": "_treasury",
          "type": "address"
        }
      ],
      "stateMutability": "nonpayable",
      "type": "constructor"
    },
    {
      "anonymous": false,
      "inputs": [
        {
          "indexed": true,
          "internalType": "address",
          "name": "owner",
          "type": "address"
        },
        {
          "indexed": true,
          "internalType": "address",
          "name": "spender",
          "type": "address"
        },
        {
          "indexed": false,
          "internalType": "uint256",
          "name": "value",
          "type": "uint256"
        }
      ],
      "name": "Approval",
      "type": "event"
    },
    {
      "anonymous": false,
      "inputs": [
        {
          "indexed": true,
          "internalType": "address",
          "name": "provider",
          "type": "address"
        },
        {
          "indexed": false,
          "internalType": "uint256",
          "name": "tokenAmount",
          "type": "uint256"
        },
        {
          "indexed": false,
          "internalType": "uint256",
          "name": "ethAmount",
          "type": "uint256"
        },
        {
          "indexed": false,
          "internalType": "uint256",
          "name": "lpMinted",
          "type": "uint256"
        }
      ],
      "name": "LiquidityAdded",
      "type": "event"
    },
    {
      "anonymous": false,
      "inputs": [
        {
          "indexed": true,
          "internalType": "address",
          "name": "provider",
          "type": "address"
        },
        {
          "indexed": false,
          "internalType": "uint256",
          "name": "tokenAmount",
          "type": "uint256"
        },
        {
          "indexed": false,
          "internalType": "uint256",
          "name": "ethAmount",
          "type": "uint256"
        },
        {
          "indexed": false,
          "internalType": "uint256",
          "name": "lpBurned",
          "type": "uint256"
        }
      ],
      "name": "LiquidityRemoved",
      "type": "event"
    },
    {
      "anonymous": false,
      "inputs": [
        {
          "indexed": true,
          "internalType": "address",
          "name": "previousOwner",
          "type": "address"
        },
        {
          "indexed": true,
          "internalType": "address",
          "name": "newOwner",
          "type": "address"
        }
      ],
      "name": "OwnershipTransferred",
      "type": "event"
    },
    {
      "anonymous": false,
      "inputs": [
        {
          "indexed": true,
          "internalType": "address",
          "name": "user",
          "type": "address"
        },
        {
          "indexed": false,
          "internalType": "uint256",
          "name": "ethIn",
          "type": "uint256"
        },
        {
          "indexed": false,
          "internalType": "uint256",
          "name": "tokenOut",
          "type": "uint256"
        }
      ],
      "name": "SwapETHForToken",
      "type": "event"
    },
    {
      "anonymous": false,
      "inputs": [
        {
          "indexed": true,
          "internalType": "address",
          "name": "user",
          "type": "address"
        },
        {
          "indexed": false,
          "internalType": "uint256",
          "name": "tokenIn",
          "type": "uint256"
        },
        {
          "indexed": false,
          "internalType": "uint256",
          "name": "ethOut",
          "type": "uint256"
        }
      ],
      "name": "SwapTokenForETH",
      "type": "event"
    },
    {
      "anonymous": false,
      "inputs": [
        {
          "indexed": true,
          "internalType": "address",
          "name": "from",
          "type": "address"
        },
        {
          "indexed": true,
          "internalType": "address",
          "name": "to",
          "type": "address"
        },
        {
          "indexed": false,
          "internalType": "uint256",
          "name": "value",
          "type": "uint256"
        }
      ],
      "name": "Transfer",
      "type": "event"
    },
    {
      "anonymous": false,
      "inputs": [
        {
          "indexed": false,
          "internalType": "address",
          "name": "newTreasury",
          "type": "address"
        }
      ],
      "name": "TreasuryUpdated",
      "type": "event"
    },
    {
      "inputs": [],
      "name": "BPS",
      "outputs": [
        {
          "internalType": "uint256",
          "name": "",
          "type": "uint256"
        }
      ],
      "stateMutability": "view",
      "type": "function"
    },
    {
      "inputs": [],
      "name": "FEE_BPS",
      "outputs": [
        {
          "internalType": "uint256",
          "name": "",
          "type": "uint256"
        }
      ],
      "stateMutability": "view",
      "type": "function"
    },
    {
      "inputs": [],
      "name": "PROTOCOL_FEE_BPS",
      "outputs": [
        {
          "internalType": "uint256",
          "name": "",
          "type": "uint256"
        }
      ],
      "stateMutability": "view",
      "type": "function"
    },
    {
      "inputs": [
        {
          "internalType": "uint256",
          "name": "tokenAmount",
          "type": "uint256"
        }
      ],
      "name": "addLiquidity",
      "outputs": [],
      "stateMutability": "payable",
      "type": "function"
    },
    {
      "inputs": [
        {
          "internalType": "address",
          "name": "owner",
          "type": "address"
        },
        {
          "internalType": "address",
          "name": "spender",
          "type": "address"
        }
      ],
      "name": "allowance",
      "outputs": [
        {
          "internalType": "uint256",
          "name": "",
          "type": "uint256"
        }
      ],
      "stateMutability": "view",
      "type": "function"
    },
    {
      "inputs": [
        {
          "internalType": "address",
          "name": "spender",
          "type": "address"
        },
        {
          "internalType": "uint256",
          "name": "amount",
          "type": "uint256"
        }
      ],
      "name": "approve",
      "outputs": [
        {
          "internalType": "bool",
          "name": "",
          "type": "bool"
        }
      ],
      "stateMutability": "nonpayable",
      "type": "function"
    },
    {
      "inputs": [
        {
          "internalType": "address",
          "name": "account",
          "type": "address"
        }
      ],
      "name": "balanceOf",
      "outputs": [
        {
          "internalType": "uint256",
          "name": "",
          "type": "uint256"
        }
      ],
      "stateMutability": "view",
      "type": "function"
    },
    {
      "inputs": [],
      "name": "decimals",
      "outputs": [
        {
          "internalType": "uint8",
          "name": "",
          "type": "uint8"
        }
      ],
      "stateMutability": "view",
      "type": "function"
    },
    {
      "inputs": [
        {
          "internalType": "address",
          "name": "spender",
          "type": "address"
        },
        {
          "internalType": "uint256",
          "name": "subtractedValue",
          "type": "uint256"
        }
      ],
      "name": "decreaseAllowance",
      "outputs": [
        {
          "internalType": "bool",
          "name": "",
          "type": "bool"
        }
      ],
      "stateMutability": "nonpayable",
      "type": "function"
    },
    {
      "inputs": [
        {
          "internalType": "uint256",
          "name": "ethIn",
          "type": "uint256"
        }
      ],
      "name": "getAmountOutETHForToken",
      "outputs": [
        {
          "internalType": "uint256",
          "name": "",
          "type": "uint256"
        }
      ],
      "stateMutability": "view",
      "type": "function"
    },
    {
      "inputs": [
        {
          "internalType": "uint256",
          "name": "tokenIn",
          "type": "uint256"
        }
      ],
      "name": "getAmountOutTokenForETH",
      "outputs": [
        {
          "internalType": "uint256",
          "name": "",
          "type": "uint256"
        }
      ],
      "stateMutability": "view",
      "type": "function"
    },
    {
      "inputs": [],
      "name": "getReserves",
      "outputs": [
        {
          "internalType": "uint256",
          "name": "_reserveToken",
          "type": "uint256"
        },
        {
          "internalType": "uint256",
          "name": "_reserveETH",
          "type": "uint256"
        }
      ],
      "stateMutability": "view",
      "type": "function"
    },
    {
      "inputs": [],
      "name": "getTokenPrice",
      "outputs": [
        {
          "internalType": "uint256",
          "name": "ethPerToken",
          "type": "uint256"
        }
      ],
      "stateMutability": "view",
      "type": "function"
    },
    {
      "inputs": [
        {
          "internalType": "address",
          "name": "spender",
          "type": "address"
        },
        {
          "internalType": "uint256",
          "name": "addedValue",
          "type": "uint256"
        }
      ],
      "name": "increaseAllowance",
      "outputs": [
        {
          "internalType": "bool",
          "name": "",
          "type": "bool"
        }
      ],
      "stateMutability": "nonpayable",
      "type": "function"
    },
    {
      "inputs": [],
      "name": "name",
      "outputs": [
        {
          "internalType": "string",
          "name": "",
          "type": "string"
        }
      ],
      "stateMutability": "view",
      "type": "function"
    },
    {
      "inputs": [],
      "name": "owner",
      "outputs": [
        {
          "internalType": "address",
          "name": "",
          "type": "address"
        }
      ],
      "stateMutability": "view",
      "type": "function"
    },
    {
      "inputs": [
        {
          "internalType": "uint256",
          "name": "lpAmount",
          "type": "uint256"
        }
      ],
      "name": "removeLiquidity",
      "outputs": [],
      "stateMutability": "nonpayable",
      "type": "function"
    },
    {
      "inputs": [],
      "name": "renounceOwnership",
      "outputs": [],
      "stateMutability": "nonpayable",
      "type": "function"
    },
    {
      "inputs": [],
      "name": "reserveETH",
      "outputs": [
        {
          "internalType": "uint256",
          "name": "",
          "type": "uint256"
        }
      ],
      "stateMutability": "view",
      "type": "function"
    },
    {
      "inputs": [],
      "name": "reserveToken",
      "outputs": [
        {
          "internalType": "uint256",
          "name": "",
          "type": "uint256"
        }
      ],
      "stateMutability": "view",
      "type": "function"
    },
    {
      "inputs": [
        {
          "internalType": "address",
          "name": "_treasury",
          "type": "address"
        }
      ],
      "name": "setTreasury",
      "outputs": [],
      "stateMutability": "nonpayable",
      "type": "function"
    },
    {
      "inputs": [
        {
          "internalType": "uint256",
          "name": "minTokenOut",
          "type": "uint256"
        }
      ],
      "name": "swapETHForToken",
      "outputs": [],
      "stateMutability": "payable",
      "type": "function"
    },
    {
      "inputs": [
        {
          "internalType": "uint256",
          "name": "tokenIn",
          "type": "uint256"
        },
        {
          "internalType": "uint256",
          "name": "minEthOut",
          "type": "uint256"
        }
      ],
      "name": "swapTokenForETH",
      "outputs": [],
      "stateMutability": "nonpayable",
      "type": "function"
    },
    {
      "inputs": [],
      "name": "symbol",
      "outputs": [
        {
          "internalType": "string",
          "name": "",
          "type": "string"
        }
      ],
      "stateMutability": "view",
      "type": "function"
    },
    {
      "inputs": [],
      "name": "token",
      "outputs": [
        {
          "internalType": "contract IIITPToken",
          "name": "",
          "type": "address"
        }
      ],
      "stateMutability": "view",
      "type": "function"
    },
    {
      "inputs": [],
      "name": "totalSupply",
      "outputs": [
        {
          "internalType": "uint256",
          "name": "",
          "type": "uint256"
        }
      ],
      "stateMutability": "view",
      "type": "function"
    },
    {
      "inputs": [
        {
          "internalType": "address",
          "name": "to",
          "type": "address"
        },
        {
          "internalType": "uint256",
          "name": "amount",
          "type": "uint256"
        }
      ],
      "name": "transfer",
      "outputs": [
        {
          "internalType": "bool",
          "name": "",
          "type": "bool"
        }
      ],
      "stateMutability": "nonpayable",
      "type": "function"
    },
    {
      "inputs": [
        {
          "internalType": "address",
          "name": "from",
          "type": "address"
        },
        {
          "internalType": "address",
          "name": "to",
          "type": "address"
        },
        {
          "internalType": "uint256",
          "name": "amount",
          "type": "uint256"
        }
      ],
      "name": "transferFrom",
      "outputs": [
        {
          "internalType": "bool",
          "name": "",
          "type": "bool"
        }
      ],
      "stateMutability": "nonpayable",
      "type": "function"
    },
    {
      "inputs": [
        {
          "internalType": "address",
          "name": "newOwner",
          "type": "address"
        }
      ],
      "name": "transferOwnership",
      "outputs": [],
      "stateMutability": "nonpayable",
      "type": "function"
    },
    {
      "inputs": [],
      "name": "treasury",
      "outputs": [
        {
          "internalType": "address",
          "name": "",
          "type": "address"
        }
      ],
      "stateMutability": "view",
      "type": "function"
    },
    {
      "stateMutability": "payable",
      "type": "receive"
    }
  ],
  "bytecode": "0x60a06040523461044957604051601f611e8e38819003918201601f19168301916001600160401b038311848410176103525780849260409485528339810103126104495761005860206100518361044e565b920161044e565b610060610462565b91610069610462565b83519092906001600160401b03811161035257600354600181811c9116801561043f575b602082101461033257601f81116103da575b50602094601f821160011461037357948192939495600092610368575b50508160011b916000199060031b1c1916176003555b82516001600160401b03811161035257600454600181811c91168015610348575b602082101461033257601f81116102cd575b506020601f8211600114610266578192939460009261025b575b50508160011b916000199060031b1c1916176004555b600160055560068054336001600160a01b0319821681179092556040519391906001600160a01b03167f8be0079c531659141344cd1fd0a4f28419497f9722a3daafe3b4186f6b6457e0600080a36001600160a01b031691821561022857506001600160a01b03169081156101ef57608052600780546001600160a01b0319169190911790556040516119f89081610496823960805181818161018a015281816105f501528181610a7f01528181610f4101526110e50152f35b60405162461bcd60e51b81526020600482015260116024820152704c503a207a65726f20747265617375727960781b6044820152606490fd5b62461bcd60e51b815260206004820152600e60248201526d26281d103d32b937903a37b5b2b760911b6044820152606490fd5b01519050388061011f565b601f198216906004600052806000209160005b8181106102b55750958360019596971061029c575b505050811b01600455610135565b015160001960f88460031b161c1916905538808061028e565b9192602060018192868b015181550194019201610279565b60046000527f8a35acfbc15ff81a39ae7d344fd709f28e8600b4aa8c65c6b64bfe7fe36bd19b601f830160051c81019160208410610328575b601f0160051c01905b81811061031c5750610105565b6000815560010161030f565b9091508190610306565b634e487b7160e01b600052602260045260246000fd5b90607f16906100f3565b634e487b7160e01b600052604160045260246000fd5b0151905038806100bc565b601f198216956003600052806000209160005b8881106103c2575083600195969798106103a9575b505050811b016003556100d2565b015160001960f88460031b161c1916905538808061039b565b91926020600181928685015181550194019201610386565b60036000527fc2575a0e9e593c00f959f8c92f12db2869c3395a3b0502d05e2516446f71f85b601f830160051c81019160208410610435575b601f0160051c01905b818110610429575061009f565b6000815560010161041c565b9091508190610413565b90607f169061008d565b600080fd5b51906001600160a01b038216820361044957565b60408051919082016001600160401b038111838210176103525760405260078252660494954502d4c560cc1b602083015256fe608080604052600436101561001d575b50361561001b57600080fd5b005b60003560e01c90816306fdde03146113b5575080630902f1ac14611390578063095ea7b31461136a578063100af2031461134c5780631618e1301461106557806318160ddd146110475780631b3d2cb314610e6e57806323b872dd14610db057806324619aae14610d7f578063249d39e914610d62578063313ce56714610d465780633950935114610cf45780634b94f50e14610cd957806351c6590a146109e757806361d027b3146109be57806370a0823114610984578063715018a6146109275780638da5cb5b146108fe57806395d89b41146107f65780639c8f9f23146104ed578063a457c2d714610446578063a9059cbb14610415578063be378228146103f9578063bf333f2c146103dd578063c82a8186146103a4578063dd62ed3e14610353578063f0f44260146102a4578063f2fde38b146101dc578063f4325d67146101be5763fc0c546a14610174573861000f565b346101b95760003660031901126101b9576040517f00000000000000000000000000000000000000000000000000000000000000006001600160a01b03168152602090f35b600080fd5b346101b95760003660031901126101b9576020600854604051908152f35b346101b95760203660031901126101b9576101f56114ba565b6101fd61196a565b6001600160a01b0316801561025057600680546001600160a01b0319811683179091556001600160a01b03167f8be0079c531659141344cd1fd0a4f28419497f9722a3daafe3b4186f6b6457e0600080a3005b60405162461bcd60e51b815260206004820152602660248201527f4f776e61626c653a206e6577206f776e657220697320746865207a65726f206160448201526564647265737360d01b6064820152608490fd5b346101b95760203660031901126101b9576102bd6114ba565b6102c561196a565b6001600160a01b0316801561031a576020817f7dae230f18360d76a040c81f050aa14eb9d6dc7901b20fc5d855e2a20fe814d1926bffffffffffffffffffffffff60a01b6007541617600755604051908152a1005b60405162461bcd60e51b81526020600482015260116024820152704c503a207a65726f20747265617375727960781b6044820152606490fd5b346101b95760403660031901126101b95761036c6114ba565b6103746114d0565b6001600160a01b039182166000908152600160209081526040808320949093168252928352819020549051908152f35b346101b95760203660031901126101b95760206103d56127106103c860043561152b565b046009546008549161177d565b604051908152f35b346101b95760003660031901126101b9576020604051601e8152f35b346101b95760003660031901126101b957602060405160058152f35b346101b95760403660031901126101b95761043b6104316114ba565b60243590336117eb565b602060405160018152f35b346101b95760403660031901126101b95761045f6114ba565b60243590336000526001602052604060002060018060a01b0382166000526020526040600020549180831061049a5761043b9203903361161f565b60405162461bcd60e51b815260206004820152602560248201527f45524332303a2064656372656173656420616c6c6f77616e63652062656c6f77604482015264207a65726f60d81b6064820152608490fd5b346101b95760203660031901126101b957600435610509611727565b80156107bc576002549061053861052b8361052660085485611543565b611556565b9261052660095484611543565b90821515806107b3575b15610764573315610715573360005260006020526040600020548181106106c557819033600052600060205203604060002055806002540360025560006040518281527fddf252ad1be2c89b69c2b068fc378daa952ba7f163c4a11628f55a4df523b3ef60203392a36105b78360085461151e565b6008556105c68260095461151e565b60095560405163a9059cbb60e01b81523360048201526024810184905260208160448160006001600160a01b037f0000000000000000000000000000000000000000000000000000000000000000165af1801561068357610698575b50816000811561068f575b600080809381933390f115610683576040805193845260208401929092529082015233907f1dc8bb69df2b8e91fbdcbfcf93d951b3f0000f085a95fe3f7946d6161439245d9080606081015b0390a26001600555005b6040513d6000823e3d90fd5b506108fc61062d565b6106b99060203d6020116106be575b6106b181836114e6565b8101906115ba565b610622565b503d6106a7565b60405162461bcd60e51b815260206004820152602260248201527f45524332303a206275726e20616d6f756e7420657863656564732062616c616e604482015261636560f01b6064820152608490fd5b60405162461bcd60e51b815260206004820152602160248201527f45524332303a206275726e2066726f6d20746865207a65726f206164647265736044820152607360f81b6064820152608490fd5b60405162461bcd60e51b815260206004820152602160248201527f4c503a20696e73756666696369656e74206c6971756964697479206275726e656044820152601960fa1b6064820152608490fd5b50811515610542565b60405162461bcd60e51b815260206004820152601260248201527113140e881e995c9bc81b1c08185b5bdd5b9d60721b6044820152606490fd5b346101b95760003660031901126101b95760405160006004548060011c906001811680156108f4575b6020831081146108e0578285529081156108bc575060011461085c575b6108588361084c818503826114e6565b60405191829182611471565b0390f35b91905060046000527f8a35acfbc15ff81a39ae7d344fd709f28e8600b4aa8c65c6b64bfe7fe36bd19b916000905b8082106108a25750909150810160200161084c61083c565b91926001816020925483858801015201910190929161088a565b60ff191660208086019190915291151560051b8401909101915061084c905061083c565b634e487b7160e01b84526022600452602484fd5b91607f169161081f565b346101b95760003660031901126101b9576006546040516001600160a01b039091168152602090f35b346101b95760003660031901126101b95761094061196a565b600680546001600160a01b031981169091556000906001600160a01b03167f8be0079c531659141344cd1fd0a4f28419497f9722a3daafe3b4186f6b6457e08280a3005b346101b95760203660031901126101b9576001600160a01b036109a56114ba565b1660005260006020526020604060002054604051908152f35b346101b95760003660031901126101b9576007546040516001600160a01b039091168152602090f35b60203660031901126101b9576004356109fe611727565b80151580610cd0575b15610c985760025480610c575750610a1f3482611543565b60006003821115610c495750808060011c60018101809111610c3357905b828210610c145750505b8015610bc5576040516323b872dd60e01b81523360048201523060248201526044810183905260208160648160006001600160a01b037f0000000000000000000000000000000000000000000000000000000000000000165af1801561068357610ba8575b50610ab9826008546115d2565b600855610ac8346009546115d2565b6009553315610b635761067981610b027f64b83944e79c3ce8d4c297411de637c3e102d064677aac0c163976ebdcd6f50e936002546115d2565b600255336000526000602052604060002081815401905560405181815260007fddf252ad1be2c89b69c2b068fc378daa952ba7f163c4a11628f55a4df523b3ef60203393a36040805194855234602086015284015233929081906060820190565b60405162461bcd60e51b815260206004820152601f60248201527f45524332303a206d696e7420746f20746865207a65726f2061646472657373006044820152606490fd5b610bc09060203d6020116106be576106b181836114e6565b610aac565b60405162461bcd60e51b815260206004820152602160248201527f4c503a20696e73756666696369656e74206c6971756964697479206d696e74656044820152601960fa1b6064820152608490fd5b909150610c2a82610c258184611556565b6115d2565b60011c90610a3d565b634e487b7160e01b600052601160045260246000fd5b9015610a4757506001610a47565b610c83610c7a610c73610c6a8486611543565b60085490611556565b9234611543565b60095490611556565b80821015610c915750610a47565b9050610a47565b60405162461bcd60e51b815260206004820152601060248201526f4c503a207a65726f20616d6f756e747360801b6044820152606490fd5b50341515610a07565b346101b95760003660031901126101b95760206103d56115df565b346101b95760403660031901126101b95761043b610d106114ba565b336000526001602052604060002060018060a01b038216600052602052610d3f604060002060243590546115d2565b903361161f565b346101b95760003660031901126101b957602060405160128152f35b346101b95760003660031901126101b95760206040516127108152f35b346101b95760203660031901126101b95760206103d5612710610da360043561152b565b046008546009549161177d565b346101b95760603660031901126101b957610dc96114ba565b610dd16114d0565b6001600160a01b0382166000908152600160208181526040808420338552909152909120549260443592918401610e0d575b61043b93506117eb565b828410610e2957610e248361043b9503338361161f565b610e03565b60405162461bcd60e51b815260206004820152601d60248201527f45524332303a20696e73756666696369656e7420616c6c6f77616e63650000006044820152606490fd5b60203660031901126101b957610e82611727565b341561101357612710610e943461152b565b04610ea76009549160085492839161177d565b90610eb6600435831015611576565b8111610fce5760053402348104600503610c3357612710900460008080808460018060a01b0360075416828215610fc5575bf11561068357610efb610f03913461151e565b6009546115d2565b600955610f128160085461151e565b60085560405163a9059cbb60e01b81523360048201526024810182905260208160448160006001600160a01b037f0000000000000000000000000000000000000000000000000000000000000000165af1801561068357610fa8575b506040519034825260208201527fb70da66af69a6423f1c9e605895423c61b3beed9bf111c0676d7975e085aff1e60403392a26001600555005b610fc09060203d6020116106be576106b181836114e6565b610f6e565b506108fc610ee8565b60405162461bcd60e51b815260206004820152601e60248201527f4c503a20696e73756666696369656e7420746f6b656e207265736572766500006044820152606490fd5b60405162461bcd60e51b815260206004820152600c60248201526b098a07440f4cae4de408aa8960a31b6044820152606490fd5b346101b95760003660031901126101b9576020600254604051908152f35b346101b95760403660031901126101b957600435611081611727565b8015611316576127106110938261152b565b046110a66008549160095492839161177d565b906110b5602435831015611576565b81116112d1576040516323b872dd60e01b8152336004820152306024820152604481018390526001600160a01b037f000000000000000000000000000000000000000000000000000000000000000016906020816064816000865af1908115610683576000916112b2575b50156112775760058302838104600503610c3357612710900490816111c1575b5061114e611156918461151e565b6008546115d2565b6008556111658160095461151e565b60095580600081156111b8575b600080809381933390f1156106835760405191825260208201527e1c255bb3b770a5769e36d973b01622772681eb257c5543d2fe01ea6d46685b60403392a26001600555005b506108fc611172565b60075460405163a9059cbb60e01b81526001600160a01b0390911660048201526024810183905290602090829060449082906000905af190811561068357600091611258575b50156112135783611140565b60405162461bcd60e51b815260206004820152601760248201527f4c503a20666565207472616e73666572206661696c65640000000000000000006044820152606490fd5b611271915060203d6020116106be576106b181836114e6565b84611207565b60405162461bcd60e51b815260206004820152601360248201527213140e881d1c985b9cd9995c8819985a5b1959606a1b6044820152606490fd5b6112cb915060203d6020116106be576106b181836114e6565b84611120565b60405162461bcd60e51b815260206004820152601c60248201527f4c503a20696e73756666696369656e74204554482072657365727665000000006044820152606490fd5b60405162461bcd60e51b815260206004820152600e60248201526d13140e881e995c9bc81a5b9c1d5d60921b6044820152606490fd5b346101b95760003660031901126101b9576020600954604051908152f35b346101b95760403660031901126101b95761043b6113866114ba565b602435903361161f565b346101b95760003660031901126101b957604060085460095482519182526020820152f35b346101b95760003660031901126101b95760006003548060011c90600181168015611467575b6020831081146108e0578285529081156108bc5750600114611407576108588361084c818503826114e6565b91905060036000527fc2575a0e9e593c00f959f8c92f12db2869c3395a3b0502d05e2516446f71f85b916000905b80821061144d5750909150810160200161084c61083c565b919260018160209254838588010152019101909291611435565b91607f16916113db565b91909160208152825180602083015260005b8181106114a4575060409293506000838284010152601f8019910116010190565b8060208092870101516040828601015201611483565b600435906001600160a01b03821682036101b957565b602435906001600160a01b03821682036101b957565b90601f8019910116810190811067ffffffffffffffff82111761150857604052565b634e487b7160e01b600052604160045260246000fd5b91908203918211610c3357565b906126f28202918083046126f21490151715610c3357565b81810292918115918404141715610c3357565b8115611560570490565b634e487b7160e01b600052601260045260246000fd5b1561157d57565b60405162461bcd60e51b815260206004820152601560248201527413140e881cdb1a5c1c1859d948195e18d959591959605a1b6044820152606490fd5b908160209103126101b9575180151581036101b95790565b91908201809211610c3357565b60085480156116195760095490670de0b6b3a7640000820291808304670de0b6b3a76400001490151715610c335761161691611556565b90565b50600090565b6001600160a01b03169081156116d6576001600160a01b03169182156116865760207f8c5be1e5ebec7d5bd14f71427d1e84f3dd0314c0f7b2291e5b200ac8c7c3b925918360005260018252604060002085600052825280604060002055604051908152a3565b60405162461bcd60e51b815260206004820152602260248201527f45524332303a20617070726f766520746f20746865207a65726f206164647265604482015261737360f01b6064820152608490fd5b60405162461bcd60e51b8152602060048201526024808201527f45524332303a20617070726f76652066726f6d20746865207a65726f206164646044820152637265737360e01b6064820152608490fd5b600260055414611738576002600555565b60405162461bcd60e51b815260206004820152601f60248201527f5265656e7472616e637947756172643a207265656e7472616e742063616c6c006044820152606490fd5b91811515806117e2575b156117a9578261179d611616946117a393611543565b926115d2565b90611556565b60405162461bcd60e51b81526020600482015260116024820152704c503a20656d707479207265736572766560781b6044820152606490fd5b50801515611787565b6001600160a01b0316908115611917576001600160a01b03169182156118c65781600052600060205260406000205481811061187257817fddf252ad1be2c89b69c2b068fc378daa952ba7f163c4a11628f55a4df523b3ef9260209285600052600084520360406000205584600052600082526040600020818154019055604051908152a3565b60405162461bcd60e51b815260206004820152602660248201527f45524332303a207472616e7366657220616d6f756e7420657863656564732062604482015265616c616e636560d01b6064820152608490fd5b60405162461bcd60e51b815260206004820152602360248201527f45524332303a207472616e7366657220746f20746865207a65726f206164647260448201526265737360e81b6064820152608490fd5b60405162461bcd60e51b815260206004820152602560248201527f45524332303a207472616e736665722066726f6d20746865207a65726f206164604482015264647265737360d81b6064820152608490fd5b6006546001600160a01b0316330361197e57565b606460405162461bcd60e51b815260206004820152602060248201527f4f776e61626c653a2063616c6c6572206973206e6f7420746865206f776e65726044820152fdfea264697066735822122074d3b305a463969df74b57b965850a339894e327b717a0a480454ce86393caff64736f6c634300081c0033",
  "linkReferences": {},
  "deployedLinkReferences": {}
}