{
  "_format": "hh-sol-artifact-1",
  "contractName": "IIITPNodeRegistry",
  "sourceName": "contracts/IIITPNodeRegistry.sol",
  "abi": [
    {
      "inputs": [
        {
          "internalType": "address",
          "name": "tokenAddress",
          "type": "address"
        }
      ],
      "stateMutability": "nonpayable",
      "type": "constructor"
    },
    {
      "anonymous": false,
      "inputs": [
        {
          "indexed": false,
          "internalType": "uint256",
          "name": "epoch",
          "type": "uint256"
        },
        {
          "indexed": false,
          "internalType": "uint256",
          "name": "totalRewarded",
          "type": "uint256"
        },
        {
          "indexed": false,
          "internalType": "uint256",
          "name": "nodeCount",
          "type": "uint256"
        }
      ],
      "name": "EpochRewardsDistributed",
      "type": "event"
    },
    {
      "anonymous": false,
      "inputs": [
        {
          "indexed": true,
          "internalType": "uint256",
          "name": "nodeId",
          "type": "uint256"
        },
        {
          "indexed": true,
          "internalType": "address",
          "name": "owner",
          "type": "address"
        }
      ],
      "name": "NodeDeregistered",
      "type": "event"
    },
    {
      "anonymous": false,
      "inputs": [
        {
          "indexed": true,
          "internalType": "uint256",
          "name": "nodeId",
          "type": "uint256"
        },
        {
          "indexed": true,
          "internalType": "address",
          "name": "owner",
          "type": "address"
        },
        {
          "indexed": false,
          "internalType": "string",
          "name": "name",
          "type": "string"
        }
      ],
      "name": "NodeRegistered",
      "type": "event"
    },
    {
      "anonymous": false,
      "inputs": [
        {
          "indexed": false,
          "internalType": "uint256",
          "name": "newReward",
          "type": "uint256"
        }
      ],
      "name": "NodeRewardUpdated",
      "type": "event"
    },
    {
      "anonymous": false,
      "inputs": [
        {
          "indexed": true,
          "internalType": "uint256",
          "name": "nodeId",
          "type": "uint256"
        },
        {
          "indexed": true,
          "internalType": "address",
          "name": "owner",
          "type": "address"
        },
        {
          "indexed": false,
          "internalType": "uint256",
          "name": "slashedAmount",
          "type": "uint256"
        }
      ],
      "name": "NodeSlashed",
      "type": "event"
    },
    {
      "anonymous": false,
      "inputs": [
        {
          "indexed": false,
          "internalType": "uint256",
          "name": "newStake",
          "type": "uint256"
        }
      ],
      "name": "NodeStakeUpdated",
      "type": "event"
    },
    {
      "anonymous": false,
      "inputs": [
        {
          "indexed": true,
          "internalType": "bytes32",
          "name": "role",
          "type": "bytes32"
        },
        {
          "indexed": true,
          "internalType": "bytes32",
          "name": "previousAdminRole",
          "type": "bytes32"
        },
        {
          "indexed": true,
          "internalType": "bytes32",
          "name": "newAdminRole",
          "type": "bytes32"
        }
      ],
      "name": "RoleAdminChanged",
      "type": "event"
    },
    {
      "anonymous": false,
      "inputs": [
        {
          "indexed": true,
          "internalType": "bytes32",
          "name": "role",
          "type": "bytes32"
        },
        {
          "indexed": true,
          "internalType": "address",
          "name": "account",
          "type": "address"
        },
        {
          "indexed": true,
          "internalType": "address",
          "name": "sender",
          "type": "address"
        }
      ],
      "name": "RoleGranted",
      "type": "event"
    },
    {
      "anonymous": false,
      "inputs": [
        {
          "indexed": true,
          "internalType": "bytes32",
          "name": "role",
          "type": "bytes32"
        },
        {
          "indexed": true,
          "internalType": "address",
          "name": "account",
          "type": "address"
        },
        {
          "indexed": true,
          "internalType": "address",
          "name": "sender",
          "type": "address"
        }
      ],
      "name": "RoleRevoked",
      "type": "event"
    },
    {
      "inputs": [],
      "name": "DEFAULT_ADMIN_ROLE",
      "outputs": [
        {
          "internalType": "bytes32",
          "name": "",
          "type": "bytes32"
        }
      ],
      "stateMutability": "view",
      "type": "function"
    },
    {
      "inputs": [],
      "name": "OPERATOR_ROLE",
      "outputs": [
        {
          "internalType": "bytes32",
          "name": "",
          "type": "bytes32"
        }
      ],
      "stateMutability": "view",
      "type": "function"
    },
    {
      "inputs": [],
      "name": "activeNodeCount",
      "outputs": [
        {
          "internalType": "uint256",
          "name": "",
          "type": "uint256"
        }
      ],
      "stateMutability": "view",
      "type": "function"
    },
    {
      "inputs": [
        {
          "internalType": "uint256",
          "name": "",
          "type": "uint256"
        }
      ],
      "name": "activeNodeIds",
      "outputs": [
        {
          "internalType": "uint256",
          "name": "",
          "type": "uint256"
        }
      ],
      "stateMutability": "view",
      "type": "function"
    },
    {
      "inputs": [],
      "name": "deregisterNode",
      "outputs": [],
      "stateMutability": "nonpayable",
      "type": "function"
    },
    {
      "inputs": [
        {
          "internalType": "uint256",
          "name": "epochNumber",
          "type": "uint256"
        }
      ],
      "name": "distributeEpochRewards",
      "outputs": [],
      "stateMutability": "nonpayable",
      "type": "function"
    },
    {
      "inputs": [],
      "name": "getActiveNodes",
      "outputs": [
        {
          "components": [
            {
              "internalType": "uint256",
              "name": "nodeId",
              "type": "uint256"
            },
            {
              "internalType": "address",
              "name": "owner",
              "type": "address"
            },
            {
              "internalType": "string",
              "name": "name",
              "type": "string"
            },
            {
              "internalType": "string",
              "name": "nodeType",
              "type": "string"
            },
            {
              "internalType": "uint256",
              "name": "registeredAt",
              "type": "uint256"
            },
            {
              "internalType": "uint256",
              "name": "lastRewardAt",
              "type": "uint256"
            },
            {
              "internalType": "uint256",
              "name": "totalRewards",
              "type": "uint256"
            },
            {
              "internalType": "uint256",
              "name": "stake",
              "type": "uint256"
            },
            {
              "internalType": "enum IIITPNodeRegistry.NodeStatus",
              "name": "status",
              "type": "uint8"
            }
          ],
          "internalType": "struct IIITPNodeRegistry.Node[]",
          "name": "",
          "type": "tuple[]"
        }
      ],
      "stateMutability": "view",
      "type": "function"
    },
    {
      "inputs": [],
      "name": "getMyNode",
      "outputs": [
        {
          "components": [
            {
              "internalType": "uint256",
              "name": "nodeId",
              "type": "uint256"
            },
            {
              "internalType": "address",
              "name": "owner",
              "type": "address"
            },
            {
              "internalType": "string",
              "name": "name",
              "type": "string"
            },
            {
              "internalType": "string",
              "name": "nodeType",
              "type": "string"
            },
            {
              "internalType": "uint256",
              "name": "registeredAt",
              "type": "uint256"
            },
            {
              "internalType": "uint256",
              "name": "lastRewardAt",
              "type": "uint256"
            },
            {
              "internalType": "uint256",
              "name": "totalRewards",
              "type": "uint256"
            },
            {
              "internalType": "uint256",
              "name": "stake",
              "type": "uint256"
            },
            {
              "internalType": "enum IIITPNodeRegistry.NodeStatus",
              "name": "status",
              "type": "uint8"
            }
          ],
          "internalType": "struct IIITPNodeRegistry.Node",
          "name": "",
          "type": "tuple"
        }
      ],
      "stateMutability": "view",
      "type": "function"
    },
    {
      "inputs": [
        {
          "internalType": "uint256",
          "name": "nodeId",
          "type": "uint256"
        }
      ],
      "name": "getNode",
      "outputs": [
        {
          "components": [
            {
              "internalType": "uint256",
              "name": "nodeId",
              "type": "uint256"
            },
            {
              "internalType": "address",
              "name": "owner",
              "type": "address"
            },
            {
              "internalType": "string",
              "name": "name",
              "type": "string"
            },
            {
              "internalType": "string",
              "name": "nodeType",
              "type": "string"
            },
            {
              "internalType": "uint256",
              "name": "registeredAt",
              "type": "uint256"
            },
            {
              "internalType": "uint256",
              "name": "lastRewardAt",
              "type": "uint256"
            },
            {
              "internalType": "uint256",
              "name": "totalRewards",
              "type": "uint256"
            },
            {
              "internalType": "uint256",
              "name": "stake",
              "type": "uint256"
            },
            {
              "internalType": "enum IIITPNodeRegistry.NodeStatus",
              "name": "status",
              "type": "uint8"
            }
          ],
          "internalType": "struct IIITPNodeRegistry.Node",
          "name": "",
          "type": "tuple"
        }
      ],
      "stateMutability": "view",
      "type": "function"
    },
    {
      "inputs": [
        {
          "internalType": "bytes32",
          "name": "role",
          "type": "bytes32"
        }
      ],
      "name": "getRoleAdmin",
      "outputs": [
        {
          "internalType": "bytes32",
          "name": "",
          "type": "bytes32"
        }
      ],
      "stateMutability": "view",
      "type": "function"
    },
    {
      "inputs": [
        {
          "internalType": "bytes32",
          "name": "role",
          "type": "bytes32"
        },
        {
          "internalType": "address",
          "name": "account",
          "type": "address"
        }
      ],
      "name": "grantRole",
      "outputs": [],
      "stateMutability": "nonpayable",
      "type": "function"
    },
    {
      "inputs": [
        {
          "internalType": "bytes32",
          "name": "role",
          "type": "bytes32"
        },
        {
          "internalType": "address",
          "name": "account",
          "type": "address"
        }
      ],
      "name": "hasRole",
      "outputs": [
        {
          "internalType": "bool",
          "name": "",
          "type": "bool"
        }
      ],
      "stateMutability": "view",
      "type": "function"
    },
    {
      "inputs": [
        {
          "internalType": "address",
          "name": "user",
          "type": "address"
        }
      ],
      "name": "isActiveNode",
      "outputs": [
        {
          "internalType": "bool",
          "name": "",
          "type": "bool"
        }
      ],
      "stateMutability": "view",
      "type": "function"
    },
    {
      "inputs": [],
      "name": "maxNodes",
      "outputs": [
        {
          "internalType": "uint256",
          "name": "",
          "type": "uint256"
        }
      ],
      "stateMutability": "view",
      "type": "function"
    },
    {
      "inputs": [],
      "name": "nextNodeId",
      "outputs": [
        {
          "internalType": "uint256",
          "name": "",
          "type": "uint256"
        }
      ],
      "stateMutability": "view",
      "type": "function"
    },
    {
      "inputs": [],
      "name": "nodeRewardPerEpoch",
      "outputs": [
        {
          "internalType": "uint256",
          "name": "",
          "type": "uint256"
        }
      ],
      "stateMutability": "view",
      "type": "function"
    },
    {
      "inputs": [],
      "name": "nodeStakeRequired",
      "outputs": [
        {
          "internalType": "uint256",
          "name": "",
          "type": "uint256"
        }
      ],
      "stateMutability": "view",
      "type": "function"
    },
    {
      "inputs": [
        {
          "internalType": "uint256",
          "name": "",
          "type": "uint256"
        }
      ],
      "name": "nodes",
      "outputs": [
        {
          "internalType": "uint256",
          "name": "nodeId",
          "type": "uint256"
        },
        {
          "internalType": "address",
          "name": "owner",
          "type": "address"
        },
        {
          "internalType": "string",
          "name": "name",
          "type": "string"
        },
        {
          "internalType": "string",
          "name": "nodeType",
          "type": "string"
        },
        {
          "internalType": "uint256",
          "name": "registeredAt",
          "type": "uint256"
        },
        {
          "internalType": "uint256",
          "name": "lastRewardAt",
          "type": "uint256"
        },
        {
          "internalType": "uint256",
          "name": "totalRewards",
          "type": "uint256"
        },
        {
          "internalType": "uint256",
          "name": "stake",
          "type": "uint256"
        },
        {
          "internalType": "enum IIITPNodeRegistry.NodeStatus",
          "name": "status",
          "type": "uint8"
        }
      ],
      "stateMutability": "view",
      "type": "function"
    },
    {
      "inputs": [
        {
          "internalType": "address",
          "name": "",
          "type": "address"
        }
      ],
      "name": "ownerToNodeId",
      "outputs": [
        {
          "internalType": "uint256",
          "name": "",
          "type": "uint256"
        }
      ],
      "stateMutability": "view",
      "type": "function"
    },
    {
      "inputs": [
        {
          "internalType": "string",
          "name": "name",
          "type": "string"
        },
        {
          "internalType": "string",
          "name": "nodeType",
          "type": "string"
        }
      ],
      "name": "registerNode",
      "outputs": [],
      "stateMutability": "nonpayable",
      "type": "function"
    },
    {
      "inputs": [
        {
          "internalType": "bytes32",
          "name": "role",
          "type": "bytes32"
        },
        {
          "internalType": "address",
          "name": "account",
          "type": "address"
        }
      ],
      "name": "renounceRole",
      "outputs": [],
      "stateMutability": "nonpayable",
      "type": "function"
    },
    {
      "inputs": [
        {
          "internalType": "bytes32",
          "name": "role",
          "type": "bytes32"
        },
        {
          "internalType": "address",
          "name": "account",
          "type": "address"
        }
      ],
      "name": "revokeRole",
      "outputs": [],
      "stateMutability": "nonpayable",
      "type": "function"
    },
    {
      "inputs": [
        {
          "internalType": "uint256",
          "name": "max",
          "type": "uint256"
        }
      ],
      "name": "setMaxNodes",
      "outputs": [],
      "stateMutability": "nonpayable",
      "type": "function"
    },
    {
      "inputs": [
        {
          "internalType": "uint256",
          "name": "amount",
          "type": "uint256"
        }
      ],
      "name": "setNodeRewardPerEpoch",
      "outputs": [],
      "stateMutability": "nonpayable",
      "type": "function"
    },
    {
      "inputs": [
        {
          "internalType": "uint256",
          "name": "amount",
          "type": "uint256"
        }
      ],
      "name": "setNodeStakeRequired",
      "outputs": [],
      "stateMutability": "nonpayable",
      "type": "function"
    },
    {
      "inputs": [
        {
          "internalType": "uint256",
          "name": "nodeId",
          "type": "uint256"
        }
      ],
      "name": "slashNode",
      "outputs": [],
      "stateMutability": "nonpayable",
      "type": "function"
    },
    {
      "inputs": [
        {
          "internalType": "bytes4",
          "name": "interfaceId",
          "type": "bytes4"
        }
      ],
      "name": "supportsInterface",
      "outputs": [
        {
          "internalType": "bool",
          "name": "",
          "type": "bool"
        }
      ],
      "stateMutability": "view",
      "type": "function"
    },
    {
      "inputs": [],
      "name": "token",
      "outputs": [
        {
          "internalType": "contract IIITPToken",
          "name": "",
          "type": "address"
        }
      ],
      "stateMutability": "view",
      "type": "function"
    }
  ],
  "bytecode": "0x60a0346101e957601f61213338819003918201601f19168301916001600160401b038311848410176101ee578084926020946040528339810103126101e957516001600160a01b038116908190036101e9576001600055681b1ae4d6e2ef500000600255678ac7230489e800006003556064600455600160055580156101a4576080523360009081526000805160206120f3833981519152602052604090205460ff1615610164575b336000908152600080516020612113833981519152602052604090205460ff1615610102575b604051611ece9081610205823960805181818161016a015281816104640152818161075701528181610d7d01526114fc0152f35b33600081815260008051602061211383398151915260205260408120805460ff1916600117905581907f97667070c54ef182b0f5858b034beac1b6f3089aa2d3188bb1e8929f4fa9b929906000805160206120d38339815191529080a46100ce565b3360008181526000805160206120f383398151915260205260408120805460ff1916600117905581906000805160206120d38339815191528180a46100a8565b60405162461bcd60e51b815260206004820152601860248201527f4e6f646552656769737472793a207a65726f20746f6b656e00000000000000006044820152606490fd5b600080fd5b634e487b7160e01b600052604160045260246000fdfe608080604052600436101561001357600080fd5b600090813560e01c90816301ffc9a71461162f5750806318b1c081146114335780631c53c280146113735780631d0f22d8146112ef57806320eca391146112d1578063248a9ca31461129b5780632c2200d61461124d5780632c9405e81461122f5780632f2ff15d1461116d57806336568abe146110da5780634f0f4aa91461109a5780636b51e91914610f5f57806371233fc114610f115780637534081514610ef357806391d1485414610eaa578063926406b214610ced578063a217fddf14610cd1578063a44c839414610cae578063d3983524146106a9578063d547741f14610660578063d5670b951461035f578063d9d93fb014610286578063da7741c114610268578063daa9f5761461022f578063ddf0185f14610211578063ea17efdd146101d7578063f5b541a61461019c5763fc0c546a1461015557600080fd5b346101995780600319360112610199576040517f00000000000000000000000000000000000000000000000000000000000000006001600160a01b03168152602090f35b80fd5b503461019957806003193601126101995760206040517f97667070c54ef182b0f5858b034beac1b6f3089aa2d3188bb1e8929f4fa9b9298152f35b503461019957602036600319011261019957600435906009548210156101995760206102028361190a565b90549060031b1c604051908152f35b50346101995780600319360112610199576020600454604051908152f35b5034610199576020366003190112610199576020906040906001600160a01b03610257611826565b168152600883522054604051908152f35b50346101995780600319360112610199576020600354604051908152f35b5034610199578060031936011261019957604061035b916102a56119c2565b503381526008602052818120546102bd81151561193b565b815260076020522061034760ff6008604051936102d9856116c2565b8054855260018101546001600160a01b031660208601526102fc60028201611717565b604086015261030d60038201611717565b606086015260048101546080860152600581015460a0860152600681015460c0860152600781015460e08601520154166101008301611a07565b604051918291602083526020830190611857565b0390f35b5034610199576020366003190112610199577f97667070c54ef182b0f5858b034beac1b6f3089aa2d3188bb1e8929f4fa9b9298152600160209081526040808320336000908152925290205460ff1615610580576103bb611aae565b600954801561053b578190825b81811061041057507f6b186fc149a1a7d6e090e3224e71cb1f37fb99bff8cfd98c41d782c9b000c5d59160609160405191600435835260208301526040820152a16001815580f35b6104198161190a565b90549060031b1c845260076020526040842060ff60088201541660038110156105275760011461044d575b506001016103c8565b600181015460035492949286916001600160a01b037f0000000000000000000000000000000000000000000000000000000000000000811692911690823b15610523576040516340c10f1960e01b81526001600160a01b0392909216600483015260248201529082908290604490829084905af18015610518576104ff575b50506001916104f8916003546104e760068301918254611aa1565b905560054291015560035490611aa1565b9290610444565b81610509916116f5565b6105145784386104cc565b8480fd5b6040513d84823e3d90fd5b8380fd5b634e487b7160e01b86526021600452602486fd5b60405162461bcd60e51b815260206004820152601d60248201527f4e6f646552656769737472793a206e6f20616374697665206e6f6465730000006044820152606490fd5b61065c61058c33611cca565b61063c60116105ba7f97667070c54ef182b0f5858b034beac1b6f3089aa2d3188bb1e8929f4fa9b929611df6565b9260376040519485927f416363657373436f6e74726f6c3a206163636f756e742000000000000000000060208501526105fc81518092602086880191016117bb565b83017001034b99036b4b9b9b4b733903937b6329607d1b8382015261062b8251809360206048850191016117bb565b01010301601f1981018352826116f5565b60405162461bcd60e51b81526020600482015291829160248301906117de565b0390fd5b5034610199576040366003190112610199576106a6600435610680611841565b906106a161069c82600052600160205260016040600020015490565b611bf3565b611c33565b80f35b50346101995760403660031901126101995760043567ffffffffffffffff8111610caa576106db9036906004016118dc565b9060243567ffffffffffffffff8111610523576106fc9036906004016118dc565b610707929192611aae565b33855260086020526040852054610c66576006546004541115610c21578315610bdc576002546040516323b872dd60e01b81523360048201523060248201526044810191909152602081606481897f00000000000000000000000000000000000000000000000000000000000000006001600160a01b03165af18015610bd157610ba4575b506005549261079a84611a3f565b600555600254604051926107ad846116c2565b8584526107d560208501933385526107c6368a89611a6a565b92604087019384523691611a6a565b60608501908152608085019042825260a086019242845260c08701948b865260e08801526001610100880152888b52600760205260408b209587518755600187019060018060a01b039051166bffffffffffffffffffffffff60a01b82541617905560028601905180519067ffffffffffffffff8211610b90578c829161085c8554611688565b601f8111610b3c575b50602091601f8411600114610ad95792610ace575b50508160011b916000199060031b1c19161790555b5180519067ffffffffffffffff8211610aba576108af6003870154611688565b601f8111610a72575b506020908b601f84116001146109fc579260089694928192610100999795926109f1575b50508160011b916000199060031b1c19161760038501555b51600484015551600583015551600682015560e084015160078201550191015160038110156105275760ff801983541691161790553384526008602052816040852055600954680100000000000000008110156109dd579061099a836109818460017f1c2ae38eec08b10a899ed98c4ad56a416dc55dba8ced632701e37234452d45ef960160095561190a565b90919082549060031b91821b91600019901b1916179055565b6109a5600654611a3f565b600655836040519160208352816020840152604083013784604085830101526040813395601f80199101168101030190a36001815580f35b634e487b7160e01b85526041600452602485fd5b0151905038806108dc565b5090600387018c52808c20918c5b601f1985168110610a5a575092600896949260019261010099979583601f19811610610a41575b505050811b0160038501556108f4565b015160001960f88460031b161c19169055388080610a31565b91926020600181928685015181550194019201610a0a565b600387018c5260208c20601f840160051c81019160208510610ab0575b601f0160051c01905b818110610aa557506108b8565b8c8155600101610a98565b9091508190610a8f565b634e487b7160e01b8b52604160045260248bfd5b01519050388061087a565b8581528281209350601f198516905b818110610b245750908460019594939210610b0b575b505050811b01905561088f565b015160001960f88460031b161c19169055388080610afe565b92936020600181928786015181550195019301610ae8565b91602091935085815220601f840160051c81019160208510610b86575b918f9291601f8695930160051c01905b818110610b765750610865565b9283558493508f92600101610b69565b9091508190610b59565b634e487b7160e01b8d52604160045260248dfd5b610bc59060203d602011610bca575b610bbd81836116f5565b8101906119aa565b61078c565b503d610bb3565b6040513d88823e3d90fd5b60405162461bcd60e51b815260206004820152601860248201527f4e6f646552656769737472793a20656d707479206e616d6500000000000000006044820152606490fd5b60405162461bcd60e51b815260206004820152601f60248201527f4e6f646552656769737472793a206d6178206e6f6465732072656163686564006044820152606490fd5b606460405162461bcd60e51b815260206004820152602060248201527f4e6f646552656769737472793a20616c726561647920726567697374657265646044820152fd5b5080fd5b503461019957602036600319011261019957610cc8611b9f565b60043560045580f35b5034610199578060031936011261019957602090604051908152f35b503461019957602036600319011261019957600435610d0a611b9f565b80825260076020526040822090600882019160ff8354166003811015610e9657600103610e515760078101805490859055835460ff191660021790935560010180546001600160a01b03168452600860205260408420849055610d6c82611b04565b610d77600654611987565b600655837f00000000000000000000000000000000000000000000000000000000000000006001600160a01b0316803b15610caa578190602460405180948193630852cd8d60e31b83528960048401525af18015610e4657610e0f575b50546040519283526001600160a01b0316917f23246aaddc8d188d21ba2e8e9860f600d6830f2e2a25da7fdd5dc65387d8d3af90602090a380f35b84610e3e7f23246aaddc8d188d21ba2e8e9860f600d6830f2e2a25da7fdd5dc65387d8d3af93966020936116f5565b949150610dd4565b6040513d87823e3d90fd5b60405162461bcd60e51b815260206004820152601860248201527f4e6f646552656769737472793a206e6f742061637469766500000000000000006044820152606490fd5b634e487b7160e01b85526021600452602485fd5b50346101995760403660031901126101995760ff6040602092610ecb611841565b6004358252600185528282206001600160a01b03909116825284522054604051911615158152f35b50346101995780600319360112610199576020600654604051908152f35b5034610199576020366003190112610199577f83b383f30b1af55047dcc27678656938437b7108c82a08bdea16f491dcb9d38f6020600435610f51611b9f565b80600255604051908152a180f35b5034610199578060031936011261019957600954610f7c81611a13565b90610f8a60405192836116f5565b808252601f19610f9982611a13565b01835b818110611083575050825b8181106110155782846040519182916020830160208452825180915260408401602060408360051b870101940192905b828210610fe657505050500390f35b919360019193955060206110058192603f198a82030186528851611857565b9601920192018594939192610fd7565b8061102160019261190a565b90549060031b1c855260076020526040852061106760ff600860405193611047856116c2565b80548552868060a01b03878201541660208601526102fc60028201611717565b6110718286611a2b565b5261107c8185611a2b565b5001610fa7565b60209061108e6119c2565b82828701015201610f9c565b503461019957602036600319011261019957604061035b916110ba6119c2565b50600435815260076020522061034760ff6008604051936102d9856116c2565b5034610199576040366003190112610199576110f4611841565b336001600160a01b03821603611110576106a690600435611c33565b60405162461bcd60e51b815260206004820152602f60248201527f416363657373436f6e74726f6c3a2063616e206f6e6c792072656e6f756e636560448201526e103937b632b9903337b91039b2b63360891b6064820152608490fd5b50346101995760403660031901126101995760043561118a611841565b906111a661069c82600052600160205260016040600020015490565b8083526001602090815260408085206001600160a01b038516865290915283205460ff16156111d3578280f35b8083526001602081815260408086206001600160a01b0395909516808752949091528420805460ff191690911790553391907f2f8788117e7eff1d82e926ec794901d17c78024a50270940304540a733656f0d8480a438808280f35b50346101995780600319360112610199576020600254604051908152f35b5034610199576020366003190112610199577fe9d25f8e6c753f51e27d0eadbf3d1c0a9861aafc4558704b59d06c85fbced4d1602060043561128d611b9f565b80600355604051908152a180f35b50346101995760203660031901126101995760206112c9600435600052600160205260016040600020015490565b604051908152f35b50346101995780600319360112610199576020600554604051908152f35b5034610199576020366003190112610199576001600160a01b03611311611826565b168152600860205260408120548015159081611335575b6020826040519015158152f35b8252506007602052604081206008015460ff1690600382101561135f575060016020911438611328565b634e487b7160e01b81526021600452602490fd5b5034610199576020366003190112610199576004358152600760205260409020805460018201546001600160a01b03169161035b6113b360028301611717565b6113bf60038401611717565b92600481015493600582015461141360068401549261140560ff6008600788015497015416966040519b8c9b8c5260208c015261012060408c01526101208b01906117de565b9089820360608b01526117de565b95608088015260a087015260c086015260e0850152610100840190611803565b503461019957806003193601126101995761144c611aae565b3381526008602052604081205461146481151561193b565b808252600760205260ff600860408420015416600381101561161b576001036115d65780825260076020526114f760206007604085206008810160ff198154169055018481549155338552600882528460408120556114c284611b04565b6114cd600654611987565b60065560405163a9059cbb60e01b8152336004820152602481019190915291829081906044820190565b0381867f00000000000000000000000000000000000000000000000000000000000000006001600160a01b03165af19081156115cb5783916115ac575b50156115675733907f5f3c8f526df71e81ffbe1f8683e7ca2d4ca9aa1e6d316596955d8e98aeb763498380a36001815580f35b60405162461bcd60e51b815260206004820152601d60248201527f4e6f646552656769737472793a207472616e73666572206661696c65640000006044820152606490fd5b6115c5915060203d602011610bca57610bbd81836116f5565b38611534565b6040513d85823e3d90fd5b60405162461bcd60e51b815260206004820152601d60248201527f4e6f646552656769737472793a206e6f6465206e6f74206163746976650000006044820152606490fd5b634e487b7160e01b83526021600452602483fd5b905034610caa576020366003190112610caa5760043563ffffffff60e01b81168091036116845760209250637965db0b60e01b8114908115611673575b5015158152f35b6301ffc9a760e01b1490503861166c565b8280fd5b90600182811c921680156116b8575b60208310146116a257565b634e487b7160e01b600052602260045260246000fd5b91607f1691611697565b610120810190811067ffffffffffffffff8211176116df57604052565b634e487b7160e01b600052604160045260246000fd5b90601f8019910116810190811067ffffffffffffffff8211176116df57604052565b906040519182600082549261172b84611688565b80845293600181169081156117995750600114611752575b50611750925003836116f5565b565b90506000929192526020600020906000915b81831061177d5750509060206117509282010138611743565b6020919350806001915483858901015201910190918492611764565b90506020925061175094915060ff191682840152151560051b82010138611743565b60005b8381106117ce5750506000910152565b81810151838201526020016117be565b906020916117f7815180928185528580860191016117bb565b601f01601f1916010190565b9060038210156118105752565b634e487b7160e01b600052602160045260246000fd5b600435906001600160a01b038216820361183c57565b600080fd5b602435906001600160a01b038216820361183c57565b906118d9908251815260018060a01b036020840151166020820152610100806118a6611894604087015161012060408701526101208601906117de565b606087015185820360608701526117de565b946080810151608085015260a081015160a085015260c081015160c085015260e081015160e08501520151910190611803565b90565b9181601f8401121561183c5782359167ffffffffffffffff831161183c576020838186019501011161183c57565b60095481101561192557600960005260206000200190600090565b634e487b7160e01b600052603260045260246000fd5b1561194257565b60405162461bcd60e51b815260206004820152601c60248201527f4e6f646552656769737472793a206e6f742072656769737465726564000000006044820152606490fd5b8015611994576000190190565b634e487b7160e01b600052601160045260246000fd5b9081602091031261183c5751801515810361183c5790565b604051906119cf826116c2565b600061010083828152826020820152606060408201526060808201528260808201528260a08201528260c08201528260e08201520152565b60038210156118105752565b67ffffffffffffffff81116116df5760051b60200190565b80518210156119255760209160051b010190565b60001981146119945760010190565b67ffffffffffffffff81116116df57601f01601f191660200190565b929192611a7682611a4e565b91611a8460405193846116f5565b82948184528183011161183c578281602093846000960137010152565b9190820180921161199457565b600260005414611abf576002600055565b60405162461bcd60e51b815260206004820152601f60248201527f5265656e7472616e637947756172643a207265656e7472616e742063616c6c006044820152606490fd5b60005b60095480821015611b9a5782611b1c8361190a565b90549060031b1c14611b315750600101611b07565b60001981019250821161199457610981611b4d611b5a9361190a565b90549060031b1c9161190a565b6009548015611b845760001901611b708161190a565b8154906000199060031b1b19169055600955565b634e487b7160e01b600052603160045260246000fd5b505050565b3360009081527fa6eef7e35abe7026729641147f7915573c7e97b47efa546f5f6e3230263bcb49602052604090205460ff1615611bd857565b61065c611be433611cca565b61063c60116105ba6000611df6565b600081815260016020908152604080832033845290915290205460ff1615611c185750565b61065c9061063c60116105ba611c2d33611cca565b93611df6565b806000526001602052604060002060018060a01b03831660005260205260ff60406000205416611c61575050565b60008181526001602090815260408083206001600160a01b0395909516808452949091528120805460ff19169055339291907ff6391f5c32d9c69d2a47ea670b442974b53935d1edc7fd64eb21e047a839171b9080a4565b908151811015611925570160200190565b600090611cd7602a611a4e565b91611ce560405193846116f5565b602a8352611cf3602a611a4e565b6020840190601f1901368237835115611de25760309053825160011015611dce576078602184015350602960005b60018211611d76575050611d325790565b606460405162461bcd60e51b815260206004820152602060248201527f537472696e67733a20686578206c656e67746820696e73756666696369656e746044820152fd5b9091600f81166010811015611dba57611db491906f181899199a1a9b1b9c1cb0b131b232b360811b901a611daa8587611cb9565b5360041c92611987565b90611d21565b634e487b7160e01b83526032600452602483fd5b634e487b7160e01b81526032600452602490fd5b634e487b7160e01b82526032600452602482fd5b600090611e036042611a4e565b91611e1160405193846116f5565b60428352611e1f6042611a4e565b6020840190601f1901368237835115611de25760309053825160011015611dce576078602184015350604160005b60018211611e5e575050611d325790565b9091600f81166010811015611dba57611e9291906f181899199a1a9b1b9c1cb0b131b232b360811b901a611daa8587611cb9565b90611e4d56fea2646970667358221220ccf2bee349f5650b7b1933176865ab6d7b5b591930bc2947c7984ca37d9fd53d64736f6c634300081c00332f8788117e7eff1d82e926ec794901d17c78024a50270940304540a733656f0da6eef7e35abe7026729641147f7915573c7e97b47efa546f5f6e3230263bcb4931c1e66639f421f1853aeefe8ad6b62a3b96f3287efe23106923cd924aa025c2",
  "linkReferences": {},
  "deployedLinkReferences": {}
}